:020000040800F2
:10000000081B002001010008190C0008C9010008A4
:10001000C10B0008850A0008DD130008000000007D
:100020000000000000000000000000005D0C00085F
:10003000890A00080000000053010008490D00086B
:100040001B0100081B0100081B0100081B01000820
:100050001B0100081B0100081B0100081B01000810
:100060001B0100081B0100081B0100081B01000800
:100070001B0100081B0100081B0100081B010008F0
:100080001B0100081B0100081B0100081B010008E0
:100090001B0100081B0100081B0100081B010008D0
:1000A0001B0100081B0100081B0100081B010008C0
:1000B0001B0100081B0100081B0100081B010008B0
:1000C0001B0100081B0100081B0100081B010008A0
:1000D0001B0100081B0100081B0100081B01000890
:1000E0001B0100081B0100081B010008DFF80CD0F1
:1000F00000F076FC004800477B0A0008081B00203F
:100100000648804706480047FEE7FEE7FEE7FEE7B1
:10011000FEE7FEE7FEE7FEE7FEE7FEE7FD0D00086F
:10012000ED000008EFF3108072B6704780F310887E
:100130007047324A1368012B04D04FF0010313605B
:100140002F4A10602F4A11602F484FF080510160F4
:100150007047EFF3108272B62848016891B14FF0F2
:10016000000101602648016829B1EFF3098121E906
:10017000F00F00680160234909680968B1E8F00FD1
:1001800081F3098882F310884EF0040E70471D49F0
:1001900008601B494FF00000086018494FF001004B
:1001A00008601A481A49D0F8002041EA02010160AB
:1001B00015484FF08051016016480068006880F3D0
:1001C000088861B662B670471EF0040F0CBFEFF3EB
:1001D0000880EFF3098020E9F00F40F804ED1EF0ED
:1001E000040F0CBF80F3088880F3098800B503F082
:1001F0007FFC5DF804EB4EF0040E70476C010020AC
:10020000640100206801002004ED00E020ED00E022
:100210000000FFFF08ED00E0F0B480EA0102D40F17
:100220004200B2EB410F02D20246084611464A0094
:1002300042D0C30DDDB2C1F3C752AD1A202D35DA5D
:10024000C1F3160141F4000204B15242C5F1200687
:1002500002FA06F12A411044B3EBD05F23D0C4B1B7
:10026000012DA0EBC35009DCF0BC4FF0004202EAC4
:10027000C352DBB200F5000000F0BEBA400000F14E
:10028000807000EBC350A0F1807040EAD17049004B
:1002900009E0490841EAC071A0EBC35000F5000035
:1002A000400800EBC350F0BC00F09DBA614201224F
:1002B00002EB4101001BF6E7F0BC704781F0004102
:1002C000AAE780F00040A7E780EA010210B502F03B
:1002D0000043400022D04A001FD0010E01EB126102
:1002E000C0F35600C2F3560240F4000042F400028C
:1002F000A0FB022000047F39140400D0401C50EA07
:10030000124001D44000491EC2B20C0604EBD010CA
:10031000401C4008802A02D003E0002010BD20F0DD
:100320000100002900DA0020184310BD30B480EA33
:10033000010202F0004530F0004221F0004013D0ED
:1003400090B1C30DD40DC2F31601C0F31600E41A28
:1003500041F4000140F400027D34914201D3641C59
:1003600000E04900002C02DA30BC002070474FF456
:1003700000000023914201D3891A034340084FEA49
:100380004101F7D151B1914202D14FF0004105E056
:1003900002D24FF0010101E06FF0010103EBC45004
:1003A000284430BC00F01FBA2DE9FE4F804681EA98
:1003B0000300C00F0C46009021F0004123F00045DF
:1003C000B8EB0200A94105D24046214690461C46A2
:1003D0000B46024623F00040104347D0270DC7F3D9
:1003E0000A00C3F30A510290401A019040286BDAC8
:1003F000C3F3130040F4801B0098924620B1002301
:10040000D2EB030A63EB0B0B01985946C0F1400293
:10041000504600F0C7F906460D4650465946019A27
:1004200000F0CFF910EB08006141002487EA115277
:1004300084EAE7731A4340D0009A62B3019A012A12
:100440004FEA075215DC001B61EB02014FF000423E
:1004500002EA0752CDE90042001C41F58011324604
:100460002B4600F006FA03B0BDE8F08F4046214667
:10047000F9E7001B61EB0201001C41F58013001835
:100480005B412018A2F5001747EB030140EAD57045
:10049000B6196D4111E06D084FEA360645EAC075A0
:1004A0004FEA0752001B61EB0201001C41F580116D
:1004B00049084FEA30000019514132462B4603B03B
:1004C000BDE8F04F00F0C6B90098012240000023BB
:1004D000D0EB020263EBE073009821464FEAE07430
:1004E000B8EB000061EB0401E9E783F000435BE750
:1004F00081F0004158E72DE9FE4F81EA030404F042
:10050000004421F0004100944FF0000B23F0004321
:1005100050EA01045ED052EA03045BD0C3F30A54EC
:10052000C1F30A552C44A4F2F3340194A0FB025405
:10053000C1F3130141F48011C3F3130343F4801397
:1005400001FB024400FB034E840A970A44EA8154EB
:1005500047EA8357A4FB076802958D0A05FB0785C8
:100560004FEA932C04FB0C542705029D4FEA0658D2
:1005700047EA1637B5EB08056EEB070C870E920EAF
:1005800047EA811742EA8312A7FB0201B6EB0B018F
:1005900064EB00042B0D43EA0C335E1844EB1C5053
:1005A000DA465146E7FB0201C5F313044FEA0B3369
:1005B00043EA14534FEA0432019C43EA0603A4F1D0
:1005C0000C040294009CCDE900B400F052F903B091
:1005D000BDE8F08F00200146F9E72DE9F04D81EAF2
:1005E000030404F0004B21F0004514464FF0000ACC
:1005F00023F0004150EA050220D054EA01021DD048
:10060000C5F30A570246C5F31303C1F31300C1F340
:100610000A5640F4801543F48013A7EB0608101B1C
:10062000D64608F2FD3873EB050002D308F1010845
:1006300001E092185B41B8F1000F03DA0020014697
:10064000BDE8F08D00204FF48011064684460EE090
:10065000171B73EB050705D3121B63EB050306435A
:100660004CEA010C49084FEA300092185B4150EA0D
:100670000107EDD152EA030012D082EA040083EAB6
:100680000501084305D0101BAB4106D2012200230F
:1006900006E000224FF0004302E06FF00102531029
:1006A0001AEB06004CEB085110EB0A0041EB0B0172
:1006B000BDE8F04D00F0CEB8C10F80EAE07008440C
:1006C000CA079623002100F097B80EB5C10F80EA43
:1006D000E0700844CA07002140F233438DE80E0061
:1006E0000A460B4600F0C5F803B000BD00F000421A
:1006F00020F00040C10DC0F3160040F400007F2937
:1007000001DA00207047962903DCC1F19601C84048
:1007100001E096398840002AF4D04042704700F04A
:10072000004230F000400AD0C10D01F56071C0F305
:10073000160042EA0151C2084007114370470020E9
:100740000146704701F0004330B421F0004150EA07
:10075000010206D00A0DA2F56072C1F31301002A4E
:1007600002DC30BC00207047440F44EAC104C100E1
:10077000E01830BC00EBC25000F035B8002801DBB7
:10078000C0F10040002901DBC1F100418142704706
:10079000002801DBC0F10040002901DBC1F100416C
:1007A00088427047202A04DB203A00FA02F1002038
:1007B00070479140C2F1200320FA03F3194390409F
:1007C0007047202A06DBCB17203A41FA02F043EAB1
:1007D000E07306E041FA02F3D040C2F120029140FA
:1007E0000843194670470029A8BF7047401C4900BC
:1007F00008BF20F00100704710B4B0FA80FC00FA86
:100800000CF050EA010404BF10BC704749B1CCF1B0
:10081000200421FA04F411FA0CF118BF012121433C
:100820000843A3EB0C01CB1D4FEA00614FEA1020F7
:1008300042BF002010BC704700EBC3501044002999
:10084000A4BF10BC7047401C490008BF20F0010045
:1008500010BC704710B5141E73F1000408DA401C78
:1008600041F1000192185B411A4301D120F00100CF
:1008700010BD2DE9F04D92469B4611B1B1FA81F2BF
:1008800002E0B0FA80F220329046FFF78BFF044678
:100890000F4640EA0A0041EA0B0153465A46084314
:1008A00013D0114653EA010019D0C8F14002504656
:1008B00000F0A8F805460E46504659464246FFF756
:1008C00071FF084305D0012004E020463946BDE809
:1008D000F08D0020054346EAE0762C4337430A9822
:1008E0006305E40AA0EB08000022FD0A44EA47542D
:1008F0000A3002D500200146E9E7010510196941D7
:10090000DDE9084500196941BDE8F04DA2E770B581
:1009100021F0004303430CD0C1F30A550024D5EB6A
:10092000040564EB0403D617AD1AB34102DB0020C3
:10093000014670BD201841EB025170BD2DE9F04D0C
:1009400000231A461B1A8A4103DB00200146BDE83A
:10095000F08DC1F30A52C1F3130141F480154FF039
:10096000000BD10702D100186D41521E002704462A
:1009700040F2FF11384601EB620A3E4680460246CD
:1009800000204FF4801100F03DF8C2197141BB18EE
:1009900046EB0100B4EB030C75EB000C04D3E41A36
:1009A00065EB000517460E46241908F101006D415C
:1009B00080463428E3DDF91946EB0600091BA841FF
:1009C00003D24FF0FF32134601E0002213461BEB27
:1009D000070046EB0A51BDE8F04DFFF73BBF0000B2
:1009E000064C074D06E0E06840F0010394E807007C
:1009F00098471034AC42F6D3FFF77CFB88520008CE
:100A0000A8520008202A04DB203A21FA02F0002133
:100A1000704721FA02F3D040C2F12002914008430E
:100A20001946704770B58C1810F8015B15F0070374
:100A300001D110F8013B2A1106D110F8012B03E077
:100A400010F8016B01F8016B5B1EF9D12B0705D47F
:100A50000023521E0DD401F8013BFAE710F8013BC8
:100A6000CB1A921C03E013F8015B01F8015B521EE4
:100A7000F9D5A142D8D3002070BD10B504F06CFAAE
:100A8000002010BD00BFFEE770472DE9F04102468F
:100A900000250026002000230024002791F803C031
:100AA0000CF00F0591F803C00CF0100CBCF1000F16
:100AB00003D091F802C04CEA050591F800C0BCF1E2
:100AC000000F31D0146800202BE04FF0010C0CFA1D
:100AD00000F3B1F800C00CEA03069E4220D1830067
:100AE0004FF00F0C0CFA03F7BC4305FA03FC4CEA79
:100AF000040491F803C0BCF1280F06D14FF0010C9B
:100B00000CFA00FCC2F814C00AE091F803C0BCF172
:100B1000480F05D14FF0010C0CFA00FCC2F810C0D0
:100B2000401C0828D1D31460B1F800C0BCF1FF0FFD
:100B300034DD546800202EE000F1080C4FF001086D
:100B400008FA0CF3B1F800C00CEA03069E4221D16A
:100B500083004FF00F0C0CFA03F7BC4305FA03FCBB
:100B60004CEA040491F803C0BCF1280F05D100F150
:100B7000080C08FA0CF8C2F8148091F803C0BCF114
:100B8000480F07D100F1080C4FF0010808FA0CF8E3
:100B9000C2F81080401C0828CED35460BDE8F08114
:100BA0000246002093680B400BB1012000E00020BA
:100BB0007047016170470AB1016100E0416170470F
:100BC00000BFFEE710B54FF400610448FFF7E8FFEF
:100BD00004460A2001F0E8FF204610BD000C014049
:100BE00010B5044622464FF480610348FFF7E3FF47
:100BF0000A2001F0D9FF10BD000C014010B50446D9
:100C000022464FF400610348FFF7D5FF0A2001F0A8
:100C1000CBFF10BD000C01407047000029B1064A0F
:100C2000D2690243044BDA6104E0034AD269824389
:100C3000014BDA61704700000010024029B1064AFA
:100C400092690243044B9A6104E0034A9269824329
:100C5000014B9A617047000000100240704710B5C8
:100C600000F002F810BD00000CB5002001900090CB
:100C70003348006840F480303149086000BF304894
:100C8000006800F4003000900198401C019000982A
:100C900018B90198B0F5A06FF1D12948006800F4A7
:100CA000003010B10120009001E000200090009879
:100CB000012843D12348006840F010002149086012
:100CC0000846006820F0030008600846006840F00D
:100CD000020008601A4840681949486008464068A0
:100CE00048600846406840F48060486008464068B4
:100CF00020F47C1048600846406840F4E8104860E2
:100D00000846006840F08070086000BF0C4800682A
:100D100000F000700028F9D00948406820F0030076
:100D2000074948600846406840F00200486000BF3C
:100D30000348406800F00C000828F9D10CBD000001
:100D4000001002400020024010B502F0F7FF03F04F
:100D500007FE03F003F810BD10B5002100200022AB
:100D6000214B5B6803F00C0121B1042906D008294E
:100D700028D107E01D4B1E4C236027E01B4B1C4C69
:100D8000236023E0184B5B6803F47010164B5B681C
:100D900003F48032022303EB904022B9154B434306
:100DA000134C23600DE0104B5B6803F4003323B158
:100DB000104B43430E4C236003E00C4B43430C4C5D
:100DC000236003E0094B0A4C236000BF00BF064BC1
:100DD0005B68C3F30313084CE15C054B1B68CB4015
:100DE000034C236010BD00000010024000127A0086
:100DF0000000002000093D000400002010B5134849
:100E0000006840F001001149086008464068104938
:100E100008400E494860084600680E4908400B49E2
:100E200008600846006820F4802008600846406892
:100E300020F4FE0048604FF41F008860FFF70FFFAA
:100E40004FF000600449086010BD0000001002402F
:100E50000000FFF8FFFFF6FE08ED00E0F0B50C46DD
:100E6000154600220021068C4FF6FE773E40068490
:100E7000028B018C4FF60C7632407E1C06EA03167C
:100E80002E433243104EB0420ED0104EB0420BD023
:100E9000B0F1804F08D00E4EB04205D00D4EB0429A
:100EA00002D00D4EB04206D14FF6FD76314044F0EF
:100EB0000106314305E04FF6F576314044F0010676
:100EC000314302830184F0BD002C01400034014015
:100ED0000004004000080040000C0040F0B50C4643
:100EE0001546002200210026078C4FF6EF7C07EA0A
:100EF0000C070784028B018C4FF6FF7707EA041674
:100F000040F6FF473A404FF6FF7707EA03373A4388
:100F10004FF6FF7707EA05273A43114FB8420ED044
:100F2000104FB8420BD0B0F1804F08D00E4FB842EE
:100F300005D00E4FB84202D00D4FB84206D14FF641
:100F4000DF77394046F01007394305E04FF65F7709
:100F5000394044F01007394302830184F0BD00009A
:100F6000002C014000340140000400400008004013
:100F7000000C004021B1028842F00102028004E02E
:100F800002884FF6FE731A40028070470146888E31
:100F900070470146088F704701894FF6F87211407B
:100FA0000181704770B5002400220023058C4FF6A4
:100FB000FE7635400584028C8388048B4FF68F754E
:100FC0002C40B51E2C400D882C43751E2A400D89DF
:100FD0002A434D882A43144DA8420BD0134DA842F2
:100FE00008D0134DA84205D0124DA84202D0124D90
:100FF000A84213D14FF6F7752A404D892A434FF680
:10100000FB752A408D882A434FF6FF652B404FF62B
:10101000FF552B408D892B43CD892B43838004833F
:10102000CD888586028470BD002C014000340140CB
:101030000040014000440140004801400A460021B0
:10104000018B4FF6F773194011430183704700007D
:1010500070B5002400220023058C4FF6EF76354052
:101060000584028C8388048B48F6FF752C404FF66C
:10107000FF452C400D884FF6FF7606EA05252C43E8
:101080004FF6DF752A400D8906EA05152A434D887B
:1010900006EA05152A43154DA84202D0144DA84270
:1010A0001DD14FF67F752A404D894FF6FF7606EA2F
:1010B00005152A434FF6BF752A408D8806EA0515A7
:1010C0002A434FF6FF352B404FF2FF752B408D8999
:1010D00006EA85052B43CD8906EA85052B438380E7
:1010E0000483CD880587028470BD0000002C014078
:1010F000003401400A460021018B4FF2FF73194072
:101100004FF6FF7303EA022319430183704700007F
:1011100070B5002400220023058C4FF6FF66354091
:101120000584028C8388848B4FF68F752C404FF694
:10113000FC752C400D882C434FF6FF552A400D8935
:101140004FF6FF7606EA05252A434D8806EA05256F
:101150002A43154DA84202D0144DA8421DD14FF28A
:10116000FF752A404D894FF6FF7606EA05252A438A
:101170004FF6FF352A408D8806EA05252A434EF6AC
:10118000FF752B404DF6FF752B408D8906EA05153E
:101190002B43CD8906EA05152B4383808483CD88B4
:1011A0008587028470BD0000002C0140003401409E
:1011B0000A460021818B4FF6F77319401143818352
:1011C0007047000070B5002200230024058C4EF605
:1011D000FF7635400584038C8488828B48F6FF7542
:1011E0002A404FF6FF452A400D884FF6FF7606EA63
:1011F00005252A434DF6FF752B400D8906EA053576
:101200002B434D8806EA05352B430B4DA84202D0EF
:101210000A4DA84208D14BF6FF752C408D894FF638
:10122000FF7606EA85152C4384808283CD88A0F85A
:101230004050038470BD0000002C01400034014088
:101240000A460021818B4FF2FF7319404FF6FF735E
:1012500003EA02231943818370472DE9F0410546D3
:101260000C4600260127608808B9022600E0002607
:10127000A088012801D1022700E001272088A0B919
:101280002389A28861882846FFF7E8FDE18828467F
:1012900000F03CF823893A4631462846FFF71EFE07
:1012A000E188284600F03BF813E02389A288618892
:1012B0002846FFF713FEE188284600F030F823891E
:1012C0003A4631462846FFF7C9FDE188284600F036
:1012D0001DF8BDE8F0810A46002101894FF68F73A1
:1012E000194011430181704702894FF6F8731A4083
:1012F000028102890A430281704781867047018713
:10130000704781877047A0F840107047028B4FF6F6
:10131000F3731A400283028B0A4302837047028BE5
:101320004FF2FF331A400283028B4FF6FF7303EA3A
:1013300001231A4302837047002202881D4B984202
:101340000ED01D4B98420BD0B0F1804F08D01B4BF4
:10135000984205D01A4B984202D01A4B984204D1B9
:101360004FF68F731A404B881A43174B984207D099
:10137000164B984204D04FF6FF431A40CB881A43CD
:1013800002808B8883850B8803850A4B98420BD09B
:10139000094B984208D00E4B984205D00D4B98420D
:1013A00002D00D4B984201D10B7A03860123838230
:1013B00070470000002C0140003401400004004050
:1013C00000080040000C00400010004000140040E5
:1013D00000400140004401400048014000BFFEE7DA
:1013E0000146481EB0F1807F01D301207047481E9E
:1013F0004FF0E0225061FF20044A107000204FF0AF
:10140000E0229061072010610020EFE723ED00E06B
:10141000490050EAC12018BF04204A0D18BF40F00F
:10142000010040F2FF72B2EB515F08BF40F00200D2
:10143000012808BF052070472DE9F0414F1E00EB41
:10144000C7010446D1E9000115461E4637F00602E1
:101450000DD02A463346FFF74EF87F1E04EBC70334
:10146000D3E90023FEF7A0FF37F00602F1D1022FE7
:1014700025D0042F13D0062F18BFBDE8F0812A46CF
:101480003346FFF738F8D4E90A23FEF78DFF2A46E2
:101490003346FFF730F8D4E90823FEF785FF2A46E4
:1014A0003346FFF728F8D4E90623FEF77DFF2A46E6
:1014B0003346FFF720F8D4E90423FEF775FF2A46E8
:1014C0003346FFF718F8D4E90223FEF76DFF2A46EA
:1014D0003346FFF710F8D4E90023BDE8F041FEF7EA
:1014E00063BF0122FFF713BAFEF75EBF0022134667
:1014F00010461146FFF771B8024A00201107FFF7A6
:1015000006BA000001FDFFFF014609B9002070473F
:10151000C8B220B1C8B20E4A105C401CF7E701F413
:101520007F4028B10A48C1F30722805C0930EEE70A
:1015300001F47F0028B10648C1F30742805C1130F6
:10154000E5E7034800EB116000781930DFE70000A1
:101550006050000802E008C8121F08C1002AFAD132
:1015600070477047002001E001C1121F002AFBD123
:1015700070470000014908607047000074010020B6
:101580002DE9FC5F04468B4615461E46DDE90C9AA4
:10159000DDE90E7804F114004060006000BF1C34E7
:1015A0006560A660C4F80C90C4F810A02321D4E9AB
:1015B000030202F04BFDD4E9033C63441A1F0F4BB6
:1015C000D4E9010102F094FB2060A7766776002041
:1015D000E061C4F82080C4F82480606120766065F2
:1015E000A0651C3C00902346054A2146019004F169
:1015F000440003F064FA0020BDE8FC9FA546000803
:10160000D14800082DE9F04704460E461746984693
:10161000DDF8209084F80990607A20F00100607273
:10162000E66127620020A062C4F82480002506E05D
:1016300004F1140101EBC50002F008FC6D1C012D42
:10164000F6DBBDE8F08770B50546002406E005F13D
:10165000140101EBC40002F03AFC641C012CF6DB1F
:1016600070BD70B50446FEF75DFD0546206F10B1F4
:101670002046216F88472846FEF758FD70BD0000C0
:101680000FB597B000201590FE4801680068FEF77E
:101690001BFEFD490860FD480168FA480068FEF736
:1016A00013FEFB490860FB480168F6480068FEF736
:1016B0000BFEF9490860F9480168F2480068FEF736
:1016C00003FEF7490860F14801680068FEF7FCFD79
:1016D000F4490860EF480168EC480068FEF7F4FD43
:1016E000F1490860ED480168E8480068FEF7ECFD44
:1016F000EE490860E74801680068FEF7E5FDEC493F
:101700000860E6480168E3480068FEF7DDFDE94946
:101710000860E24801680068FEF7D6FDE649086007
:101720001C991A98FEF7D0FD0C901D99FEF7CCFD80
:1017300000210D90FFF722F801D11BB000BD1D99CB
:101740000846FEF7C1FD0C901C990846FEF7BCFD4B
:101750000A901A990846FEF7B7FD09900A99FEF714
:101760005BFD0B900C99FEF757FD0D9002F090F881
:10177000149014991A98FEF7A7FD1A9014991C98C2
:10178000FEF7A2FD1C9014991D98FEF79DFD1D907B
:10179000C1480168C5480068FEF790FD4FF08041E0
:1017A0000D90FEF791FD1390C2480168B84800689B
:1017B000FEF732FD4FF080410D90FEF785FD12904F
:1017C000B8480168B0480068FEF778FD0C90B8484A
:1017D00001680C98FEF772FD0D90B74801680D98EE
:1017E000FEF71AFD119012991D98FEF76DFD0D90F0
:1017F00011991C98FEF768FD0C900D99FEF75EFD9F
:10180000109011991A98FEF75FFD0D9013991D988D
:10181000FEF75AFD0C900D99FEF750FD0F901399AD
:101820001C98FEF751FD0D9012991A98FEF74CFD89
:101830000C900D99FEF742FD0E90109803F0DAFB24
:101840009E490B90FEF740FD0C901099FEF73CFD71
:101850000D909B4801680D98FEF7DEFC98490860E2
:101860000F9803F0C7FB95490B90FEF72DFD0C90E8
:101870000F99FEF729FD0D90924801680D98FEF72B
:10188000CBFC904908600E9803F0B4FB8B490B9099
:10189000FEF71AFD0C900E99FEF716FD0D908A4882
:1018A00001680D98FEF7B8FC87490860109803F0AE
:1018B000A1FB86490A90FEF707FD0B901099FEF7F1
:1018C00003FD0C901799FEF7A7FC0D907C4801686A
:1018D0000D98FEF7A1FC17900F9803F08BFB7B4946
:1018E0000A90FEF7F1FC0B900F99FEF7EDFC0C90BF
:1018F0001899FEF791FC0D90724801680D98FEF75B
:101900008BFC18900E9803F075FB70490A90FEF757
:10191000DBFC0B900E99FEF7D7FC0C901999FEF7A3
:101920007BFC0D90684801680D98FEF775FC1990D6
:101930005A4819990068FEF7C7FC0B90554818994A
:101940000068FEF7C1FC09905048006880F0004034
:1019500007901799FEF7B8FC08900999FEF7AEFCBE
:101960000A900B99FEF7AAFC59490C90FEF7ACFCC3
:101970000D90444801680D98FEF74EFC41490860FF
:10198000464818990068FEF79FFC0B90414819994A
:101990000068FEF799FC09903A4801681798FEF72D
:1019A00093FC08900999FEF737FC0A900B99FEF713
:1019B00085FC47490C90FEF787FC0D903348016881
:1019C0000D98FEF729FC31490860344801681798E2
:1019D000FEF77AFC0B902D4819990068FEF774FC0D
:1019E0000990284818990068FEF76EFC089009993C
:1019F000FEF764FC0A900B99FEF70EFC34490C903C
:101A0000FEF762FC0D90234801680D98FEF704FC78
:101A100020490860084601681798FEF755FC0B90AE
:101A20001A4818990068FEF74FFC09901548199953
:101A30000068FEF749FC08900999FEF7EDFB0A9053
:101A40000B99FEF73BFC22490C90FEF73DFC0D90F4
:101A5000124801680D98FEF7DFFB10490860114835
:101A6000016809480068FEF7D7FB0B901048016831
:101A70000B98FEF7D1FB0C900F4801680C98FEF70D
:101A8000CBFB27E0740000209000002078000020AD
:101A9000940000207C00002098000020800000209E
:101AA0009C000020A0000020A4000020A80000202E
:101AB000AC000020B0000020B40000206F12033CF6
:101AC00084000020880000208C00002000002041BD
:101AD0000AD7A33B0D9001F0DBFE1490B248149995
:101AE0000068FEF7F1FBB0490860B048149900683F
:101AF000FEF7EAFBAD490860AD4814990068FEF7AF
:101B0000E3FBAB490860AB4814990068FEF7DCFBC7
:101B1000A8490860A84801684FF08040FEF7D4FB50
:101B20000690A64801684FF04040FEF7CDFB0590B7
:101B30000699FEF771FB0790FEF7F1FDCDE908016C
:101B400000F05AF99E4A9F4BCDE90A01FEF7D3FCFB
:101B5000CDE90C01FEF7F6FD9B4908609B48016842
:101B60004FF08040FEF7B0FB0190994801684FF0BC
:101B70004040FEF7A9FB00900199FEF79FFB4FF054
:101B80007E510290FEF748FB0390FEF7C8FDCDE9B9
:101B90000601904801684FF08040FEF795FB0290E7
:101BA0008D4801684FF08040FEF78EFB019002994E
:101BB000FEF732FB0390FEF7B2FDCDE90401DDE94B
:101BC000062300F061FB7E4A7E4BCDE90801FEF75B
:101BD00092FC0022814BCDE90A01FEF786FCCDE99B
:101BE0000C01FEF7AFFD784948607D4801684FF071
:101BF0008040FEF769FB0390744801684FF0404055
:101C0000FEF762FB02900399FEF758FB4FF07E51FE
:101C10000490FEF701FB0590FEF781FDCDE9080178
:101C2000704801684FF08040FEF74EFB04906E480C
:101C300001684FF08040FEF747FB03900499FEF7E0
:101C4000EBFA0590FEF76BFDCDE90601DDE908230F
:101C500000F01AFB5A4A5B4BCDE90A01FEF74BFC38
:101C6000CDE90C01FEF76EFD5749886058480168C0
:101C70005E480068FEF7D0FA0C90544801680C9852
:101C8000FEF71CFB0D90564801680D98FEF716FBF9
:101C9000574908605348016853480068FEF7BCFA8A
:101CA0004FF080410D90FEF70FFB514948604248CC
:101CB000016842480068FEF701FB4FF080410D903B
:101CC000FEF702FB4A4988604648016846480068BA
:101CD000FEF7F4FA4FF080410D90FEF7F5FA444913
:101CE000C8603B48016841480068FEF7E7FA0C907D
:101CF000364801680C98FEF78FFA0D903848016855
:101D00000D98FEF7DBFA3A4908613248016832481B
:101D10000068FEF781FA4FF080410D90FEF7D4FA8B
:101D2000334948612448016824480068FEF774FA82
:101D30004FF080410D90FEF7C7FA2D498861254884
:101D4000016825480068FEF7B9FA4FF080410D9010
:101D5000FEF7BAFA2649C8611D48016823480068A1
:101D6000FEF7ACFA0C90194801680C98FEF7A6FA39
:101D70000D901B4801680D98FEF74EFA1C49086249
:101D8000002015900AE01A49159851F82010194AB8
:101D900042F820101598401CC0B2159015980928DB
:101DA000F1DB00BFC9E400007400002078000020CF
:101DB0007C0000208000002098000020A800002067
:101DC00031B3CF6394A94C40BC130020AC00002079
:101DD000A000002094000020B00000200000F03F90
:101DE000B40000209C000020A400002090000020EF
:101DF00050000020C81300202DE9F04D8D4F21F038
:101E0000004A86B005460C46BA452ADBAAEB070015
:101E100028430AD08848824501DC1AD1CDB106B0EA
:101E20002846BDE8F04DFFF75CBB844A844B28464A
:101E3000FEF761FB07460E46824A834B2846214641
:101E4000FEF759FB06B03A463346BDE8F04DFEF7C3
:101E5000ABBA0120FFF78EFB06B0BDE8F04DFFF7EF
:101E600045BB7A48824542DABAF1795F0BDA2846F7
:101E7000FFF7CEFA042808BFFFF73EFB284606B05E
:101E80002146BDE8F08D2A460B461046FEF733FB8F
:101E9000834602466E480E460B4606217844FFF7FD
:101EA000CBFA5A463346FEF726FB804669488A46F7
:101EB0005A46334604217844FFF7BEFA5A46334661
:101EC000FEF719FB00223B46FEF76EFA02460B4670
:101ED00040465146FEF781FB2A462346FEF70BFBA0
:101EE00006B02A462346BDE8F04DFEF75DBA284607
:101EF00024F0004100223D463B46FEF7F9FA4FF040
:101F0000FF32FEF704FD0646024653480F460B46D5
:101F100006217844FFF790FA32463B46FEF7EBFA8B
:101F2000CDE900014D4832463B4604217844FFF795
:101F300083FA32463B46FEF7DEFA00222B46FEF7D6
:101F400033FA834602913046394603F02DF8804635
:101F500043480D46504517DCDDE900015A46029B17
:101F6000FEF73BFB42462B46FEF7C5FA42462B46A0
:101F7000FEF71AFA0122FEF7CAFC304A304BFEF790
:101F8000B4FA304A304B4CE04FF0000A52460B4650
:101F90004046FEF709FACDE9031052462B4610469B
:101FA0001946FEF7A8FA32463B46FEF7A1FADDE9EC
:101FB0000332FEF712FB06460F46DDE900015A46E2
:101FC000029BFEF70AFB8346009101223046394608
:101FD000FEF79DFC194A1A4BFEF78AFA06460F4691
:101FE000012240462946FEF792FC5A46009BFEF726
:101FF00082FA32463B46FEF778FA06460F46012241
:1020000050462946FEF783FC0E4DDFF858802A46DD
:102010004346FEF76DFA32463B46FEF769FA2A461A
:102020004346FEF765FA002CD8BF81F0004106B0A8
:10203000BDE8F08D0000F03F0000F07F075C143336
:1020400026A6913C182D4454FB21F93F0000E03FA7
:10205000E8320000FE3200007232000088320000D8
:102060003333EF3FFB21E93F2DE9F84F04460D469E
:1020700021F0004000917349814211DC724988428D
:1020800001DC06D12CB120462946BDE8F84FFFF708
:1020900028BA6E48002DCCBF6D496E49BDE8F88F57
:1020A0006D49814211DD6D498142D8BF4FF0FF3645
:1020B0006DDD20462946FFF7ABF9042808BFFFF77E
:1020C0001BFA20462946BDE8F88F6549654F25F083
:1020D0000045814233DD6449814219DD00263246E4
:1020E0004FF0804320462946FEF75EF980468A4637
:1020F000012220462946FEF70AFC00223B46FEF755
:10210000F4F942465346FEF768FA04460D463EE0AF
:1021100001260022BA463B4620462946FEF744F9EE
:1021200080460F460022534620462946FEF7DDF939
:1021300042463B46FEF751FA04460D4627E04B491E
:1021400081421BDDDFF828A10226002253462046EB
:102150002946FEF7D0F900223B46FEF725F98046D6
:102160000F460022534620462946FEF7BEF9424656
:102170003B46FEF732FA04460D4608E003262246A7
:102180002B4600203B49FEF728FA04460D4622461E
:102190002B4610461946FEF7AEF98B46824602469C
:1021A0000B46FEF7A8F907460246334888460B4619
:1021B00006217844FFF740F952465B46FEF79BF94B
:1021C00082462E488B463A46434605217844FFF71F
:1021D00033F93A464346FEF78EF902460B46002E87
:1021E000504659460CDAFEF7DFF822462B46FEF73A
:1021F00082F901B022462B46BDE8F04FFEF778B9D0
:10220000FEF7D2F822462B46FEF775F91C4A7A44AF
:1022100002EBC603D3E90023FEF767F922462B46FB
:10222000FEF763F9174A7A4402EBC603D3E90023A9
:10223000FEF75EF9009A002AB8BF81F00041BDE8C0
:10224000F88F0000000010440000F07F182D445467
:10225000FB21F93FFB21F9BF0000DC3F0000203EDD
:102260000000F33F0000F03F0000E63F0080034025
:102270000000F83F0000F0BF8A3000004830000046
:10228000E62F0000AE2F00002DE9F04D9446CCF172
:10229000000423F000464CEA0404524F46EAD4748A
:1022A0009A46884621F00042BC4206D8454240EAA0
:1022B000050442EAD474BC4204D9BDE8F04D62463C
:1022C000FFF712B9AAF14055A5F17F6555EA0C0454
:1022D0000BD0022404EAAA74434DDFF810E144EA6B
:1022E000D87452EA000B04D00CE0BDE8F04DFFF7C3
:1022F000BBBE002C14BF012CBDE8F08D022C30D0E9
:10230000032C32D056EA0C0B0AD0BE4220D1BA427E
:1023100009D126F0804622F080423346114617E06C
:1023200000291ADB25E0DFF8C8B0FB44002C04BF0D
:10233000DBE90001BDE8F08D012C02BFDBE9000103
:1023400081F00041BDE8F08D022C0AD0032C0CD0A6
:10235000BA4212D1B8F1000F0BDA23482549BDE883
:10236000F08D28462449BDE8F08D28467146BDE829
:10237000F08D1D482149BDE8F08D921B12153C2AB5
:10238000C4BF19481D490EDCBAF1000FBEBF12F1DF
:102390003C0F0020014606DB6246FEF71EF921F0E5
:1023A0000041FFF761FE002C08BFBDE8F08D012C55
:1023B00004BF81F00041BDE8F08D114A114B022CA1
:1023C00007D0FEF792F82A46BDE8F04D0A4BFEF71B
:1023D0008CB8FEF78AF82A46BDE8F04D064BFEF7AA
:1023E00087B800000000F07F182D4454FB2109C07D
:1023F000422F0000FB21F9BFFB210940FB21F93FDF
:10240000075C143326A6A13C07B586B0FE480068D9
:10241000014605900698FDF751FFFC490860FA480F
:10242000806F014605900798FDF748FFF84908605E
:10243000F548D0F8F000014605900898FDF73EFFFA
:10244000F4490860F04880690590F04801680598F3
:10245000FDF7E2FEEC4988610846D0F8900005904F
:10246000EB4801680598FDF7D7FEE749C1F89000F1
:102470000846D0F808010590E64801680598FDF780
:10248000CBFEE149C1F808010846C069059008463D
:10249000806904900599FEF77BF904D2DA48C06997
:1024A000D949886112E0D848C06980F000400590A1
:1024B000D5488069014604900598FEF769F905D270
:1024C000D148C06980F00040CF498861CE4880681B
:1024D00001460290CD480068FDF7F0FE0390CA481F
:1024E000806A014602900398FDF7EEFE0590C6480B
:1024F00080690190C448406A00900199FDF7E4FEAC
:102500000390C148006A0190C04801680198FDF736
:10251000DBFE02900399FDF77FFE04900599FDF71D
:102520007BFEB9498863B948006888600846D0F8DE
:10253000940005900846D0F8900004900599FEF7A5
:1025400027F905D2B048D0F89410C0F8901016E0E2
:10255000AD48D0F8940080F000400590AA48D0F82B
:102560009000014604900598FEF712F907D2A6489C
:10257000D0F8940080F00041A348C0F89010A24821
:10258000D0F8800001460290A1480068FDF796FE51
:1025900003909D48D0F8A000014602900398FDF7F3
:1025A00093FE05909848D0F8900001909648D0F896
:1025B0009C0000900199FDF787FE03909248D0F8A7
:1025C00098000190924801680198FDF77DFE029005
:1025D0000399FDF721FE04900599FDF71DFE8A4938
:1025E000C1F8B0008A4801688748C0F88010D0F868
:1025F0000C0105908448D0F8080104900599FEF775
:10260000C7F805D28048D0F80C11C0F8081116E0C0
:102610007D48D0F80C0180F0004005907A48D0F851
:102620000801014604900598FEF7B2F807D27648F3
:10263000D0F80C0180F000417348C0F808117248CE
:10264000D0F8F8000146029072480068FDF736FEA7
:1026500003906D48D0F81801014602900398FDF7E9
:1026600033FE05906848D0F8080101906648D0F81C
:10267000140100900199FDF727FE03906248D0F8FD
:1026800010010190634801680198FDF71DFE02905A
:102690000399FDF7C1FD04900599FDF7BDFD5A4969
:1026A000C1F828015B4801685748C0F8F810D0F815
:1026B000B40004905848806C03900499FDF7FEFD27
:1026C00005905148D0F8CC00014604900598FDF7DC
:1026D000A3FD01464C48C0F8CC10D0F8D0000590BE
:1026E0004948D0F8CC0004900599FEF751F805D27E
:1026F0004548D0F8D010C0F8CC1016E04248D0F8C9
:10270000D00080F0004005903F48D0F8CC00014652
:1027100004900598FEF73CF807D23B48D0F8D0006B
:1027200080F000413848C0F8CC103748C06B0490A6
:102730003948C06C03900499FDF7C0FD05903248FC
:10274000406D014604900598FDF766FD2E494865E9
:102750000846806D05900846406D04900599FEF787
:1027600017F803D22848816D416512E02648806D34
:1027700080F0004005902448406D01460490059883
:10278000FEF706F805D22048806D80F000411E4813
:1027900041651D48D0F82C0104901F48006D03903E
:1027A0000499FDF78BFD05901748D0F844010146C8
:1027B00004900598FDF730FD01461348C0F8441118
:1027C000D0F8480105901048D0F8440104900599CC
:1027D000FDF7DEFF05D20C48D0F84811C0F84411CF
:1027E00021E00948D0F8480180F0004005900648F3
:1027F000D0F84401014604900598FDF7C9FF12D2B4
:102800000148D0F8480109E00812002040000020EB
:1028100044000020480000207801002080F00041A2
:10282000CF48C0F84411CF48806C0490CC48D0F811
:10283000D40003900499FDF747FD0590C848D0F8EF
:10284000B000014604900598FDF7E6FC0146C44837
:10285000C0F8E010D0F8CC000590C148D0F8D800FE
:1028600004900599FDF730FD0146BD48C0F8E4101D
:10287000BC48B0F93C000390FDF71EFF0490B94836
:10288000806C014603900498FDF71BFD0590B44849
:10289000D0F8DC00014604900598FDF715FD0146CF
:1028A000AF48C0F8E810AF48C06C0490AC48C06DA9
:1028B00003900499FDF708FD0590A948806B014637
:1028C00004900598FDF7A8FCA54988660846406D68
:1028D00005900846006E04900599FDF7F5FCA049A7
:1028E000C866A048B0F93E000390FDF7E5FE0490ED
:1028F0009C48C06C014603900498FDF7E2FC0590EB
:102900009748406E014604900598FDF7DDFC944918
:1029100008679448006D04900846D0F84C01039075
:102920000499FDF7D1FC05908D48D0F828010146A7
:1029300004900598FDF770FC01468948C0F85811CD
:10294000D0F8440105908648D0F8500104900599CC
:10295000FDF7BAFC01468248C0F85C118148B0F925
:1029600040000390FDF7A8FE04907E48006D0146EC
:1029700003900498FDF7A5FC05907948D0F8540120
:10298000014604900598FDF79FFC01467448C0F885
:1029900060117448806C0590FDF7A8FE01B2714883
:1029A0008187C06C0590FDF7A1FE01B26D48C1871B
:1029B000006D0590FDF79AFE01B26A48A0F840103C
:1029C0006748D0F8E40004906548D0F8E000039030
:1029D0000499FDF721FC05906148D0F8E800014614
:1029E00004900598FDF718FC01465D48C0F8EC100E
:1029F000C06E04905A48806E03900499FDF70CFC59
:102A000005905748006F014604900598FDF704FCB7
:102A1000534948670846D0F85C0104900846D0F84E
:102A2000580103900499FDF7F7FB05904C48D0F846
:102A30006001014604900598FDF7EEFB0146484809
:102A4000C0F8641148480068FDF736FE029044481B
:102A5000406F014601900298FDF7DEFB039040486D
:102A6000D0F8EC00014602900398FDF7D5FB0490E6
:102A70003B48D0F86401014603900498FDF71EFC22
:102A80000590FDF733FE3949086037480068FDF7C7
:102A900013FE02903248406F014601900298FDF704
:102AA000BBFB03902E48D0F8EC000146029003983F
:102AB000FDF704FC04902A48D0F864010146039015
:102AC0000498FDF7A9FB0590FDF710FE2749486023
:102AD00025480068FDF7F0FD02902148406F01464F
:102AE00001900298FDF7EAFB03901D48D0F8EC0036
:102AF000014602900398FDF7E1FB04901848D0F8D6
:102B00006401014603900498FDF7D8FB0590FDF79A
:102B1000EDFD1649886014480068FDF7CDFD029070
:102B20000F48406F014601900298FDF7C7FB0390E4
:102B30000B48D0F8EC00014602900398FDF76CFBBF
:102B400004900748D0F86401014603900498FDF70B
:102B500063FB0590FDF7CAFD0449C86009B000BDDC
:102B600008120020780100202400002070130020AB
:102B700000200A49886100210848C0F89010C0F878
:102B800008114165C0F8CC10C0F844110020044978
:102B9000886108600349086070470000081200203F
:102BA000801300203C000020002106E00A2100BF25
:102BB0000A1EA1F1010399B2FAD1021EA0F101008F
:102BC000F4D1704710B500F0ADF80F4908600F4917
:102BD0000F4800F021F80E48006870B10D4CA48930
:102BE00023B20C4C248922B20A4CA48821B2094C8D
:102BF000248820B200F082F905E000231A46194625
:102C0000184600F07BF910BD2800002024000020A9
:102C1000200000207013002070B504460D4600F01F
:102C200081F8052802D800202060288000F07AF87A
:102C3000052809D90120206000F074F8401FC82140
:102C4000484300F57A70288070BD000000B587B059
:102C500001210220FDF7E2FF01210420FDF7EEFF34
:102C600048208DF81B004020ADF8180003208DF897
:102C70001A0006A91C48FDF708FF1C48FEF78CF94E
:102C80000020ADF81200ADF80E004FF6FF70ADF861
:102C900010004720ADF80C0000208DF8140003A9A7
:102CA0001248FEF749FB0020ADF800000F20ADF8F8
:102CB00008000020ADF80200ADF806000120ADF8D4
:102CC000040069460948FEF7C8FA50210748FEF794
:102CD00002FB04210548FEF707FB01210348FEF72C
:102CE00049F907B000BD00000008014000040040A1
:102CF0004FF47A731A461946184600F0FFF840F66A
:102D0000B83001F0C8FC09E000F0FEF9044B9A6805
:102D100059681868FFF778FBFFF754FFF4E70000E5
:102D2000BC13002010B50748FEF733F9401C64219E
:102D300000FB01F40348FEF729F9401C94FBF0F076
:102D400010BD0000000400402DE9FF5F07460C465F
:102D50001546A846A1461B4800680390194800681C
:102D60000390494618480068FDF756FA029041461C
:102D70000298FDF751FA834659460298FDF7D6FAB4
:102D8000019038460399FDF799FA00900199FDF7F3
:102D90009BFA83460399FDF73FFA06464FF07E50B3
:102DA0000199FDF78BFA83460299FDF78DFA824669
:102DB0000548C0F800A003480660304604B0BDE8EE
:102DC000F09F0000B8000020BC0000202DE9FF5F4C
:102DD00007460C461546A846A1461B4800680390C6
:102DE000194800680390494618480068FDF714FA2E
:102DF000029041460298FDF70FFA83465946029821
:102E0000FDF794FA019038460399FDF757FA0090C0
:102E10000199FDF759FA83460399FDF7FDF9064636
:102E20004FF07E500199FDF749FA83460299FDF76C
:102E30004BFA82460548C0F800A0034806603046B9
:102E400004B0BDE8F09F0000C0000020C4000020D6
:102E50002DE9FF5F07460C461546A846A1461B48CC
:102E600000680390194800680390494618480068B4
:102E7000FDF7D2F9029041460298FDF7CDF983465D
:102E800059460298FDF752FA019038460399FDF72A
:102E900015FA00900199FDF717FA83460399FDF79B
:102EA000BBF906464FF07E500199FDF707FA8346BD
:102EB0000299FDF709FA82460548C0F800A00348C8
:102EC0000660304604B0BDE8F09F0000C800002056
:102ED000CC00002008B501210820FDF7AFFE10202E
:102EE0008DF803000320ADF800008DF8020069465C
:102EF0000148FDF7CAFD08BD000C01402DE9F04175
:102F000005460E4617461C46B5F5FA6F01DD4FF42F
:102F1000FA65B6F5FA6F01DD4FF4FA66B7F5FA6FA8
:102F200001DD4FF4FA67B4F5FA6F01DD4FF4FA648E
:102F3000B5F57A7F01DA4FF47A75B6F57A7F01DA62
:102F40004FF47A76B7F57A7F01DA4FF47A77B4F5F1
:102F50007A7F01DA4FF47A74A9B20848FEF7CDF906
:102F6000B1B20648FEF7CBF9A1B20448FEF7C9F9A1
:102F7000A1B20248FEF7C7F9BDE8F08100080040A1
:102F800010B500F065FA002010BD10B5044600F041
:102F9000CDFCFFF7F5FF10BD30B589B005460C46F6
:102FA00001210420FDF73AFE01210920FDF746FE2C
:102FB0004FF47070ADF8200018208DF82300032026
:102FC0008DF8220008A92548FDF75FFDADF81850DF
:102FD000ADF814400020ADF81A00ADF8160005A9B0
:102FE0001F48FEF7A9F90020ADF80A00ADF810005F
:102FF000ADF812006020ADF804000120ADF8060025
:103000000420ADF808000020ADF80E00ADF80C006B
:1030100001A91348FDF7C6FF01A91148FEF718F8EA
:1030200001A90F48FEF774F801A90D48FEF7CAF888
:1030300008210B48FEF702F808210948FEF75AF864
:1030400008210748FEF7B4F808210548FEF7F8F80C
:1030500001210348FDF78EFF09B030BD000C01408F
:103060000008004010B500F017FA01216B2000F0B5
:1030700034F800216C2000F030F80921192000F00C
:103080002CF806211A2000F028F818211B2000F047
:1030900024F818211C2000F020F810BD70B504465B
:1030A00000F060FAD02000F048FA00F011FA204653
:1030B00000F043FA00F00CFA00F054FAD12000F0CE
:1030C0003CFA00F005FA00F012FA0546012000F083
:1030D00028FA00F055FA284670BD70B505460C4632
:1030E00000F040FAD02000F028FA00F0F1F928466C
:1030F00000F023FA00F0ECF9204600F01EFA00F090
:10310000E7F900F03DFA70BD2DE9FC4700F0B8F892
:103110005749B1F90000FDF7CFFA05464FF082425A
:103120009101FFF711FE0446FDF7E0FA00B25049A5
:10313000C880B1F90200FDF7BFFA05464FF08242A0
:103140009101FFF743FE0446FDF7D0FA01B248486B
:1031500001810146B1F90400FDF7AEFA05464FF0D2
:1031600082429101FFF774FE0446FDF7BFFA01B2F7
:103170003F4841810146B1F90600FDF79DFA8146BD
:103180004FF08D41FDF7D2F80446FDF7C8FA074627
:103190000022384BFDF7AFF90546FDF7D3FA344965
:1031A0008861B1F90800FDF787FA81464FF08D413B
:1031B000FDF7BCF80446FDF7B2FA074600222D4B96
:1031C000FDF799F90546FDF7BDFA2949C861B1F93E
:1031D0000A00FDF771FA81464FF08D41FDF7A6F820
:1031E0000446FDF79CFA07460022224BFDF783F9BF
:1031F0000546FDF7A7FA1E490862B1F90A00FDF776
:103200005BFA05461A49B1F90800FDF755FA04467C
:103210001749B1F90600FDF74FFA0646144BCDE900
:103220000045DA6D996D586D3346FEF729FA104A5C
:10323000116A114A106AFDF747F805460C4AD16930
:103240000D4A5069FDF740F80646094A91690A4A55
:103250009068FDF739F807463146FCF7DDFF044674
:103260002946FCF7D9FF05490860BDE8FC87000046
:103270007801002000002440C81300201400002022
:10328000F0B589B003A804A905AB06AACDE90010E2
:1032900007A908A800F086F83E48408ABDF820102B
:1032A000081A00B23B4908800846808ABDF81C1005
:1032B000081A00B2374948800846C08ABDF818107D
:1032C000081A00B233498880B1F93020B1F94210B0
:1032D000501AFDF7FAF906464FF066322E4BFDF70D
:1032E0007CF90446FDF72EFA2A498864B1F93220A8
:1032F000B1F94410501AFDF7E8F906464FF066326E
:10330000254BFDF76AF90446FDF71CFA01462148F2
:10331000C1640146B1F93420B1F94610501AFDF7E5
:10332000D4F906464FF066321B4BFDF756F90446BA
:10333000FDF708FA0146174801650146886CFDF75C
:10334000EEF90646154A164BFDF7D5F80446FDF78B
:10335000F9F910494865C86CFDF7E1F906460F4ACE
:103360000F4BFDF7C8F80446FDF7ECF90146094894
:1033700081650146086DFDF7D2F90646074A084BFC
:10338000FDF7B9F80446FDF7DDF901460148C165CE
:1033900009B0F0BD78010020666640405F40D4224D
:1033A00047DF913F2DE9F05F06460F46904699466C
:1033B000DDE90AAB3B20FFF771FE04463C20FFF736
:1033C0006DFE054645EA042000B230803D20FFF73F
:1033D00065FE04463E20FFF761FE054645EA0420EF
:1033E00000B238803F20FFF759FE04464020FFF727
:1033F00055FE054645EA042000B2A8F80000432027
:10340000FFF74CFE04464420FFF748FE054645EA18
:10341000042000B2A9F800004520FFF73FFE044653
:103420004620FFF73BFE054645EA042000B2AAF815
:1034300000004720FFF732FE04464820FFF72EFE2B
:10344000054645EA042000B2ABF80000BDE8F09F55
:103450001CB5142003214FF400730022CDE90010A5
:1034600009490AA001F0EFF80A4908600846006817
:1034700020B10846006801F0F3F902E04FF0FF3098
:103480001CBD00BFFCE70000F12C00086673693624
:10349000000000001C00002008B501210820FDF7F5
:1034A000CDFB14208DF803004FF44060ADF8000010
:1034B00003208DF8020069460448FDF7E6FA4FF450
:1034C00040610248FDF775FB08BD0000000C01409B
:1034D00010B50120FDF792FB0120FDF781FBFDF700
:1034E00071FB04460020FDF77BFB204610BD70B544
:1034F00000250120FDF782FB00240EE00120FDF7EE
:103500006FFBFDF75FFB012802D1802020410543BE
:103510000020FDF765FB601CC4B2082CEEDB2846DA
:1035200070BD10B504462046FDF768FB0120FDF78D
:1035300057FB0020FDF754FB10BD70B50546002475
:103540000DE08021214101EA0500FDF757FB012034
:10355000FDF746FB0020FDF743FB601CC4B2082CBE
:10356000EFDB70BD10B50120FDF748FB0120FDF732
:1035700037FB0020FDF742FB0020FDF731FB10BDBB
:1035800010B50020FDF73AFB0120FDF729FB0120D3
:10359000FDF734FB10BD000000B54FF07E512F4801
:1035A000C165002101664FF0824141662C482B49DC
:1035B0000862002048622B4888624FF07E512748FD
:1035C000C0F8D4100021C0F8D8104FF08241C0F8E4
:1035D000DC102349C0F898100021C0F89C10214944
:1035E000C0F8A0102049C0F84C110021C0F85011BB
:1035F000C0F85411C0F81011C0F81411C0F8181117
:1036000000201A490862486288621449C863002190
:103610001248C0F8B410C0F82C1100200F490860FF
:103620008867C1F8F00012490C488165C0F8D010D5
:10363000C0F848110F480949C86101460748C0F859
:103640009410C0F80C110C480849C8610B49034894
:10365000C0F80C11FFF78CFA00BD00000812002022
:10366000CDCCCC3D9A99993E0000C04080130020FB
:10367000000020410000A0400000C8420000F041CE
:1036800030B51A4C436824681919884215D04B8804
:103690009BB9174B1B6899420FD0164B1B688B4286
:1036A00001D1144B18604B684360104B1B68C31A60
:1036B0000E4D4C682D682C44A3600C4C8368246824
:1036C0001A19824211D053887BB90A4B1B68834276
:1036D00001D1084B1A6043685360044B1B68D31A2E
:1036E000024D44682D682C44A36030BDD8000020F2
:1036F000DC000020E00000202DE9F04F86B00D46F0
:103700009C46DDE9106401960F9B04F04008B8F177
:10371000000F02D0DFF8708101E0DFF87081CDF892
:10372000008004F01008B8F1000F01D024F001046B
:1037300004F00108B8F1000F02D04FF0300801E0AA
:103740004FF02008C246002704F00208B8F1000F2D
:1037500011D0002A02DA2D2752420CE004F00408AE
:10376000B8F1000F01D02B2705E004F00808B8F1EC
:10377000000F00D02027002142B94FF0300B8846BF
:10378000491C0DF1080909F808B01DE01AE0E146EE
:10379000B9F10A0F08D14FF00A0BB2FBFBFE0BFB8D
:1037A0001E28B2FBFBF202E002F00F08120900BF74
:1037B000DDF8009019F808B08846491C0DF1080999
:1037C00009F808B0002AE2D1B14200DD0E469B1B89
:1037D00004F01108B8F1000F10D117B1002B00DD73
:1037E0005B1E06E0A84203D24FF0200880F800805C
:1037F000401CB3F10008A3F10103F3DC27B1A84298
:1038000000D207705B1E401C04F01008B8F1000FD6
:103810000AD104E0A84201D280F800A0401CB3F114
:103820000008A3F10103F5DC06E0A84203D24FF043
:10383000300880F80080401CB046761E8845F4DCD5
:1038400008E0A84205D20DF1080818F8018080F8B8
:103850000080401CB1F10008A1F1010104DDDDF898
:103860000480B8F1000FECD106E0A84203D24FF07B
:10387000200880F80080401CB3F10008A3F1010388
:10388000F3DC06B0BDE8F08F71510008605100080C
:103890002DE9F05F04464FF07F594FF07C512046F0
:1038A000FCF712FD824625462E460C48A0EB660624
:1038B000354629465046FCF707FD83462946FCF766
:1038C00003FD80464946FCF7FCFC07462946FCF709
:1038D000FBFC05462846BDE8F09F0000865A375F8E
:1038E0001CB514200A214FF400730022CDE900100A
:1038F000044905A000F0A7FE0446204600F0B0FFF2
:103900001CBD00008B2F00086D61696E0000000077
:1039100010B5044C02E020688047241D0248844210
:10392000F9D310BD7C5200088052000810B5044C39
:1039300002E020688047241D02488442F9D310BD6C
:10394000805200088452000810B5FCF7EBFB0446D7
:1039500004480088401C00B2024908802046FCF759
:10396000E5FB10BD4401002010B5FCF7DBFB04466D
:103970000C480088401E00B20A4908800846B0F989
:10398000000000280ADC002008802046FCF7CEFB5F
:103990000548006828B100F011FC02E02046FCF761
:1039A000C5FB10BD440100204801002070B505464C
:1039B00005B970BD1D480068854203D31C480068E6
:1039C000854200D3F5E7A5F10C044FF0FF3119480B
:1039D00000F0C4FC608818B12088B0F5F55F08D00D
:1039E00015A000F015FA23886288214619A000F07E
:1039F0000FFA002060804FF4F550208021480068C5
:103A0000844201D21F480460084960680968611A4D
:103A1000401A1D490968081A1B4908602046FFF72B
:103A20002FFE044800F071FC00BFC2E7D800002060
:103A3000DC000020E4150020746F206672656520AC
:103A40006120626164206461746120626C6F636BE9
:103A50003A0A00006D656D3A203078253038782CB0
:103A6000207573656420666C61673A2025642C209C
:103A70006D6167696320636F64653A203078253033
:103A800034780A00E0000020E80000200048704779
:103A900008020020004870470812002070B5FDF7AA
:103AA0005BF9114800684FF47A71B0FBF1F42046DD
:103AB000FDF796FC472144F61F60FFF76DFAFFF70C
:103AC000C5F8FFF707FAFFF7CDFAFFF765FDFFF737
:103AD0001FFFFFF7DFFF0446FFF7D8FF054621462B
:103AE00000F0E8FC70BD00000000002070470000FE
:103AF00070B505462C1D2E48006838B128462C4963
:103B000009688847064606B970BD00BF29A0E16B69
:103B100000F07EF92BA0216A00F07AF92DA0616AED
:103B200000F076F92FA0A16A00F072F931A0E16AE5
:103B300000F06EF933A0216800F06AF935A06168E1
:103B400000F066F937A0A16800F062F939A0E168D9
:103B500000F05EF93BA0216900F05AF93DA06169CF
:103B600000F056F93FA0A16900F052F941A0E169C7
:103B700000F04EF943A0216B00F04AF945A0616BBB
:103B800000F046F947A0A16B00F042F9287800F058
:103B9000040038B100F03CFE0646314645A000F076
:103BA00037F902E04BA000F033F900BFFEE7000058
:103BB000700100207073723A203078253038780A0E
:103BC000000000007230303A203078253038780A12
:103BD000000000007230313A203078253038780A01
:103BE000000000007230323A203078253038780AF0
:103BF000000000007230333A203078253038780ADF
:103C0000000000007230343A203078253038780ACD
:103C1000000000007230353A203078253038780ABC
:103C2000000000007230363A203078253038780AAB
:103C3000000000007230373A203078253038780A9A
:103C4000000000007230383A203078253038780A89
:103C5000000000007230393A203078253038780A78
:103C6000000000007231303A203078253038780A70
:103C7000000000007231313A203078253038780A5F
:103C8000000000007231323A203078253038780A4E
:103C900000000000206C723A203078253038780A15
:103CA000000000002070633A203078253038780A10
:103CB0000000000068617264206661756C74206F9A
:103CC0006E207468726561643A2025730D0A0D0ACE
:103CD0000000000068617264206661756C74206F7A
:103CE0006E2068616E646C65720D0A0D0A0000003A
:103CF000F0B504460D461646301D20F0070040384A
:103D00000146002203E00C4F41F82270521C102A99
:103D1000F9D30D624FF0000CC1F824C0C1F828C0DF
:103D2000C1F82CC0C1F830C04B638C634FF0807C6D
:103D3000C1F83CC0F0BD0000EFBEADDE10B5FCF731
:103D4000F1F9044604480078401C034908702046F5
:103D5000FCF7ECF910BD0000D400002010B5FCF712
:103D6000E1F9044604480078401E034908702046E3
:103D7000FCF7DCF910BD0000D400002070B504464B
:103D80002068A0F11405284600F024FD002070BD35
:103D90002DE9F04105460C469046204600F076FDA0
:103DA000B8F1000F03D0B8F1010F23D105E004F101
:103DB0001401284600F062F81DE02E680FE0A6F11D
:103DC000140794F8350097F83510884206DA04F1A4
:103DD000140107F1140000F051F802E03668AE4219
:103DE000EDD100BFAE4204D104F11401284600F029
:103DF00045F800E000BF00BF0020BDE8F08110B52D
:103E0000044604F1140000F01BF8002010BD00006F
:103E10000FB438B505A800907F210848009B049A8C
:103E200000F0F2FE04467F2C00D97F240348FFF700
:103E30005DFE0020009038BC5DF814FB6415002086
:103E40004060006070474060006070474060006004
:103E500070470268516002680A60016048607047FC
:103E60000268516002680A60016048607047026839
:103E7000516002680A6001604860704742681160E2
:103E800042684A604160086070470146086888429D
:103E900001D1012070470020FCE7014608688842F4
:103EA00001D1012070470020FCE7D0E900215160DA
:103EB000D0E900121160406000607047D0E9002135
:103EC0005160D0E900121160406000607047D0E995
:103ED00000215160D0E9001211604060006070471D
:103EE0002DE9F041054615B90020BDE8F081E81C38
:103EF00020F003054E480068854201D90020F4E710
:103F00000C2D00D20C254FF0FF314A4800F026FA64
:103F10004948006849490968461A7EE047480068F0
:103F200084196088002874D106F10C006168081AB1
:103F3000A8426ED306F10C006168091A05F1180059
:103F4000814230D306F10C0000EB05083B480068C5
:103F500000EB08074FF4F550388000207880606847
:103F60007860BE60C4F804800120608030487968C1
:103F700000680C30814205D03049786809680844EF
:103F8000C0F808802E48016805F10C0008442C494F
:103F900008602C4800680968884219D228480068DF
:103FA0002849086014E0012060802449606809689D
:103FB000611A401A224909680844214908602148C9
:103FC00000680968884203D21D4800681D490860DE
:103FD0004FF4F550208018480068844212D107E061
:103FE0001548006840681549096808441249086086
:103FF00011480068408828B10F48006812490968D4
:104000008842EDD10B4800F080F904F10C006CE718
:10401000FFE70A4800683044466805480068401BCE
:10402000B0423FF67BAF034800F06FF900205CE739
:10403000E4000020E4150020E0000020D80000206B
:10404000E8000020EC000020DC000020F0B50C4669
:104050000546E6B2042A15D300F0030797B90146D6
:1040600046EA062343EA034304E008C108C108C145
:1040700008C1103A102AF8D201E008C1121F042A20
:10408000FBD20D4601E005F8016B171EA2F10102FB
:10409000F9D1F0BD2DE9F04106460F46304600F05B
:1040A00045F80546E868FFF71BFF044614B90020F1
:1040B000BDE8F08100212046EA68FFF7C7FF2672BD
:1040C0000020607208223946204600F0D9F9FCF73A
:1040D00029F8804604F10C01281DFFF7BAFE40467E
:1040E000FCF724F82046E3E770B504460020207270
:1040F000FCF718F8054604F10C00FFF7D6FE284639
:10410000FCF714F82046FFF751FC70BD70B504466B
:1041100000202072FCF706F8054604F10C00FFF7BA
:10412000C4FE2846FCF702F870BD000002460021DC
:104130000AE0074800EB01100078904203D10448E0
:1041400000EB01107047491C0529F2DB0020F9E75C
:10415000F00000202DE9F04704460D469046002669
:104160002846FFF7E3FF0746FFF7EEFB7E6802E015
:10417000A6F10C003668381D8642F9D1FFF7F4FB32
:1041800045F08000207208224146204600F078F970
:10419000FBF7C8FF814604F10C01381DFFF759FEFB
:1041A0004846FBF7C3FFBDE8F0870146087A00F0F8
:1041B000800008B1012070470020FCE72DE9F041A4
:1041C000FBF7B0FF07461848008838BB174800685F
:1041D000FDF79AF9461E164850F83600A0F114046F
:1041E00014480068844218D013490E7011480568BD
:1041F00004601248007850B904F11C0105F11C005C
:10420000FBF797FF3846FBF791FFBDE8F08104F11B
:104210001C0105F11C00FBF78CFF00BF3846FBF7C3
:1042200085FF00BFF1E700004401002040010020AD
:1042300004160020480100204C010020D40000207A
:1042400070B50446FBF76EFF054614F8340F20F0F6
:104250000F0040F0010020706278343C0A4B03EB01
:10426000C20004F114014268116042684A60416072
:10427000086000BF0549A06B09680843034908604E
:104280002846FBF753FF70BD0416002040010020B4
:1042900070B50446FBF746FF054604F11400D0E96B
:1042A00000215160D0E9001211604060006000BF41
:1042B00094F83510094A02EBC1000168814201D12E
:1042C000012100E0002129B10548A16B0068884365
:1042D000034908602846FBF729FF70BD041600203B
:1042E000400100202DE9F04104460D4616461F46C8
:1042F0002A4602212046FFF72DFF2046FFF77FFDCB
:10430000A68367720020BDE8F08170B504460025E1
:10431000FBF708FF064604F11400FFF7B6FD28B9C5
:1043200004F11400FFF72AFD01250EE0A08B4FF6E3
:10433000FF71884203DAA08B401CA08305E0304661
:10434000FBF7F4FE6FF0020070BD3046FBF7EEFEA7
:10435000012D01D1FFF732FF0020F5E773B50546C7
:10436000FBF7E0FE0646A88B002806DDA88B401E62
:10437000A8833046FBF7DAFE28E0019828B93046DA
:10438000FBF7D4FE6FF001007CBD00F041FA04465B
:10439000002020636A7A214605F11400FFF7F8FC3B
:1043A0000198002809DD01AA002104F1440000F071
:1043B00041FB04F1440000F099FB3046FBF7B6FEE8
:1043C000FFF7FCFE206B08B1206BDDE70020DBE788
:1043D00008B509A0FFF71CFD0AA0FFF719FD12A000
:1043E000052301220321009012A0FFF711FD19A05F
:1043F000FFF70EFD08BD00000A205C207C202F0A7C
:10440000000000002D205254202D20202020205478
:104410006872656164204F7065726174696E6720AF
:1044200053797374656D0A004A756C202039203207
:1044300030323300202F207C205C202020202025BB
:10444000642E25642E2564206275696C64202573B2
:104450000A0000002032303036202D203230323039
:1044600020436F7079726967687420627920727472
:104470002D746872656164207465616D0A000000C6
:1044800070B50346A2B118460C4600BF14F8016B84
:1044900000F8016B3EB902E0002500F8015B551EF3
:1044A0002A1EF9D102E0551E2A1EEFD100BF00BF1F
:1044B000184670BD2DE9F04105460E46E81C20F077
:1044C000030726F00308B8F1180F09D9A8F118005E
:1044D000B84205D3A8EB070018381E49086006E06B
:1044E000324629461CA0FFF793FCBDE8F08129481D
:1044F000076004684FF4F5502080164800680C30BF
:1045000060600020A06060802249606809680844FB
:10451000214908604FF4F5500968088001201E49C0
:10452000096848800B4800680C301B4909684860DE
:10453000084800680C301849096888600023012287
:1045400016A11848FFF7CEFE124800681649086009
:1045500000BFCAE7E40000206D656D20696E6974D4
:104560002C206572726F7220626567696E206164CB
:10457000647265737320307825782C20616E642016
:10458000656E642061646472657373203078257889
:104590000A000000D8000020DC000020686561707F
:1045A00000000000E4150020E000002010B500200D
:1045B0000B490880002405E00A4901EBC400FFF71D
:1045C00042FC641C202CF7DB1F20074908700020E8
:1045D00006490860064908600648FFF734FC10BD2C
:1045E00044010020041600204C0100204801002056
:1045F000400100205001002070B508480068FCF719
:1046000083FF451E064850F83500A0F11404054804
:10461000046004F11C00FBF7BAFD70BD40010020EE
:10462000041600204801002010B5002405E00449CC
:1046300001EBC400FFF70AFC641C002CF7D010BD8E
:104640005801002070472DE9FF5F06460F4690464F
:104650001D46DDE90EAB31460120FFF71BFD81460B
:10466000B9F1000F03D1002004B0BDE8F09F284647
:10467000FFF736FC044624B94846FFF735FD002015
:10468000F2E743463A46314648468DE8300CFCF79F
:1046900077FF4846E8E710B50446204600F0BEF82C
:1046A00010BD000070B513480468FBF73BFD0546DC
:1046B0002046FCF7D6FF2046FFF7EAFD042084F8E9
:1046C000340004F1440000F0E6F92046FFF76DFDE8
:1046D000012803D12046FFF719FD04E004F114017D
:1046E0000548FFF7BDFBFFF769FD2846FBF71EFDF8
:1046F00070BD0000480100205001002001E000F0E2
:1047000001F8FCE770B528E0FBF70CFD054600BF9B
:1047100013480168814201D0012100E0002119B94C
:104720002846FBF703FD19E00D480068A0F11404CA
:1047300004F11400D0E900215160D0E900121160A9
:104740004060006000BFA06AFFF730F92046FFF725
:10475000CBFC2846FBF7EAFC00BFD5E700BF70BDE5
:10476000500100201FB520201F21C200074BCDE9BA
:104770000032CDE902100023054A06A1074800F0E7
:104780000FF8064800F06CF81FBD0000641400200C
:10479000FD4600087469646C65000000EC1300209D
:1047A0002DE9FF5F05460C4616461F46DDE910ABB6
:1047B000DDE90E89224601212846FFF7CBFC3B4666
:1047C0003246214628468DE8000FFCF7D9FE04B09A
:1047D000BDE8F09F70B5044694F8340000F00F0077
:1047E000022802D04FF0FF3070BDFBF79BFC05465E
:1047F00004F11400FFF762FB04F1440000F0ECF94F
:104800002846FBF793FC2046FFF71AFD0020EBE754
:1048100001480068704700004801002031B5FBF7EF
:1048200081FC05460D480468204600F02FF86A46D2
:10483000002104F1440000F0FDF804F1440000F010
:1048400055F92846FBF772FCFFF7B8FC206B801C7B
:1048500008B900202063002038BD00004801002076
:1048600010B504463434A078607061780120884027
:104870006060022004F834092046FFF7ABFFFFF721
:10488000C7FF08B1FFF79AFC002010BD70B50446C1
:1048900094F8340000F00F00012802D04FF0FF30F0
:1048A00070BDFBF73FFC05462046FFF7F1FC94F88E
:1048B000340020F00F0040F0020084F8340004F1CE
:1048C000440000F089F92846FBF730FC0020E7E7B8
:1048D00070B5044625466FF00100286305F1140009
:1048E000FFF7ECFA2846FFF7ABFCFFF767FC70BD5B
:1048F00070B5FBF717FC05461448046894F83400BB
:1049000000F00F0001281CD1D4E90510814218D015
:1049100004F11400FFF7D2FA94F835200C4B03EBA6
:10492000C20004F114014268116042684A604160AB
:10493000086000BF2846FBF7F9FBFFF73FFC0020AB
:1049400070BD2846FBF7F2FB0020F9E74801002084
:10495000041600200148006870470000D0000020C5
:1049600010B50A480068401C08490860FFF750FF6E
:104970000446206C401E2064206C18B9E06B206453
:10498000FFF7B6FF00F004F810BD0000D0000020D3
:104990007CB56846FFF75AFAFFF7DCFF0546FBF7E0
:1049A000C1FB06463AE022480068A0F11404A06A60
:1049B000281A6FF0004188422ED22046FCF743FEB1
:1049C000607A00F0020018B9607A20F0010060728D
:1049D00004F114016846FFF74AFAD4E90710884742
:1049E000FFF7B8FF05466846FFF757FA00B115E034
:1049F00004F11400FFF76BFA607A00F0020060B176
:104A0000607A00F0010040B1607A20F0010060722D
:104A1000204600F06BF800E005E000BF0448FFF717
:104A20003CFA0028BFD000BF3046FBF77FFB7CBDBF
:104A3000580100202DE9F04104460E461546FBF7CB
:104A400071FB0746052E1ED2DFE806F00603090EAD
:104A50001300606A286017E02868606214E0607ADA
:104A600020F0020060720FE0607A40F00200607295
:104A70000AE0607A00F0010010B10120286001E036
:104A80000020286000E000BF00BF3846FBF74EFB67
:104A90000020BDE8F08170B50446FBF743FB0546F6
:104AA0002046FCF7D0FD607A20F0010060722846B5
:104AB000FBF73CFB2046FFF729FB002070BD2DE9EA
:104AC000F84307460C4615461E46DDE9088922468E
:104AD0000A213846FFF73EFB434632462946384610
:104AE000CDF80090FCF78EFDBDE8F8832DE9F84382
:104AF0000546FBF717FB80462846FCF7A4FD687ABD
:104B000020F001006872FFF725FF696A0844A86277
:104B10002F4F009700242AE019E05DF82420116847
:104B2000142202EBC402881A826AAB6AD21A00D13C
:104B300008E0826AAB6AD21A6FF000439A4200D250
:104B40000CE000BF5DF8240000684DF824005DF81B
:104B5000240007EBC40149688842DED100BF2CB1B4
:104B60005DF824000830611C4DF82100641C002C05
:104B7000D2D018480068401C1649086008460668EC
:104B800005F114010098FFF772F9022412E006F013
:104B9000030060B9C4F1010305F1140202EBC30183
:104BA000C4F101025DF82200FFF761F900E003E0C3
:104BB000B608641C012CEAD900BF687A40F00100F5
:104BC00068724046FBF7B2FA0020BDE8F8830000A7
:104BD000580100206001002070B50446607A00F0A2
:104BE000010010B94FF0FF3070BDFBF79BFA05468E
:104BF0002046FCF728FD607A20F00100607228460C
:104C0000FBF794FA0020EFE72DE9FF4F89B08146CA
:104C10004C460A9809EB00064E4504D24FF0FF3689
:104C2000A6EB09000A9077E10B980078252806D0BA
:104C3000B44202D20B9800782070641C69E1002510
:104C400026E00B98401C0B900B9800782D2802D181
:104C500045F010051CE00B9800782B2802D145F098
:104C6000040515E00B980078202802D145F00805CE
:104C70000EE00B980078232802D145F0200507E0CC
:104C80000B980078302802D145F0010500E000E0E3
:104C9000D7E700BF4FF0FF370B98007830380A286D
:104CA00004D20BA800F06DF907460EE00B980078CF
:104CB0002A280AD10B98401C0B900C9880C80C90A5
:104CC000002F02DA7F4245F010054FF0FF3A0B98B3
:104CD00000782E281CD10B98401C0B900B98007864
:104CE00030380A2804D20BA800F04BF982460AE0BB
:104CF0000B9800782A2806D10B98401C0B900C9832
:104D000050F804AB0C90BAF1000F01DA4FF0000A32
:104D1000002004900B980078682803D00B98007846
:104D20006C2805D10B98007804900B98401C0B90D0
:104D30000A2005900B9800786F2873D00CDC63284C
:104D400013D004DC25286ED058286DD195E0642856
:104D50006BD06928F9D197E0702873D0732825D0DB
:104D600075286ED07828F0D18AE005F0100040B99F
:104D700004E0B44201D220202070641C781E071E7B
:104D8000F7DC0C9810F8041B0C90C8B20790B442E2
:104D900001D207982070641C04E0B44201D22020A4
:104DA0002070641C781E071EF7DCB2E00C980068C7
:104DB00006900C98001D0C90069808B960A006900B
:104DC0004FF0000801E008F10108B84504D006984A
:104DD00010F808000028F6D1BAF1000F02DDD04526
:104DE00000DDD04605F0100048B904E0B44201D21D
:104DF00020202070641C38467F1E4045F6DC0020D1
:104E000008900BE0B44202D2069800782070641C2F
:104E10000698401C06900898401C08900898404549
:104E2000F0DB09E026E01FE032E02CE00AE0B442CB
:104E300001D220202070641C38467F1E4045F6DCDD
:104E400067E024E0781C10B9082745F00105CDE99A
:104E5000007A02950C9804C8102331460C90204625
:104E6000FEF74AFC044654E0B44201D225202070EB
:104E7000641C4EE0082005901DE045F0400500BF91
:104E80001020059017E000BF45F0020500BF12E0BA
:104E9000B44201D225202070641C0B98007830B1F8
:104EA000B44202D20B9800782070641C02E00B9888
:104EB000401E0B902DE000BF04986C2807D10C9881
:104EC00050F804BB0C9005F00200B8B116E004984D
:104ED00068280BD10C9830F8041B1FFA81FB0C904A
:104EE00005F0020050B10FFA8BFB07E00C9850F868
:104EF00004BB0C9005F0020000B100BFCDE9007AC0
:104F000002955A4631462046059BFEF7F5FB0446BE
:104F100000BF0B98401C0B900B98007800287FF482
:104F200083AE0A9838B1B44202D20020207002E069
:104F3000002006F8010CA4EB09000DB0BDE8F08FCD
:104F4000284E554C4C290000002070470020704727
:104F5000002070470020704710B5FBF7E3F8FEF71C
:104F60009DFDFFF735FAFFF75FFBFFF71FFBFEF72D
:104F7000B7FCFFF767FBFFF7F5FBFFF73DFB0020F2
:104F800010BD0146002009E00B685A1C0A601A781F
:104F900000EB800302EB4302A2F130000A681278B2
:104FA000303A0A2AF0D370472DE9F04106460F4601
:104FB000FBF7C4FC041E0D4618BF0120284320F057
:104FC0000040C0F17F6000F1E040C00F0ED0301C07
:104FD00018BF0120384320F00040C0F17F6000F18D
:104FE000E040C00F04BF0120FCF7C4FA2046294668
:104FF000BDE8F0812DE9F05F82464FF0000B002103
:105000005046FBF7BBFB01D28AF0004A10495046DC
:10501000FBF7BEFB01D2DFF838A05046FBF77FFB61
:1050200080460C4A0C4BFBF766FA064600220B4BF7
:10503000FBF75EFA0446FBF785FB834600215846E2
:10504000FBF79CFB01D24FF0000B5846BDE8F09FE8
:105050009A99193F79E9263108ACFA3F0000F03FF0
:105060000000010002000100030001000200010035
:105070000400010002000100030001000200010021
:105080000500010002000100030001000200010010
:105090000400010002000100030001000200010001
:1050A00006000100020001000300010002000100EF
:1050B00004000100020001000300010002000100E1
:1050C00005000100020001000300010002000100D0
:1050D00004000100020001000300010002000100C1
:1050E00007000100020001000300010002000100AE
:1050F00004000100020001000300010002000100A1
:10510000050001000200010003000100020001008F
:105110000400010002000100030001000200010080
:10512000060001000200010003000100020001006E
:105130000400010002000100030001000200010060
:10514000050001000200010003000100020001004F
:105150000400010002000100030001000200010040
:1051600030313233343536373839616263646566DD
:1051700000303132333435363738394142434445D3
:105180004600000000000000555555555555C53FD7
:105190007D6FEB0312D6D4BF5544880E55C1C93F6D
:1051A0003B8F68B52882A4BF88B20175E0EF493F04
:1051B00009F7FD0DE13D023F4B2D8A1C273A03C044
:1051C000C88A599CE52A004059018D1B6C06E6BF30
:1051D00082922EB1C5B8B33F4FBB610567ACDD3FCE
:1051E000182D4454FB21E93F9BF681D20B73EF3F0E
:1051F000182D4454FB21F93FE2652F227F2B7A3C86
:10520000075C143326A6813CBDCBF07A8807703C3E
:10521000075C143326A6913CC4EB98999999C9BFB1
:10522000711623FEC671BCBF6D9A74AFF2B0B3BFE6
:105230009AFDDE522DDEADBF2F6C6A2C44B4A2BFA6
:105240000D5555555555D53FFF8300922449C23F12
:105250006E204CC5CD45B73F513DD0A0660DB13F46
:10526000EB0D76244B7BA93F11DA22E33AAD903F58
:105270000000000000000000554F00084D4F0008DE
:10528000494F0008514F0008A852000800000020B4
:1052900078010000240A0008F85200087801002074
:1052A00090190000641500081184A24A0400093E08
:1052B00001020304060708090B20803F10E91401CE
:1052C000420524C2877A46320122F42A2004327829
:1052D00032021304012A2004322032051A140C2948
:1052E00004323032061A240C2904323C320A1A34B1
:0852F0000C2904023B2C000014
:04000005080000ED02
:00000001FF
