:020000040800F2
:10000000F0170020010100086F030008C901000873
:100010006B030008470200084506000800000000C6
:100020000000000000000000000000009103000834
:100030004B02000800000000530100087D04000886
:100040001B0100081B0100081B0100081B01000820
:100050001B0100081B0100081B0100081B01000810
:100060001B0100081B0100081B0100081B01000800
:100070001B0100081B0100081B0100081B010008F0
:100080001B0100081B0100081B0100081B010008E0
:100090001B0100081B0100081B0100081B010008D0
:1000A0001B0100081B0100081B0100081B010008C0
:1000B0001B0100081B0100081B0100081B010008B0
:1000C0001B0100081B0100081B0100081B010008A0
:1000D0001B010008910500081B0100081B01000816
:1000E0001B0100081B0100081B010008DFF80CD0F1
:1000F00000F092F8004800473D020008F017002089
:100100000648804706480047FEE7FEE7FEE7FEE7B1
:10011000FEE7FEE7FEE7FEE7FEE7FEE73105000843
:10012000ED000008EFF3108072B6704780F310887E
:100130007047324A1368012B04D04FF0010313605B
:100140002F4A10602F4A11602F484FF080510160F4
:100150007047EFF3108272B62848016891B14FF0F2
:10016000000101602648016829B1EFF3098121E906
:10017000F00F00680160234909680968B1E8F00FD1
:1001800081F3098882F310884EF0040E70471D49F0
:1001900008601B494FF00000086018494FF001004B
:1001A00008601A481A49D0F8002041EA02010160AB
:1001B00015484FF08051016016480068006880F3D0
:1001C000088861B662B670471EF0040F0CBFEFF3EB
:1001D0000880EFF3098020E9F00F40F804ED1EF0ED
:1001E000040F0CBF80F3088880F3098800B500F085
:1001F0005BFD5DF804EB4EF0040E7047D00000206C
:10020000C8000020CC00002004ED00E020ED00E05C
:100210000000FFFF08ED00E0064C074D06E0E06837
:1002200040F0010394E8070098471034AC42F6D33D
:10023000FFF760FF94220008B422000810B501F017
:1002400067FF002010BD00BFFEE770472DE9F041B9
:10025000024600250026002000230024002791F8F4
:1002600003C00CF00F0591F803C00CF0100CBCF1AA
:10027000000F03D091F802C04CEA050591F800C0C8
:10028000BCF1000F31D0146800202BE04FF0010CBE
:100290000CFA00F3B1F800C00CEA03069E4220D12C
:1002A00083004FF00F0C0CFA03F7BC4305FA03FC74
:1002B0004CEA040491F803C0BCF1280F06D14FF0BA
:1002C000010C0CFA00FCC2F814C00AE091F803C05B
:1002D000BCF1480F05D14FF0010C0CFA00FCC2F83C
:1002E00010C0401C0828D1D31460B1F800C0BCF184
:1002F000FF0F34DD546800202EE000F1080C4FF0B1
:10030000010808FA0CF3B1F800C00CEA03069E429B
:1003100021D183004FF00F0C0CFA03F7BC4305FA10
:1003200003FC4CEA040491F803C0BCF1280F05D18A
:1003300000F1080C08FA0CF8C2F8148091F803C018
:10034000BCF1480F07D100F1080C4FF0010808FA82
:100350000CF8C2F81080401C0828CED35460BDE8C9
:10036000F081416170470161704700BFFEE770474F
:1003700029B1064A92690243044B9A6104E0034A98
:1003800092698243014B9A6170470000001002405D
:10039000704710B500F002F810BD00000CB5002049
:1003A000019000903348006840F480303149086083
:1003B00000BF3048006800F4003000900198401CF5
:1003C0000190009818B90198B0F5A06FF1D12948B3
:1003D000006800F4003010B10120009001E000201E
:1003E00000900098012843D12348006840F0100095
:1003F000214908600846006820F0030008600846AC
:10040000006840F0020008601A48406819494860D6
:100410000846406848600846406840F4806048608C
:100420000846406820F47C1048600846406840F464
:10043000E81048600846006840F08070086000BF1F
:100440000C48006800F000700028F9D009484068A6
:1004500020F00300074948600846406840F0020069
:10046000486000BF0348406800F00C000828F9D13C
:100470000CBD0000001002400020024010B500F04A
:1004800039FD01F049FB00F045FD10BD10B500211C
:1004900000200022214B5B6803F00C0121B10429EC
:1004A00006D0082928D107E01D4B1E4C236027E009
:1004B0001B4B1C4C236023E0184B5B6803F470104B
:1004C000164B5B6803F48032022303EB904022B9A1
:1004D000154B4343134C23600DE0104B5B6803F452
:1004E000003323B1104B43430E4C236003E00C4B0D
:1004F00043430C4C236003E0094B0A4C236000BFCC
:1005000000BF064B5B68C3F30313084CE15C054B6B
:100510001B68CB40034C236010BD0000001002405C
:1005200000127A000000002000093D0004000020B5
:1005300010B51348006840F00100114908600846F2
:100540004068104908400E494860084600680E4956
:1005500008400B4908600846006820F480200860C5
:100560000846406820F4FE0048604FF41F00886091
:10057000FFF70FFF4FF000600449086010BD000056
:10058000001002400000FFF8FFFFF6FE08ED00E05B
:1005900010B540F22551094800F025F801280CD18A
:1005A000064800F04AF8064908700120054908701D
:1005B00040F22551014800F007F810BD0038014015
:1005C000140000201500002010B50022002340F682
:1005D0006A14A14200D100BF0A1201249440A3B2C0
:1005E000DC43048010BD70B50246002400230025C2
:1005F000002040F66A16B14200D100BFC1F3421597
:1006000001F01F03012606FA03F3012D02D196899A
:10061000334006E0022D02D1168A334001E0968A6B
:1006200033400C12012606FA04F41688344013B144
:100630000CB1012000E0002070BD01468888C0F3A5
:100640000800704700BFFEE70146481EB0F1807FFA
:1006500001D301207047481E4FF0E0225061FF2077
:10066000044A107000204FF0E022906107201061D2
:100670000020EFE723ED00E0014609B900207047B4
:10068000C8B220B1C8B20E4A105C401CF7E701F4B2
:100690007F4028B10A48C1F30722805C0930EEE7A9
:1006A00001F47F0028B10648C1F30742805C113095
:1006B000E5E7034800EB116000781930DFE7000040
:1006C0006021000802E008C8121F08C1002AFAD100
:1006D00070477047002001E001C1121F002AFBD1C2
:1006E000704700002DE9FC5F04468B4615461E4608
:1006F000DDE90C9ADDE90E7804F114004060006039
:1007000000BF1C346560A660C4F80C90C4F810A04B
:100710002321D4E9030200F075FDD4E9033C6344CE
:100720001A1F0F4BD4E9010100F0BEFB2060A77631
:1007300067760020E061C4F82080C4F824806061FE
:1007400020766065A0651C3C00902346054A214642
:10075000019004F1440001F08EFA0020BDE8FC9FF6
:100760005D180008891A00082DE9F04704460E4676
:1007700017469846DDF8209084F80990607A20F0BA
:1007800001006072E66127620020A062C4F8248044
:10079000002506E004F1140101EBC50000F032FC75
:1007A0006D1C012DF6DBBDE8F08770B50546002411
:1007B00006E005F1140101EBC40000F064FC641CC8
:1007C000012CF6DB70BD70B50446FFF7ABFC0546A7
:1007D000206F10B12046216F88472846FFF7A6FCFE
:1007E00070BD000010B501210148FFF7BCFD10BD30
:1007F000000C014010B501210148FFF7B2FD10BD0A
:10080000000C014008B501210820FFF7B1FD1020C0
:100810008DF803000320ADF800008DF80200694652
:100820000148FFF713FD08BD000C014009E0FFF788
:10083000E1FF642001F00BF8FFF7D4FF642001F022
:1008400006F8F4E710B500F009F8002010BD10B567
:10085000044600F053F9FFF7F5FF10BD1CB5142056
:1008600003214FF400730022CDE9001009490AA0CA
:1008700000F0C5FF094908600846006820B1084635
:10088000006801F0C9F802E04FF0FF301CBD00BF66
:10089000FCE700002D0800086C65640018000020CB
:1008A00030B51A4C436824681919884215D04B8812
:1008B0009BB9174B1B6899420FD0164B1B688B4294
:1008C00001D1144B18604B684360104B1B68C31A6E
:1008D0000E4D4C682D682C44A3600C4C8368246832
:1008E0001A19824211D053887BB90A4B1B68834284
:1008F00001D1084B1A6043685360044B1B68D31A3C
:10090000024D44682D682C44A36030BD3C0000209B
:1009100040000020440000202DE9F04F86B00D4635
:100920009C46DDE9106401960F9B04F04008B8F185
:10093000000F02D0DFF8708101E0DFF87081CDF8A0
:10094000008004F01008B8F1000F01D024F0010479
:1009500004F00108B8F1000F02D04FF0300801E0B8
:100960004FF02008C246002704F00208B8F1000F3B
:1009700011D0002A02DA2D2752420CE004F00408BC
:10098000B8F1000F01D02B2705E004F00808B8F1FA
:10099000000F00D02027002142B94FF0300B8846CD
:1009A000491C0DF1080909F808B01DE01AE0E146FC
:1009B000B9F10A0F08D14FF00A0BB2FBFBFE0BFB9B
:1009C0001E28B2FBFBF202E002F00F08120900BF82
:1009D000DDF8009019F808B08846491C0DF10809A7
:1009E00009F808B0002AE2D1B14200DD0E469B1B97
:1009F00004F01108B8F1000F10D117B1002B00DD81
:100A00005B1E06E0A84203D24FF0200880F8008069
:100A1000401CB3F10008A3F10103F3DC27B1A842A5
:100A200000D207705B1E401C04F01008B8F1000FE4
:100A30000AD104E0A84201D280F800A0401CB3F122
:100A40000008A3F10103F5DC06E0A84203D24FF051
:100A5000300880F80080401CB046761E8845F4DCE3
:100A600008E0A84205D20DF1080818F8018080F8C6
:100A70000080401CB1F10008A1F1010104DDDDF8A6
:100A80000480B8F1000FECD106E0A84203D24FF089
:100A9000200880F80080401CB3F10008A3F1010396
:100AA000F3DC06B0BDE8F08F712200086022000878
:100AB0001CB514200A214FF400730022CDE9001068
:100AC000044905A000F09BFE0446204600F0A4FF68
:100AD0001CBD00004F0800086D61696E0000000039
:100AE00010B5044C02E020688047241D024884426F
:100AF000F9D310BD882200088C22000810B5044CE0
:100B000002E020688047241D02488442F9D310BDCA
:100B10008C2200089022000810B5FFF703FB044662
:100B200004480088401C00B2024908802046FFF7B4
:100B3000FDFA10BDA800002010B5FFF7F3FA044637
:100B40000C480088401E00B20A4908800846B0F9E7
:100B5000000000280ADC002008802046FFF7E6FAA3
:100B60000548006828B100F005FC02E02046FFF7C8
:100B7000DDFA10BDA8000020AC00002070B50546CD
:100B800005B970BD1D480068854203D31C48006844
:100B9000854200D3F5E7A5F10C044FF0FF31194869
:100BA00000F0B8FC608818B12088B0F5F55F08D077
:100BB00015A000F009FA23886288214619A000F0E8
:100BC00003FA002060804FF4F5502080214800682F
:100BD000844201D21F480460084960680968611AAC
:100BE000401A1D490968081A1B4908602046FFF78A
:100BF00057FE044800F065FC00BFC2E73C0000203F
:100C000040000020D0120020746F206672656520BD
:100C10006120626164206461746120626C6F636B47
:100C20003A0A00006D656D3A203078253038782C0E
:100C3000207573656420666C61673A2025642C20FA
:100C40006D6167696320636F64653A203078253091
:100C500034780A00440000204C000020004870470F
:100C6000D800002000487047D810002070B5FFF76A
:100C70000DFC0B4800684FF47A71B0FBF1F420468C
:100C8000FFF7E2FCFFF7BEFDFFF72AFFFFF7EAFFE1
:100C90000446FFF7E3FF0546214600F0E7FC70BD80
:100CA000000000207047000070B505462C1D2E483E
:100CB000006838B128462C4909688847064606B9B5
:100CC00070BD00BF29A0E16B00F07EF92BA0216A66
:100CD00000F07AF92DA0616A00F076F92FA0A16AE0
:100CE00000F072F931A0E16A00F06EF933A02168DA
:100CF00000F06AF935A0616800F066F937A0A168D4
:100D000000F062F939A0E16800F05EF93BA02169CA
:100D100000F05AF93DA0616900F056F93FA0A169C1
:100D200000F052F941A0E16900F04EF943A0216BB7
:100D300000F04AF945A0616B00F046F947A0A16BAD
:100D400000F042F9287800F0040038B100F03CFED1
:100D50000646314645A000F037F902E04BA000F00E
:100D600033F900BFFEE70000D40000207073723A30
:100D7000203078253038780A000000007230303A90
:100D8000203078253038780A000000007230313A7F
:100D9000203078253038780A000000007230323A6E
:100DA000203078253038780A000000007230333A5D
:100DB000203078253038780A000000007230343A4C
:100DC000203078253038780A000000007230353A3B
:100DD000203078253038780A000000007230363A2A
:100DE000203078253038780A000000007230373A19
:100DF000203078253038780A000000007230383A08
:100E0000203078253038780A000000007230393AF6
:100E1000203078253038780A000000007231303AEE
:100E2000203078253038780A000000007231313ADD
:100E3000203078253038780A000000007231323ACC
:100E4000203078253038780A00000000206C723A93
:100E5000203078253038780A000000002070633A8E
:100E6000203078253038780A00000000686172640C
:100E7000206661756C74206F6E20746872656164A1
:100E80003A2025730D0A0D0A0000000068617264A3
:100E9000206661756C74206F6E2068616E646C658D
:100EA000720D0A0D0A000000F0B504460D46164604
:100EB000301D20F0070040380146002203E00C4FAF
:100EC00041F82270521C102AF9D30D624FF0000C29
:100ED000C1F824C0C1F828C0C1F82CC0C1F830C086
:100EE0004B638C634FF0807CC1F83CC0F0BD0000C8
:100EF000EFBEADDE10B5FFF715F9044604480078E3
:100F0000401C034908702046FFF710F910BD00008F
:100F10003800002010B5FFF705F9044604480078B2
:100F2000401E034908702046FFF700F910BD00007D
:100F30003800002070B504462068A0F1140528464A
:100F400000F024FD002070BD2DE9F04105460C465F
:100F50009046204600F076FDB8F1000F03D0B8F1BE
:100F6000010F23D105E004F11401284600F062F8D6
:100F70001DE02E680FE0A6F1140794F8350097F8ED
:100F80003510884206DA04F1140107F1140000F06C
:100F900051F802E03668AE42EDD100BFAE4204D156
:100FA00004F11401284600F045F800E000BF00BF3E
:100FB0000020BDE8F08110B5044604F1140000F0F3
:100FC0001BF8002010BD00000FB438B505A8009034
:100FD0007F210848009B049A00F0F2FE04467F2C13
:100FE00000D97F240348FFF75DFE0020009038BC45
:100FF0005DF814FB501200204060006070474060B4
:10100000006070474060006070470268516002688D
:101010000A600160486070470268516002680A60B7
:101020000160486070470268516002680A600160B0
:10103000486070474268116042684A6041600860D9
:10104000704701460868884201D10120704700209E
:10105000FCE701460868884201D101207047002062
:10106000FCE7D0E900215160D0E900121160406036
:1010700000607047D0E900215160D0E90012116092
:10108000406000607047D0E900215160D0E9001253
:1010900011604060006070472DE9F041054615B9C8
:1010A0000020BDE8F081E81C20F003054E480068F0
:1010B000854201D90020F4E70C2D00D20C254FF019
:1010C000FF314A4800F026FA494800684949096852
:1010D000461A7EE04748006884196088002874D169
:1010E00006F10C006168081AA8426ED306F10C00E4
:1010F0006168091A05F11800814230D306F10C002D
:1011000000EB05083B48006800EB08074FF4F5507A
:1011100038800020788060687860BE60C4F8048001
:10112000012060803048796800680C30814205D029
:101130003049786809680844C0F808802E4801687A
:1011400005F10C0008442C4908602C480068096827
:10115000884219D2284800682849086014E0012014
:101160006080244960680968611A401A2249096848
:10117000084421490860214800680968884203D270
:101180001D4800681D4908604FF4F550208018483C
:101190000068844212D107E015480068406815498C
:1011A000096808441249086011480068408828B15D
:1011B0000F480068124909688842EDD10B4800F0D9
:1011C00080F904F10C006CE7FFE70A48006830443E
:1011D000466805480068401BB0423FF67BAF0348B5
:1011E00000F06FF900205CE748000020D0120020DA
:1011F000440000203C0000204C0000205000002053
:1012000040000020F0B50C460546E6B2042A15D38E
:1012100000F0030797B9014646EA062343EA034371
:1012200004E008C108C108C108C1103A102AF8D268
:1012300001E008C1121F042AFBD20D4601E005F8A7
:10124000016B171EA2F10102F9D1F0BD2DE9F041A9
:1012500006460F46304600F045F80546E868FFF7B9
:101260001BFF044614B90020BDE8F0810021204690
:10127000EA68FFF7C7FF267200206072082239462D
:10128000204600F0D9F9FEF74DFF804604F10C012D
:10129000281DFFF7BAFE4046FEF748FF2046E3E769
:1012A00070B5044600202072FEF73CFF054604F1AD
:1012B0000C00FFF7D6FE2846FEF738FF2046FFF762
:1012C0005DFC70BD70B5044600202072FEF72AFF59
:1012D000054604F10C00FFF7C4FE2846FEF726FF82
:1012E00070BD0000024600210AE0074800EB011033
:1012F0000078904203D1044800EB01107047491C6C
:101300000529F2DB0020F9E7540000202DE9F04721
:1013100004460D46904600262846FFF7E3FF0746A1
:10132000FFF7FAFB7E6802E0A6F10C003668381D74
:101330008642F9D1FFF700FC45F0800020720822B8
:101340004146204600F078F9FEF7ECFE814604F1B4
:101350000C01381DFFF759FE4846FEF7E7FEBDE8D1
:10136000F0870146087A00F0800008B1012070473C
:101370000020FCE72DE9F041FEF7D4FE07461848AF
:10138000008838BB17480068FFF776F9461E1648F4
:1013900050F83600A0F1140414480068844218D0B4
:1013A00013490E701148056804601248007850B95E
:1013B00004F11C0105F11C00FEF7BBFE3846FEF7E8
:1013C000B5FEBDE8F08104F11C0105F11C00FEF73B
:1013D000B0FE00BF3846FEF7A9FE00BFF1E70000EF
:1013E000A8000020A4000020F0120020AC00002083
:1013F000B00000203800002070B50446FEF792FED1
:10140000054614F8340F20F00F0040F00100207062
:101410006278343C0A4B03EBC20004F114014268C9
:10142000116042684A604160086000BF0549A06BD6
:1014300009680843034908602846FEF777FE70BD37
:10144000F0120020A400002070B50446FEF76AFEEA
:10145000054604F11400D0E900215160D0E90012E2
:1014600011604060006000BF94F83510094A02EB3B
:10147000C1000168814201D1012100E0002129B1B0
:101480000548A16B00688843034908602846FEF7B9
:101490004DFE70BDF0120020A40000202DE9F041A7
:1014A00004460D4616461F462A4602212046FFF7EF
:1014B0002DFF2046FFF77FFDA68367720020BDE861
:1014C000F08170B504460025FEF72CFE064604F1B7
:1014D0001400FFF7B6FD28B904F11400FFF72AFD48
:1014E00001250EE0A08B4FF6FF71884203DAA08B36
:1014F000401CA08305E03046FEF718FE6FF00200A6
:1015000070BD3046FEF712FE012D01D1FFF732FF0C
:101510000020F5E773B50546FEF704FE0646A88BE6
:10152000002806DDA88B401EA8833046FEF7FEFD8E
:1015300028E0019828B93046FEF7F8FD6FF0010069
:101540007CBD00F041FA0446002020636A7A2146FF
:1015500005F11400FFF7F8FC0198002809DD01AA45
:10156000002104F1440000F041FB04F1440000F0CC
:1015700099FB3046FEF7DAFDFFF7FCFE206B08B161
:10158000206BDDE70020DBE708B509A0FFF71CFDB5
:101590000AA0FFF719FD12A00523012203210090E4
:1015A00012A0FFF711FD19A0FFF70EFD08BD000006
:1015B0000A205C207C202F0A000000002D205254BD
:1015C000202D2020202020546872656164204F70F7
:1015D00065726174696E672053797374656D0A0072
:1015E0004D6179203134203230323300202F207C7D
:1015F000205C202020202025642E25642E256420B8
:101600006275696C642025730A0000002032303056
:1016100036202D203230323020436F707972696766
:1016200068742062792072742D7468726561642018
:101630007465616D0A00000070B50346A2B11846DA
:101640000C4600BF14F8016B00F8016B3EB902E0D4
:10165000002500F8015B551E2A1EF9D102E0551E37
:101660002A1EEFD100BF00BF184670BD2DE9F04122
:1016700005460E46E81C20F0030726F00308B8F1E3
:10168000180F09D9A8F11800B84205D3A8EB070034
:1016900018381E49086006E0324629461CA0FFF7AC
:1016A00093FCBDE8F0812948076004684FF4F550C9
:1016B0002080164800680C3060600020A0606080C8
:1016C0002249606809680844214908604FF4F550D0
:1016D0000968088001201E49096848800B48006895
:1016E0000C301B4909684860084800680C301849EC
:1016F000096888600023012216A11848FFF7CEFE72
:10170000124800681649086000BFCAE74800002078
:101710006D656D20696E69742C206572726F722020
:10172000626567696E2061646472657373203078E6
:1017300025782C20616E6420656E6420616464727B
:1017400065737320307825780A0000003C00002083
:10175000400000206865617000000000D012002089
:101760004400002010B500200B490880002405E04B
:101770000A4901EBC400FFF742FC641C202CF7DB94
:101780001F200749087000200649086006490860C4
:101790000648FFF734FC10BDA8000020F01200201E
:1017A000B0000020AC000020A4000020B400002005
:1017B00070B508480068FEF75FFF451E064850F800
:1017C0003500A0F114040548046004F11C00FEF784
:1017D000DEFC70BDA4000020F0120020AC00002050
:1017E00010B5002405E0044901EBC400FFF70AFC32
:1017F000641C002CF7D010BDBC00002070472DE900
:10180000FF5F06460F4690461D46DDE90EAB3146AA
:101810000120FFF71BFD8146B9F1000F03D1002025
:1018200004B0BDE8F09F2846FFF736FC044624B913
:101830004846FFF735FD0020F2E743463A46314679
:1018400048468DE8300CFEF74DFF4846E8E710B5F6
:101850000446204600F0BEF810BD000070B51348E5
:101860000468FEF75FFC05462046FEF7ACFF204605
:10187000FFF7EAFD042084F8340004F1440000F08E
:10188000E6F92046FFF76DFD012803D12046FFF75A
:1018900019FD04E004F114010548FFF7BDFBFFF753
:1018A00069FD2846FEF742FC70BD0000AC00002038
:1018B000B400002001E000F001F8FCE770B528E07A
:1018C000FEF730FC054600BF13480168814201D095
:1018D000012100E0002119B92846FEF727FC19E094
:1018E0000D480068A0F1140404F11400D0E90021AF
:1018F0005160D0E9001211604060006000BFA06A32
:10190000FFF73CF92046FFF7CBFC2846FEF70EFC1C
:1019100000BFD5E700BF70BDB40000201FB5202078
:101920001F21C200074BCDE90032CDE90210002390
:10193000054A06A1074800F00FF8064800F06CF8C9
:101940001FBD000050110020B51800087469646CB8
:1019500065000000D81000202DE9FF5F05460C4609
:1019600016461F46DDE910ABDDE90E89224601214E
:101970002846FFF7CBFC3B463246214628468DE8F9
:10198000000FFEF7AFFE04B0BDE8F09F70B504464F
:1019900094F8340000F00F00022802D04FF0FF301E
:1019A00070BDFEF7BFFB054604F11400FFF762FBB4
:1019B00004F1440000F0ECF92846FEF7B7FB20469E
:1019C000FFF71AFD0020EBE70148006870470000B0
:1019D000AC00002031B5FEF7A5FB05460D480468B4
:1019E000204600F02FF86A46002104F1440000F080
:1019F000FDF804F1440000F055F92846FEF796FB87
:101A0000FFF7B8FC206B801C08B900202063002081
:101A100038BD0000AC00002010B504463434A07876
:101A200060706178012088406060022004F8340909
:101A30002046FFF7ABFFFFF7C7FF08B1FFF79AFC9F
:101A4000002010BD70B5044694F8340000F00F007B
:101A5000012802D04FF0FF3070BDFEF763FB054652
:101A60002046FFF7F1FC94F8340020F00F0040F01E
:101A7000020084F8340004F1440000F089F928469B
:101A8000FEF754FB0020E7E770B5044625466FF0EB
:101A90000100286305F11400FFF7ECFA2846FFF770
:101AA000ABFCFFF767FC70BD70B5FEF73BFB05466E
:101AB0001448046894F8340000F00F0001281CD189
:101AC000D4E90510814218D004F11400FFF7D2FACE
:101AD00094F835200C4B03EBC20004F1140142686A
:101AE000116042684A604160086000BF2846FEF706
:101AF0001DFBFFF73FFC002070BD2846FEF716FBDC
:101B00000020F9E7AC000020F01200200148006836
:101B1000704700003400002010B50A480068401CDF
:101B200008490860FFF750FF0446206C401E2064FF
:101B3000206C18B9E06B2064FFF7B6FF00F004F8E2
:101B400010BD0000340000207CB56846FFF75AFA4B
:101B5000FFF7DCFF0546FEF7E5FA06463AE02248C5
:101B60000068A0F11404A06A281A6FF000418842AE
:101B70002ED22046FEF719FE607A00F0020018B956
:101B8000607A20F00100607204F114016846FFF7EA
:101B90004AFAD4E907108847FFF7B8FF05466846B8
:101BA000FFF757FA00B115E004F11400FFF76BFAE4
:101BB000607A00F0020060B1607A00F0010040B18C
:101BC000607A20F001006072204600F06BF800E0BF
:101BD00005E000BF0448FFF73CFA0028BFD000BF73
:101BE0003046FEF7A3FA7CBDBC0000202DE9F04191
:101BF00004460E461546FEF795FA0746052E1ED2F8
:101C0000DFE806F00603090E1300606A286017E09B
:101C10002868606214E0607A20F0020060720FE0D1
:101C2000607A40F0020060720AE0607A00F0010021
:101C300010B10120286001E00020286000E000BF12
:101C400000BF3846FEF772FA0020BDE8F08170B59B
:101C50000446FEF767FA05462046FEF7A6FD607AC1
:101C600020F0010060722846FEF760FA2046FFF778
:101C700029FB002070BD2DE9F84307460C461546A8
:101C80001E46DDE9088922460A213846FFF73EFB59
:101C90004346324629463846CDF80090FEF764FDAB
:101CA000BDE8F8832DE9F8430546FEF73BFA804688
:101CB0002846FEF77AFD687A20F001006872FFF787
:101CC00025FF696A0844A8622F4F009700242AE084
:101CD00019E05DF824201168142202EBC402881A6E
:101CE000826AAB6AD21A00D108E0826AAB6AD21A61
:101CF0006FF000439A4200D20CE000BF5DF8240070
:101D000000684DF824005DF8240007EBC401496821
:101D10008842DED100BF2CB15DF824000830611C80
:101D20004DF82100641C002CD2D018480068401CDB
:101D3000164908600846066805F114010098FFF787
:101D400072F9022412E006F0030060B9C4F1010345
:101D500005F1140202EBC301C4F101025DF8220097
:101D6000FFF761F900E003E0B608641C012CEAD932
:101D700000BF687A40F0010068724046FEF7D6F96D
:101D80000020BDE8F8830000BC000020C400002053
:101D900070B50446607A00F0010010B94FF0FF30D2
:101DA00070BDFEF7BFF905462046FEF7FEFC607ADF
:101DB00020F0010060722846FEF7B8F90020EFE736
:101DC0002DE9FF4F89B081464C460A9809EB000681
:101DD0004E4504D24FF0FF36A6EB09000A9077E19A
:101DE0000B980078252806D0B44202D20B980078D0
:101DF0002070641C69E1002526E00B98401C0B90C4
:101E00000B9800782D2802D145F010051CE00B98A6
:101E100000782B2802D145F0040515E00B980078D6
:101E2000202802D145F008050EE00B980078232801
:101E300002D145F0200507E00B980078302802D148
:101E400045F0010500E000E0D7E700BF4FF0FF37A5
:101E50000B98007830380A2804D20BA800F06DF9EE
:101E600007460EE00B9800782A280AD10B98401CF0
:101E70000B900C9880C80C90002F02DA7F4245F03E
:101E800010054FF0FF3A0B9800782E281CD10B98C4
:101E9000401C0B900B98007830380A2804D20BA80D
:101EA00000F04BF982460AE00B9800782A2806D108
:101EB0000B98401C0B900C9850F804AB0C90BAF1A6
:101EC000000F01DA4FF0000A002004900B98007810
:101ED000682803D00B9800786C2805D10B980078FF
:101EE00004900B98401C0B900A2005900B980078EA
:101EF0006F2873D00CDC632813D004DC25286ED047
:101F000058286DD195E064286BD06928F9D197E005
:101F1000702873D0732825D075286ED07828F0D11A
:101F20008AE005F0100040B904E0B44201D220205C
:101F30002070641C781E071EF7DC0C9810F8041B38
:101F40000C90C8B20790B44201D207982070641C6C
:101F500004E0B44201D220202070641C781E071EC9
:101F6000F7DCB2E00C98006806900C98001D0C900D
:101F7000069808B960A006904FF0000801E008F14B
:101F80000108B84504D0069810F808000028F6D1DA
:101F9000BAF1000F02DDD04500DDD04605F010009B
:101FA00048B904E0B44201D220202070641C3846B5
:101FB0007F1E4045F6DC002008900BE0B44202D2C0
:101FC000069800782070641C0698401C06900898BB
:101FD000401C089008984045F0DB09E026E01FE02F
:101FE00032E02CE00AE0B44201D220202070641CD0
:101FF00038467F1E4045F6DC67E024E0781C10B9C7
:10200000082745F00105CDE9007A02950C9804C82F
:10201000102331460C902046FEF77EFC044654E027
:10202000B44201D225202070641C4EE008200590A7
:102030001DE045F0400500BF1020059017E000BFEF
:1020400045F0020500BF12E0B44201D22520207005
:10205000641C0B98007830B1B44202D20B9800781F
:102060002070641C02E00B98401E0B902DE000BF16
:1020700004986C2807D10C9850F804BB0C9005F01C
:102080000200B8B116E0049868280BD10C9830F81B
:10209000041B1FFA81FB0C9005F0020050B10FFAEF
:1020A0008BFB07E00C9850F804BB0C9005F0020085
:1020B00000B100BFCDE9007A02955A46314620466C
:1020C000059BFEF729FC044600BF0B98401C0B90B3
:1020D0000B98007800287FF483AE0A9838B1B44298
:1020E00002D20020207002E0002006F8010CA4EBD0
:1020F00009000DB0BDE8F08F284E554C4C2900006A
:102100000020704700207047002070470020704773
:1021100010B5FEF707F8FEF7A9FDFFF735FAFFF750
:102120005FFBFFF71FFBFEF7C3FCFFF767FBFFF743
:10213000F5FBFFF73DFB002010BD0146002009E044
:102140000B685A1C0A601A7800EB800302EB43020A
:10215000A2F130000A681278303A0A2AF0D37047A8
:102160000000010002000100030001000200010064
:102170000400010002000100030001000200010050
:10218000050001000200010003000100020001003F
:102190000400010002000100030001000200010030
:1021A000060001000200010003000100020001001E
:1021B0000400010002000100030001000200010010
:1021C00005000100020001000300010002000100FF
:1021D00004000100020001000300010002000100F0
:1021E00007000100020001000300010002000100DD
:1021F00004000100020001000300010002000100D0
:1022000005000100020001000300010002000100BE
:1022100004000100020001000300010002000100AF
:10222000060001000200010003000100020001009D
:10223000040001000200010003000100020001008F
:10224000050001000200010003000100020001007E
:10225000040001000200010003000100020001006F
:10226000303132333435363738396162636465660C
:102270000030313233343536373839414243444502
:10228000460000000D21000805210008012100087A
:1022900009210008B422000800000020D800000036
:1022A000C40600088C230008D8000020181700007E
:1022B000D406000800A24A0400000000000000004C
:1022C00001020304060708090000000000000000E6
:1022D00000000000000000000000000000000000FE
:1022E00000000000000000000000000000000000EE
:1022F00000000000000000000000000000000000DE
:102300000000000000000000010000005800002054
:102310005800002078000000020000006800002043
:102320006800002020000000050000007800002068
:102330007800002030000000060000008800002027
:10234000880000203C0000000A00000098000020E7
:10235000980000202C000000000000000000000099
:10236000000000000000000000000000000000006D
:10237000000000000000000000000000000000005D
:0C23800000000000000000000000000051
:04000005080000ED02
:00000001FF
