:020000040800F2
:10000000A8180020010100080F080008C901000815
:100010000B080008E70600081D100008000000009B
:10002000000000000000000000000000510800086F
:10003000EB06000800000000530100083D0900081D
:100040001B0100081B0100081B0100081B01000820
:100050001B0100081B0100081B0100081B01000810
:100060001B0100081B0100081B0100081B01000800
:100070001B0100081B0100081B0100081B010008F0
:100080001B0100081B0100081B0100081B010008E0
:100090001B0100081B0100081B0100081B010008D0
:1000A0001B0100081B0100081B0100081B010008C0
:1000B0001B0100081B0100081B0100081B010008B0
:1000C0001B0100081B0100081B0100081B010008A0
:1000D0001B0100081B0100081B0100081B01000890
:1000E0001B0100081B0100081B010008DFF80CD0F1
:1000F00000F098FA00480047DD060008A818002024
:100100000648804706480047FEE7FEE7FEE7FEE7B1
:10011000FEE7FEE7FEE7FEE7FEE7FEE7F10900087F
:10012000ED000008EFF3108072B6704780F310887E
:100130007047324A1368012B04D04FF0010313605B
:100140002F4A10602F4A11602F484FF080510160F4
:100150007047EFF3108272B62848016891B14FF0F2
:10016000000101602648016829B1EFF3098121E906
:10017000F00F00680160234909680968B1E8F00FD1
:1001800081F3098882F310884EF0040E70471D49F0
:1001900008601B494FF00000086018494FF001004B
:1001A00008601A481A49D0F8002041EA02010160AB
:1001B00015484FF08051016016480068006880F3D0
:1001C000088861B662B670471EF0040F0CBFEFF3EB
:1001D0000880EFF3098020E9F00F40F804ED1EF0ED
:1001E000040F0CBF80F3088880F3098800B501F084
:1001F000F3FC5DF804EB4EF0040E7047880100201C
:10020000800100208401002004ED00E020ED00E0EA
:100210000000FFFF08ED00E040EA01039B0703D068
:1002200009E008C9121F08C0042AFAD203E011F835
:10023000013B00F8013B521EF9D27047F0B480EA4E
:100240000102D40F4200B2EB410F02D2024608462F
:1002500011464A0042D0C30DDDB2C1F3C752AD1AF8
:10026000202D35DAC1F3160141F4000204B15242E7
:10027000C5F1200602FA06F12A411044B3EBD05F23
:1002800023D0C4B1012DA0EBC35009DCF0BC4FF06A
:10029000004202EAC352DBB200F5000000F037B9B9
:1002A000400000F1807000EBC350A0F1807040EA84
:1002B000D170490009E0490841EAC071A0EBC35080
:1002C00000F50000400800EBC350F0BC00F016B988
:1002D0006142012202EB4101001BF6E7F0BC7047CE
:1002E00081F00041AAE780F00040A7E780EA010220
:1002F00010B502F00043400022D04A001FD0010E8A
:1003000001EB1261C0F35600C2F3560240F4000044
:1003100042F40002A0FB022000047F39140400D044
:10032000401C50EA124001D44000491EC2B20C06E3
:1003300004EBD010401C4008802A02D003E00020CB
:1003400010BD20F00100002900DA0020184310BD84
:100350002DE9FE4F81EA030404F0004421F000413E
:1003600000944FF0000B23F0004350EA01045ED0EC
:1003700052EA03045BD0C3F30A54C1F30A552C4478
:10038000A4F2F3340194A0FB0254C1F3130141F42D
:100390008011C3F3130343F4801301FB024400FBF9
:1003A000034E840A970A44EA815447EA8357A4FB20
:1003B000076802958D0A05FB07854FEA932C04FB1D
:1003C0000C542705029D4FEA065847EA1637B5EB4D
:1003D00008056EEB070C870E920E47EA811742EA7A
:1003E0008312A7FB0201B6EB0B0164EB00042B0D9B
:1003F00043EA0C335E1844EB1C50DA465146E7FBE7
:100400000201C5F313044FEA0B3343EA14534FEAD6
:100410000432019C43EA0603A4F10C040294009CFC
:10042000CDE900B400F0B0F803B0BDE8F08F0020D3
:100430000146F9E7C10F80EAE0700844CA07962335
:10044000002100F064B896230022114600F05FB846
:100450000EB540F2334102910021CDE900110A4668
:100460000B4600F091F803B000BD00F0004220F010
:100470000040C10DC0F3160040F400007F2901DAEE
:1004800000207047962903DCC1F19601C84001E0C5
:1004900096398840002AF4D04042704720F000404E
:1004A000C10DC0F3160040F400007F2901DA0020DE
:1004B0007047962903DCC1F19601C8407047963910
:1004C0008840704701F0004330B421F0004150EA09
:1004D000010206D00A0DA2F56072C1F31301002AD1
:1004E00002DC30BC00207047440F44EAC104C10064
:1004F000E01830BC00EBC250AFF300800029A8BF69
:100500007047401C490008BF20F00100704710B43C
:10051000B0FA80FC00FA0CF050EA010404BF10BCF1
:10052000704749B1CCF1200421FA04F411FA0CF11E
:1005300018BF012121430843A3EB0C01CB1D4FEA57
:1005400000614FEA102042BF002010BC704700EB52
:10055000C35010440029A4BF10BC7047401C490080
:1005600008BF20F0010010BC704710B5141E73F1D5
:10057000000408DA401C41F1000192185B411A4363
:1005800001D120F0010010BD2DE9F04D92469B46AF
:1005900011B1B1FA81F202E0B0FA80F22032904655
:1005A00000F052F804460F4640EA0A0041EA0B0107
:1005B00053465A46084313D0114653EA010019D056
:1005C000C8F14002504600F04EF805460E4650462F
:1005D0005946424600F038F8084305D0012004E0AF
:1005E00020463946BDE8F08D0020054346EAE07616
:1005F0002C4337430A986305E40AA0EB0800002265
:10060000FD0A44EA47540A3002D500200146E9E7D2
:10061000010510196941DDE9084500196941BDE886
:10062000F04DA2E7064C074D06E0E06840F00103FC
:1006300094E8070098471034AC42F6D3FFF75AFD10
:100640007832000898320008202A04DB203A00FAA9
:1006500002F1002070479140C2F1200320FA03F319
:10066000194390407047202A04DB203A21FA02F017
:100670000021704721FA02F3D040C2F120029140DC
:1006800008431946704770B58C1810F8015B15F0D7
:10069000070301D110F8013B2A1106D110F8012BF4
:1006A00003E010F8016B01F8016B5B1EF9D12B0719
:1006B00005D40023521E0DD401F8013BFAE710F8CF
:1006C000013BCB1A921C03E013F8015B01F8015BBC
:1006D000521EF9D5A142D8D3002070BD10B502F04A
:1006E000AFFC002010BD00BFFEE770472DE9F041D0
:1006F000024600250026002000230024002791F850
:1007000003C00CF00F0591F803C00CF0100CBCF105
:10071000000F03D091F802C04CEA050591F800C023
:10072000BCF1000F31D0146800202BE04FF0010C19
:100730000CFA00F3B1F800C00CEA03069E4220D187
:1007400083004FF00F0C0CFA03F7BC4305FA03FCCF
:100750004CEA040491F803C0BCF1280F06D14FF015
:10076000010C0CFA00FCC2F814C00AE091F803C0B6
:10077000BCF1480F05D14FF0010C0CFA00FCC2F897
:1007800010C0401C0828D1D31460B1F800C0BCF1DF
:10079000FF0F34DD546800202EE000F1080C4FF00C
:1007A000010808FA0CF3B1F800C00CEA03069E42F7
:1007B00021D183004FF00F0C0CFA03F7BC4305FA6C
:1007C00003FC4CEA040491F803C0BCF1280F05D1E6
:1007D00000F1080C08FA0CF8C2F8148091F803C074
:1007E000BCF1480F07D100F1080C4FF0010808FADE
:1007F0000CF8C2F81080401C0828CED35460BDE825
:10080000F081416170470161704700BFFEE77047AA
:1008100029B1064AD2690243044BDA6104E0034A73
:10082000D2698243014BDA61704700000010024038
:1008300029B1064A92690243044B9A6104E0034AD3
:1008400092698243014B9A61704700000010024098
:10085000704710B500F002F810BD00000CB5002084
:10086000019000903348006840F4803031490860BE
:1008700000BF3048006800F4003000900198401C30
:100880000190009818B90198B0F5A06FF1D12948EE
:10089000006800F4003010B10120009001E0002059
:1008A00000900098012843D12348006840F01000D0
:1008B000214908600846006820F0030008600846E7
:1008C000006840F0020008601A4840681949486012
:1008D0000846406848600846406840F480604860C8
:1008E0000846406820F47C1048600846406840F4A0
:1008F000E81048600846006840F08070086000BF5B
:100900000C48006800F000700028F9D009484068E1
:1009100020F00300074948600846406840F00200A4
:10092000486000BF0348406800F00C000828F9D177
:100930000CBD0000001002400020024010B501F084
:1009400071FA02F081F801F07DFA10BD10B50021B6
:1009500000200022214B5B6803F00C0121B1042927
:1009600006D0082928D107E01D4B1E4C236027E044
:100970001B4B1C4C236023E0184B5B6803F4701086
:10098000164B5B6803F48032022303EB904022B9DC
:10099000154B4343134C23600DE0104B5B6803F48D
:1009A000003323B1104B43430E4C236003E00C4B48
:1009B00043430C4C236003E0094B0A4C236000BF07
:1009C00000BF064B5B68C3F30313084CE15C054BA7
:1009D0001B68CB40034C236010BD00000010024098
:1009E00000127A000000002000093D0004000020F1
:1009F00010B51348006840F001001149086008462E
:100A00004068104908400E494860084600680E4991
:100A100008400B4908600846006820F48020086000
:100A20000846406820F4FE0048604FF41F008860CC
:100A3000FFF70FFF4FF000600449086010BD000091
:100A4000001002400000FFF8FFFFF6FE08ED00E096
:100A5000F0B50C46154600220021068C4FF6FE77B5
:100A60003E400684028B018C4FF60C7632407E1C91
:100A700006EA03162E433243104EB0420ED0104EFB
:100A8000B0420BD0B0F1804F08D00E4EB04205D02E
:100A90000D4EB04202D00D4EB04206D14FF6FD765B
:100AA000314044F00106314305E04FF6F576314020
:100AB00044F00106314302830184F0BD002C014063
:100AC000003401400004004000080040000C0040D9
:100AD000F0B50C461546002200210026078C4FF683
:100AE000EF7C07EA0C070784028B018C4FF6FF7737
:100AF00007EA041640F6FF473A404FF6FF7707EA49
:100B000003373A434FF6FF7707EA05273A43114F79
:100B1000B8420ED0104FB8420BD0B0F1804F08D081
:100B20000E4FB84205D00E4FB84202D00D4FB8421A
:100B300006D14FF6DF77394046F01007394305E01C
:100B40004FF65F77394044F0100739430283018440
:100B5000F0BD0000002C01400034014000040040C2
:100B600000080040000C0040F0B50C46154600227D
:100B700000210026078C4FF6FF6C07EA0C0707845C
:100B8000828B018C4FF6FF7707EA04264FF60C772D
:100B90003A404FF6FF7707EA03172F433A43114FC6
:100BA000B8420ED0104FB8420BD0B0F1804F08D0F1
:100BB0000E4FB84205D00E4FB84202D00D4FB8428A
:100BC00006D14FF6FF57394046F48077394305E0A8
:100BD0004FF2FF57394044F48077394382830184D0
:100BE000F0BD0000002C0140003401400004004032
:100BF00000080040000C0040F0B50C4615460022ED
:100C000000210026078C4EF6FF7C07EA0C070784BC
:100C1000828B018C4FF6FF7707EA043640F6FF47D8
:100C20003A404FF6FF7707EA05273A434FF6FF773A
:100C300007EA03373A43114FB8420ED0104FB8427B
:100C40000BD0B0F1804F08D00E4FB84205D00E4FF8
:100C5000B84202D00D4FB84206D14DF6FF77394069
:100C600046F48057394305E047F6FF57394044F4CE
:100C70008057394382830184F0BD0000002C01407D
:100C8000003401400004004000080040000C004017
:100C900021B1028842F00102028004E002884FF68E
:100CA000FE731A400280704731B1B0F8442042F41C
:100CB0000042A0F8442005E0B0F84420C2F30E0240
:100CC000A0F844207047F0B50C4615461E4600219A
:100CD000002200230189028B038C4FF6F8773940FC
:100CE00021434FF6FC473A4040F201173A434FF692
:100CF000DD773B404FF6FF7707EA06172F433B436C
:100D0000018102830384F0BD0146888C7047000096
:100D100070B505460C46244885420ED023488542CE
:100D20000BD0B5F1804F08D02148854205D021482D
:100D3000854202D02048854200D100E000BF2088D3
:100D400050B92389A28861882846FFF781FEE1888F
:100D5000284600F0E5F825E0208804280AD12389F8
:100D6000A28861882846FFF7B3FEE188284600F094
:100D7000E0F817E0208808280AD12389A288618832
:100D80002846FFF7F1FEE188284600F0DFF809E089
:100D90002389A28861882846FFF72EFFE18828462C
:100DA00000F0DDF870BD0000002C0140003401406F
:100DB0000004004000080040000C004000210180B9
:100DC0004180012181800021C180018170470000A4
:100DD00070B5002400220023058C4FF6FE763540C6
:100DE0000584028C8388048B4FF68F752C40B51ECA
:100DF0002C400D882C43751E2A400D892A434D88AE
:100E00002A43144DA8420BD0134DA84208D0134DCD
:100E1000A84205D0124DA84202D0124DA84213D1CB
:100E20004FF6F7752A404D892A434FF6FB752A4045
:100E30008D882A434FF6FF652B404FF6FF552B4018
:100E40008D892B43CD892B4383800483CD88858670
:100E5000028470BD002C014000340140004001407C
:100E600000440140004801400A460021018B4FF632
:100E7000F7731940114301837047000070B50022D9
:100E800000230024058C4EF6FF7635400584038C44
:100E90008488828B48F6FF752A404FF6FF452A402A
:100EA0000D884FF6FF7606EA05252A434DF6FF75B5
:100EB0002B400D8906EA05352B434D8806EA05359A
:100EC0002B430B4DA84202D00A4DA84208D14BF645
:100ED000FF752C408D894FF6FF7606EA85152C4369
:100EE00084808283CD88A0F84050038470BD0000C8
:100EF000002C0140003401400A460021818B4FF252
:100F0000FF7319404FF6FF7303EA022319438183ED
:100F1000704781867047A0F8401070478184704701
:100F2000028B4FF6F3731A400283028B0A4302834B
:100F30007047028B4FF2FF331A400283028B4FF649
:100F4000FF7303EA01231A4302837047828B4FF633
:100F5000F3731A408283828B0A4382837047828BA9
:100F60004FF2FF331A408283828B4FF6FF7303EAFE
:100F700001231A4382837047002202881D4B984246
:100F80000ED01D4B98420BD0B0F1804F08D01B4BB8
:100F9000984205D01A4B984202D01A4B984204D17D
:100FA0004FF68F731A404B881A43174B984207D05D
:100FB000164B984204D04FF6FF431A40CB881A4391
:100FC00002808B8883850B8803850A4B98420BD05F
:100FD000094B984208D00E4B984205D00D4B9842D1
:100FE00002D00D4B984201D10B7A038601238382F4
:100FF00070470000002C0140003401400004004014
:1010000000080040000C00400010004000140040A8
:1010100000400140004401400048014000BFFEE79D
:101020000146481EB0F1807F01D301207047481E61
:101030004FF0E0225061FF20044A107000204FF072
:10104000E0229061072010610020EFE723ED00E02F
:10105000014609B900207047C8B220B1C8B20E4A93
:10106000105C401CF7E701F47F4028B10A48C1F347
:101070000722805C0930EEE701F47F0028B10648C2
:10108000C1F30742805C1130E5E7034800EB1160D3
:1010900000781930DFE700004431000802E008C89A
:1010A000121F08C1002AFAD170477047002001E0E2
:1010B00001C1121F002AFBD1704700002DE9FC5F1F
:1010C00004468B4615461E46DDE90C9ADDE90E788E
:1010D00004F114004060006000BF1C346560A6602D
:1010E000C4F80C90C4F810A02321D4E9030201F045
:1010F00021F8D4E9033C63441A1F0F4BD4E90101E2
:1011000000F06AFE2060A77667760020E061C4F8F0
:101110002080C4F82480606120766065A0651C3C56
:1011200000902346054A2146019004F1440001F055
:101130003AFD0020BDE8FC9F8D270008B929000872
:101140002DE9F04704460E4617469846DDF82090F4
:1011500084F80990607A20F001006072E6612762ED
:101160000020A062C4F82480002506E004F11401E8
:1011700001EBC50000F0DEFE6D1C012DF6DBBDE8C5
:10118000F08770B50546002406E005F1140101EB77
:10119000C40000F010FF641C012CF6DB70BD70B5BC
:1011A0000446FEF7BFFF0546206F10B12046216FB1
:1011B00088472846FEF7BAFF70BD000008B5012138
:1011C0001020FFF735FB4FF40050ADF8000003206E
:1011D0008DF8020010208DF8030069460448FFF7DF
:1011E00085FA4FF400510248FFF70BFB08BD0000E1
:1011F0000010014000B587B001210220FFF708FB75
:1012000001210420FFF714FB48208DF81B00C020AB
:10121000ADF8180003208DF81A0006A91A48FFF748
:1012200065FA0020ADF81200ADF80E004FF6FF7021
:10123000ADF810000020ADF80C008DF8140003A9E3
:101240001248FFF799FE6846FFF7B8FD0020ADF899
:1012500000000420ADF800000F20ADF8080069463A
:101260000A48FFF755FD0223002203210748FFF734
:101270002AFD00210548FFF751FE01210348FFF731
:1012800007FD07B000BD0000000801400004004059
:1012900000B587B001210846FFF7BAFA0121042002
:1012A000FFF7C6FA48208DF81B000320ADF81800A0
:1012B0008DF81A0006A91C48FFF718FA0020ADF8AF
:1012C0001200ADF80E004FF6FF70ADF810000020D0
:1012D000ADF80C008DF8140003A94FF08040FFF723
:1012E0004BFE6846FFF76AFD0020ADF800000420C1
:1012F000ADF800000F20ADF8080069464FF08040BF
:10130000FFF706FD0223002203215807FFF7DBFC4D
:1013100000214FF08040FFF701FE01218807FFF711
:10132000B7FC07B000BD00000008014010B5FFF792
:1013300061FFFFF7ADFF10BD70B504462046FFF713
:10134000E3FC054600212046FFF7E8FD284670BD76
:1013500008B501210820FFF76BFA14208DF803006F
:101360004FF44070ADF8000003208DF8020069468C
:101370000448FFF7BBF94FF440710248FFF743FA06
:1013800008BD0000000C014000BFFEE708B50121C8
:101390000420FFF74DFA3820ADF8000048208DF802
:1013A000030069460148FFF7A1F908BD00080140A4
:1013B00070B504460D4641F28830844200DD044693
:1013C000002D00DA002541F28830844200DD044619
:1013D000002D00DA002529460348FFF79AFD214633
:1013E0000148FFF798FD70BD002C01402DE9F04148
:1013F00086B004462046FFF72BF805463A4A3B4B99
:10140000FEF7A6FF0746FFF75DF83949086039483F
:10141000FFF792FF384908804FF08040FFF78CFFBC
:1014200036490880364800883349098808443449D9
:1014300008803448008831490988084431490880C7
:101440002B480068FFF711F8064618222E49684617
:10145000FEF7E2FE2C48083831460CC828480088C0
:1014600000F065F90546FFF700F800B2274908804B
:101470001F480068FEF7F9FF06461822224920316E
:101480006846FEF7C9FE204808383146D0E90823EF
:101490001C48008800F04BF90546FEF7E6FF00B255
:1014A0001B4908801949B1F90010194AB2F9002006
:1014B000881800EBD071C1F34F01164A1180104615
:1014C00000881549088008460088FEF7BCFF0546DD
:1014D00010480088FEF7B7FF0646294601F0D8FD00
:1014E00006B0BDE8F081000014AE47E17A544F40E9
:1014F000D000002000040040CC000020CE000020DE
:10150000D4000020D60000201C000020D8000020BD
:10151000DA000020C8000020CA00002010B500F04A
:1015200097F8002010BD10B5044600F073FAFFF7DD
:10153000F5FF10BD10B54FF400510948FFF763F9EE
:101540004FF480510648FFF75CF94FF4804104489E
:10155000FFF759F94FF400410148FFF752F910BD68
:10156000000C014008B501210820FFF761F94FF494
:101570007040ADF8000003208DF8020010208DF8B7
:10158000030069460148FFF7B1F808BD000C0140AF
:1015900030B589B005460C46FFF7E4FF0121C802CB
:1015A000FFF746F901210920FFF742F90121052043
:1015B000FFF73EF94FF41060ADF8200018208DF8C9
:1015C000230003208DF8220008A91F48FFF78EF89A
:1015D000ADF81850ADF814400020ADF81A00ADF881
:1015E000160005A91948FFF7C7FC0020ADF80A004E
:1015F000ADF81000ADF812006020ADF80400012035
:10160000ADF806000420ADF808000020ADF80E008B
:10161000ADF80C0001A90D48FFF7DAFB01A90B4852
:10162000FFF72CFC08210948FFF71EFC082107489A
:10163000FFF762FC01210548FFF736FB0121034853
:10164000FFF726FB09B030BD00080140002C014027
:101650001CB5142003214FF400730022CDE90010C3
:10166000154916A001F063F817490860084600689C
:1016700020B10846006801F067F902E04FF0FF3042
:101680001CBD142003214FF400730022CDE900108B
:101690000E490FA001F04BF8104908600846006899
:1016A00020B10846006801F04FF902E04FF0FF302A
:1016B000E6E70020E4E70000A31700087069645F14
:1016C000636F6E74726F6C00DC0000208913000879
:1016D000677261795F7363616E000000E000002053
:1016E0000FB42DE9F04704460D4629462046FEF783
:1016F000FAFD0D900D990B98FEF7F8FD8046DDE997
:101700000D01FEF7EDFD81460A99FEF7EFFD074654
:101710004146FEF793FD06461199FEF78FFD1190A5
:101720000D980E901198BDE8F0075DF814FB0FB40A
:101730002DE9F04704460D46281BFEF77BFE0D9071
:101740004FF080400E99FEF7D1FD82460D99FEF7CD
:10175000CAFD81460F99FEF771FD80460C99FEF790
:10176000C5FD06460D990B98FEF7C0FD8146DDE9E3
:101770000D01FEF7B5FD82460A99FEF7B7FD8046DA
:101780004946FEF75BFD07463146FEF757FD1190CF
:101790000E980F900D980E901198BDE8F0075DF827
:1017A00014FBFFF7C7FE05E08020FFF71FFE0A20AD
:1017B00000F0E5FFF8E7000030B51A4C43682468F4
:1017C0001919884215D04B889BB9174B1B68994251
:1017D0000FD0164B1B688B4201D1144B18604B681D
:1017E0004360104B1B68C31A0E4D4C682D682C4487
:1017F000A3600C4C836824681A19824211D0538864
:101800007BB90A4B1B68834201D1084B1A604368BD
:101810005360044B1B68D31A024D44682D682C4456
:10182000A36030BDF4000020F8000020FC00002080
:101830002DE9F04F86B00D469C46DDE91064019617
:101840000F9B04F04008B8F1000F02D0DFF8708160
:1018500001E0DFF87081CDF8008004F01008B8F1E5
:10186000000F01D024F0010404F00108B8F1000FCA
:1018700002D04FF0300801E04FF02008C2460027A8
:1018800004F00208B8F1000F11D0002A02DA2D2767
:1018900052420CE004F00408B8F1000F01D02B27ED
:1018A00005E004F00808B8F1000F00D0202700215F
:1018B00042B94FF0300B8846491C0DF1080909F870
:1018C00008B01DE01AE0E146B9F10A0F08D14FF067
:1018D0000A0BB2FBFBFE0BFB1E28B2FBFBF202E085
:1018E00002F00F08120900BFDDF8009019F808B0E7
:1018F0008846491C0DF1080909F808B0002AE2D110
:10190000B14200DD0E469B1B04F01108B8F1000F38
:1019100010D117B1002B00DD5B1E06E0A84203D2F8
:101920004FF0200880F80080401CB3F10008A3F1BC
:101930000103F3DC27B1A84200D207705B1E401CF4
:1019400004F01008B8F1000F0AD104E0A84201D257
:1019500080F800A0401CB3F10008A3F10103F5DCFE
:1019600006E0A84203D24FF0300880F80080401C07
:10197000B046761E8845F4DC08E0A84205D20DF199
:10198000080818F8018080F80080401CB1F10008B8
:10199000A1F1010104DDDDF80480B8F1000FECD104
:1019A00006E0A84203D24FF0200880F80080401CD7
:1019B000B3F10008A3F10103F3DC06B0BDE8F08F3A
:1019C00055320008443200081CB514200A214FF497
:1019D00000730022CDE90010044905A000F0A7FE25
:1019E0000446204600F0B0FF1CBD0000271500088B
:1019F0006D61696E0000000010B5044C02E02068C3
:101A00008047241D02488442F9D310BD6C3200087F
:101A10007032000810B5044C02E020688047241D95
:101A200002488442F9D310BD7032000874320008B5
:101A300010B5FEF777FB044604480088401C00B24E
:101A4000024908802046FEF771FB10BD60010020AE
:101A500010B5FEF767FB04460C480088401E00B234
:101A60000A4908800846B0F9000000280ADC002076
:101A700008802046FEF75AFB0548006828B100F0B0
:101A800011FC02E02046FEF751FB10BD6001002072
:101A90006401002070B5054605B970BD1D48006899
:101AA000854203D31C480068854200D3F5E7A5F1C1
:101AB0000C044FF0FF31194800F0C4FC608818B1E5
:101AC0002088B0F5F55F08D015A000F015FA23883E
:101AD0006288214619A000F00FFA002060804FF4C0
:101AE000F550208021480068844201D21F480460DC
:101AF000084960680968611A401A1D490968081A8E
:101B00001B4908602046FFF757FE044800F071FCAF
:101B100000BFC2E7F4000020F80000208813002076
:101B2000746F206672656520612062616420646163
:101B3000746120626C6F636B3A0A00006D656D3AE8
:101B4000203078253038782C207573656420666CD9
:101B500061673A2025642C206D6167696320636F9B
:101B600064653A203078253034780A00FC00002083
:101B70000401002000487047900100200048704791
:101B80009011002070B5FEF7E1FE114800684FF497
:101B90007A71B0FBF1F42046FFF742FA002141F6DA
:101BA0001F40FFF7F5FCFFF7D3FBFFF7BFFBFFF785
:101BB000EDFBFFF703FBFFF71FFFFFF7DFFF044617
:101BC000FFF7D8FF0546214600F0E8FC70BD000095
:101BD000000000207047000070B505462C1D2E48FF
:101BE000006838B128462C4909688847064606B976
:101BF00070BD00BF29A0E16B00F07EF92BA0216A27
:101C000000F07AF92DA0616A00F076F92FA0A16AA0
:101C100000F072F931A0E16A00F06EF933A021689A
:101C200000F06AF935A0616800F066F937A0A16894
:101C300000F062F939A0E16800F05EF93BA021698B
:101C400000F05AF93DA0616900F056F93FA0A16982
:101C500000F052F941A0E16900F04EF943A0216B78
:101C600000F04AF945A0616B00F046F947A0A16B6E
:101C700000F042F9287800F0040038B100F03CFE92
:101C80000646314645A000F037F902E04BA000F0CF
:101C900033F900BFFEE700008C0100207073723A38
:101CA000203078253038780A000000007230303A51
:101CB000203078253038780A000000007230313A40
:101CC000203078253038780A000000007230323A2F
:101CD000203078253038780A000000007230333A1E
:101CE000203078253038780A000000007230343A0D
:101CF000203078253038780A000000007230353AFC
:101D0000203078253038780A000000007230363AEA
:101D1000203078253038780A000000007230373AD9
:101D2000203078253038780A000000007230383AC8
:101D3000203078253038780A000000007230393AB7
:101D4000203078253038780A000000007231303AAF
:101D5000203078253038780A000000007231313A9E
:101D6000203078253038780A000000007231323A8D
:101D7000203078253038780A00000000206C723A54
:101D8000203078253038780A000000002070633A4F
:101D9000203078253038780A0000000068617264CD
:101DA000206661756C74206F6E2074687265616462
:101DB0003A2025730D0A0D0A000000006861726464
:101DC000206661756C74206F6E2068616E646C654E
:101DD000720D0A0D0A000000F0B504460D461646C5
:101DE000301D20F0070040380146002203E00C4F70
:101DF00041F82270521C102AF9D30D624FF0000CEA
:101E0000C1F824C0C1F828C0C1F82CC0C1F830C046
:101E10004B638C634FF0807CC1F83CC0F0BD000088
:101E2000EFBEADDE10B5FEF77DF90446044800783C
:101E3000401C034908702046FEF778F910BD0000E9
:101E4000F000002010B5FEF76DF904460448007854
:101E5000401E034908702046FEF768F910BD0000D7
:101E6000F000002070B504462068A0F11405284653
:101E700000F024FD002070BD2DE9F04105460C4620
:101E80009046204600F076FDB8F1000F03D0B8F17F
:101E9000010F23D105E004F11401284600F062F897
:101EA0001DE02E680FE0A6F1140794F8350097F8AE
:101EB0003510884206DA04F1140107F1140000F02D
:101EC00051F802E03668AE42EDD100BFAE4204D117
:101ED00004F11401284600F045F800E000BF00BFFF
:101EE0000020BDE8F08110B5044604F1140000F0B4
:101EF0001BF8002010BD00000FB438B505A80090F5
:101F00007F210848009B049A00F0F2FE04467F2CD3
:101F100000D97F240348FFF75DFE0020009038BC05
:101F20005DF814FB081300204060006070474060BB
:101F3000006070474060006070470268516002684E
:101F40000A600160486070470268516002680A6078
:101F50000160486070470268516002680A60016071
:101F6000486070474268116042684A60416008609A
:101F7000704701460868884201D10120704700205F
:101F8000FCE701460868884201D101207047002023
:101F9000FCE7D0E900215160D0E9001211604060F7
:101FA00000607047D0E900215160D0E90012116053
:101FB000406000607047D0E900215160D0E9001214
:101FC00011604060006070472DE9F041054615B989
:101FD0000020BDE8F081E81C20F003054E480068B1
:101FE000854201D90020F4E70C2D00D20C254FF0DA
:101FF000FF314A4800F026FA494800684949096813
:10200000461A7EE04748006884196088002874D129
:1020100006F10C006168081AA8426ED306F10C00A4
:102020006168091A05F11800814230D306F10C00ED
:1020300000EB05083B48006800EB08074FF4F5503B
:1020400038800020788060687860BE60C4F80480C2
:10205000012060803048796800680C30814205D0EA
:102060003049786809680844C0F808802E4801683B
:1020700005F10C0008442C4908602C4800680968E8
:10208000884219D2284800682849086014E00120D5
:102090006080244960680968611A401A2249096809
:1020A000084421490860214800680968884203D231
:1020B0001D4800681D4908604FF4F55020801848FD
:1020C0000068844212D107E015480068406815494D
:1020D000096808441249086011480068408828B11E
:1020E0000F480068124909688842EDD10B4800F09A
:1020F00080F904F10C006CE7FFE70A4800683044FF
:10210000466805480068401BB0423FF67BAF034875
:1021100000F06FF900205CE7000100208813002028
:10212000FC000020F4000020040100200801002031
:10213000F8000020F0B50C460546E6B2042A15D397
:1021400000F0030797B9014646EA062343EA034332
:1021500004E008C108C108C108C1103A102AF8D229
:1021600001E008C1121F042AFBD20D4601E005F868
:10217000016B171EA2F10102F9D1F0BD2DE9F0416A
:1021800006460F46304600F045F80546E868FFF77A
:102190001BFF044614B90020BDE8F0810021204651
:1021A000EA68FFF7C7FF26720020607208223946EE
:1021B000204600F0D9F9FDF7B5FF804604F10C0187
:1021C000281DFFF7BAFE4046FDF7B0FF2046E3E7C3
:1021D00070B5044600202072FDF7A4FF054604F107
:1021E0000C00FFF7D6FE2846FDF7A0FF2046FFF7BC
:1021F00051FC70BD70B5044600202072FDF792FFBF
:10220000054604F10C00FFF7C4FE2846FDF78EFFDB
:1022100070BD0000024600210AE0074800EB0110F3
:102220000078904203D1044800EB01107047491C2C
:102230000529F2DB0020F9E70C0100202DE9F04729
:1022400004460D46904600262846FFF7E3FF074662
:10225000FFF7EEFB7E6802E0A6F10C003668381D41
:102260008642F9D1FFF7F4FB45F080002072082286
:102270004146204600F078F9FDF754FF814604F10D
:102280000C01381DFFF759FE4846FDF74FFFBDE82A
:10229000F0870146087A00F0800008B101207047FD
:1022A0000020FCE72DE9F041FDF73CFF0746184808
:1022B000008838BB17480068FEF7CAFE461E16485D
:1022C00050F83600A0F1140414480068844218D075
:1022D00013490E701148056804601248007850B91F
:1022E00004F11C0105F11C00FDF723FF3846FDF742
:1022F0001DFFBDE8F08104F11C0105F11C00FDF794
:1023000018FF00BF3846FDF711FF00BFF1E70000DE
:10231000600100205C010020A8130020640100205F
:1023200068010020F000002070B50446FDF7FAFEB9
:10233000054614F8340F20F00F0040F00100207023
:102340006278343C0A4B03EBC20004F1140142688A
:10235000116042684A604160086000BF0549A06B97
:1023600009680843034908602846FDF7DFFE70BD91
:10237000A81300205C01002070B50446FDF7D2FED2
:10238000054604F11400D0E900215160D0E90012A3
:1023900011604060006000BF94F83510094A02EBFC
:1023A000C1000168814201D1012100E0002129B171
:1023B0000548A16B00688843034908602846FDF77B
:1023C000B5FE70BDA81300205C0100202DE9F0418E
:1023D00004460D4616461F462A4602212046FFF7B0
:1023E0002DFF2046FFF77FFDA68367720020BDE822
:1023F000F08170B504460025FDF794FE064604F111
:102400001400FFF7B6FD28B904F11400FFF72AFD08
:1024100001250EE0A08B4FF6FF71884203DAA08BF6
:10242000401CA08305E03046FDF780FE6FF00200FF
:1024300070BD3046FDF77AFE012D01D1FFF732FF66
:102440000020F5E773B50546FDF76CFE0646A88B40
:10245000002806DDA88B401EA8833046FDF766FEE7
:1024600028E0019828B93046FDF760FE6FF00100C2
:102470007CBD00F041FA0446002020636A7A2146C0
:1024800005F11400FFF7F8FC0198002809DD01AA06
:10249000002104F1440000F041FB04F1440000F08D
:1024A00099FB3046FDF742FEFFF7FCFE206B08B1BA
:1024B000206BDDE70020DBE708B509A0FFF71CFD76
:1024C0000AA0FFF719FD12A00523012203210090A5
:1024D00012A0FFF711FD19A0FFF70EFD08BD0000C7
:1024E0000A205C207C202F0A000000002D2052547E
:1024F000202D2020202020546872656164204F70B8
:1025000065726174696E672053797374656D0A0032
:102510004A756C203139203230323300202F207C34
:10252000205C202020202025642E25642E25642078
:102530006275696C642025730A0000002032303017
:1025400036202D203230323020436F707972696727
:1025500068742062792072742D74687265616420D9
:102560007465616D0A00000070B50346A2B118469B
:102570000C4600BF14F8016B00F8016B3EB902E095
:10258000002500F8015B551E2A1EF9D102E0551EF8
:102590002A1EEFD100BF00BF184670BD2DE9F041E3
:1025A00005460E46E81C20F0030726F00308B8F1A4
:1025B000180F09D9A8F11800B84205D3A8EB0700F5
:1025C00018381E49086006E0324629461CA0FFF76D
:1025D00093FCBDE8F0812948076004684FF4F5508A
:1025E0002080164800680C3060600020A060608089
:1025F0002249606809680844214908604FF4F55091
:102600000968088001201E49096848800B48006855
:102610000C301B4909684860084800680C301849AC
:10262000096888600023012216A11848FFF7CEFE32
:10263000124800681649086000BFCAE70001002080
:102640006D656D20696E69742C206572726F7220E1
:10265000626567696E2061646472657373203078A7
:1026600025782C20616E6420656E6420616464723C
:1026700065737320307825780A000000F40000208C
:10268000F8000020686561700000000088130020D9
:10269000FC00002010B500200B490880002405E054
:1026A0000A4901EBC400FFF742FC641C202CF7DB55
:1026B0001F20074908700020064908600649086085
:1026C0000648FFF734FC10BD60010020A81300206D
:1026D00068010020640100205C0100206C010020E2
:1026E00070B508480068FEF7B3FC451E064850F870
:1026F0003500A0F114040548046004F11C00FDF746
:1027000046FD70BD5C010020A8130020640100207C
:1027100010B5002405E0044901EBC400FFF70AFCF2
:10272000641C002CF7D010BD7401002070472DE907
:10273000FF5F06460F4690461D46DDE90EAB31466B
:102740000120FFF71BFD8146B9F1000F03D10020E6
:1027500004B0BDE8F09F2846FFF736FC044624B9D4
:102760004846FFF735FD0020F2E743463A4631463A
:1027700048468DE8300CFEF7A1FC4846E8E710B566
:102780000446204600F0BEF810BD000070B51348A6
:102790000468FDF7C7FC05462046FEF700FD20460D
:1027A000FFF7EAFD042084F8340004F1440000F04F
:1027B000E6F92046FFF76DFD012803D12046FFF71B
:1027C00019FD04E004F114010548FFF7BDFBFFF714
:1027D00069FD2846FDF7AAFC70BD000064010020D9
:1027E0006C01002001E000F001F8FCE770B528E082
:1027F000FDF798FC054600BF13480168814201D0EF
:10280000012100E0002119B92846FDF78FFC19E0ED
:102810000D480068A0F1140404F11400D0E900216F
:102820005160D0E9001211604060006000BFA06AF2
:10283000FFF730F92046FFF7CBFC2846FDF776FC82
:1028400000BFD5E700BF70BD6C0100201FB5202080
:102850001F21C200074BCDE90032CDE90210002351
:10286000054A06A1074800F00FF8064800F06CF88A
:102870001FBD000008120020E52700087469646C81
:1028800065000000901100202DE9FF5F05460C4611
:1028900016461F46DDE910ABDDE90E89224601210F
:1028A0002846FFF7CBFC3B463246214628468DE8BA
:1028B000000FFEF703FC04B0BDE8F09F70B50446BE
:1028C00094F8340000F00F00022802D04FF0FF30DF
:1028D00070BDFDF727FC054604F11400FFF762FB0D
:1028E00004F1440000F0ECF92846FDF71FFC2046F7
:1028F000FFF71AFD0020EBE7014800687047000071
:102900006401002031B5FDF70DFC05460D48046853
:10291000204600F02FF86A46002104F1440000F040
:10292000FDF804F1440000F055F92846FDF7FEFBE0
:10293000FFF7B8FC206B801C08B900202063002042
:1029400038BD00006401002010B504463434A0787E
:1029500060706178012088406060022004F83409CA
:102960002046FFF7ABFFFFF7C7FF08B1FFF79AFC60
:10297000002010BD70B5044694F8340000F00F003C
:10298000012802D04FF0FF3070BDFDF7CBFB0546AC
:102990002046FFF7F1FC94F8340020F00F0040F0DF
:1029A000020084F8340004F1440000F089F928465C
:1029B000FDF7BCFB0020E7E770B5044625466FF045
:1029C0000100286305F11400FFF7ECFA2846FFF731
:1029D000ABFCFFF767FC70BD70B5FDF7A3FB0546C8
:1029E0001448046894F8340000F00F0001281CD14A
:1029F000D4E90510814218D004F11400FFF7D2FA8F
:102A000094F835200C4B03EBC20004F1140142682A
:102A1000116042684A604160086000BF2846FDF7C7
:102A200085FBFFF73FFC002070BD2846FDF77EFBCD
:102A30000020F9E764010020A81300200148006885
:102A400070470000EC00002010B50A480068401CE8
:102A500008490860FFF750FF0446206C401E2064C0
:102A6000206C18B9E06B2064FFF7B6FF00F004F8A3
:102A700010BD0000EC0000207CB56846FFF75AFA54
:102A8000FFF7DCFF0546FDF74DFB06463AE022481E
:102A90000068A0F11404A06A281A6FF0004188426F
:102AA0002ED22046FEF76DFB607A00F0020018B9C6
:102AB000607A20F00100607204F114016846FFF7AB
:102AC0004AFAD4E907108847FFF7B8FF0546684679
:102AD000FFF757FA00B115E004F11400FFF76BFAA5
:102AE000607A00F0020060B1607A00F0010040B14D
:102AF000607A20F001006072204600F06BF800E080
:102B000005E000BF0448FFF73CFA0028BFD000BF33
:102B10003046FDF70BFB7CBD740100202DE9F04130
:102B200004460E461546FDF7FDFA0746052E1ED251
:102B3000DFE806F00603090E1300606A286017E05C
:102B40002868606214E0607A20F0020060720FE092
:102B5000607A40F0020060720AE0607A00F00100E2
:102B600010B10120286001E00020286000E000BFD3
:102B700000BF3846FDF7DAFA0020BDE8F08170B5F5
:102B80000446FDF7CFFA05462046FEF7FAFA607ACA
:102B900020F0010060722846FDF7C8FA2046FFF7D2
:102BA00029FB002070BD2DE9F84307460C46154669
:102BB0001E46DDE9088922460A213846FFF73EFB1A
:102BC0004346324629463846CDF80090FEF7B8FA1B
:102BD000BDE8F8832DE9F8430546FDF7A3FA8046E2
:102BE0002846FEF7CEFA687A20F001006872FFF7F7
:102BF00025FF696A0844A8622F4F009700242AE045
:102C000019E05DF824201168142202EBC402881A2E
:102C1000826AAB6AD21A00D108E0826AAB6AD21A21
:102C20006FF000439A4200D20CE000BF5DF8240030
:102C300000684DF824005DF8240007EBC4014968E2
:102C40008842DED100BF2CB15DF824000830611C41
:102C50004DF82100641C002CD2D018480068401C9C
:102C6000164908600846066805F114010098FFF748
:102C700072F9022412E006F0030060B9C4F1010306
:102C800005F1140202EBC301C4F101025DF8220058
:102C9000FFF761F900E003E0B608641C012CEAD9F3
:102CA00000BF687A40F0010068724046FDF73EFAC6
:102CB0000020BDE8F8830000740100207C010020A2
:102CC00070B50446607A00F0010010B94FF0FF3093
:102CD00070BDFDF727FA05462046FEF752FA607AE6
:102CE00020F0010060722846FDF720FA0020EFE78F
:102CF0002DE9FF4F89B081464C460A9809EB000642
:102D00004E4504D24FF0FF36A6EB09000A9077E15A
:102D10000B980078252806D0B44202D20B98007890
:102D20002070641C69E1002526E00B98401C0B9084
:102D30000B9800782D2802D145F010051CE00B9867
:102D400000782B2802D145F0040515E00B98007897
:102D5000202802D145F008050EE00B9800782328C2
:102D600002D145F0200507E00B980078302802D109
:102D700045F0010500E000E0D7E700BF4FF0FF3766
:102D80000B98007830380A2804D20BA800F06DF9AF
:102D900007460EE00B9800782A280AD10B98401CB1
:102DA0000B900C9880C80C90002F02DA7F4245F0FF
:102DB00010054FF0FF3A0B9800782E281CD10B9885
:102DC000401C0B900B98007830380A2804D20BA8CE
:102DD00000F04BF982460AE00B9800782A2806D1C9
:102DE0000B98401C0B900C9850F804AB0C90BAF167
:102DF000000F01DA4FF0000A002004900B980078D1
:102E0000682803D00B9800786C2805D10B980078BF
:102E100004900B98401C0B900A2005900B980078AA
:102E20006F2873D00CDC632813D004DC25286ED007
:102E300058286DD195E064286BD06928F9D197E0C6
:102E4000702873D0732825D075286ED07828F0D1DB
:102E50008AE005F0100040B904E0B44201D220201D
:102E60002070641C781E071EF7DC0C9810F8041BF9
:102E70000C90C8B20790B44201D207982070641C2D
:102E800004E0B44201D220202070641C781E071E8A
:102E9000F7DCB2E00C98006806900C98001D0C90CE
:102EA000069808B960A006904FF0000801E008F10C
:102EB0000108B84504D0069810F808000028F6D19B
:102EC000BAF1000F02DDD04500DDD04605F010005C
:102ED00048B904E0B44201D220202070641C384676
:102EE0007F1E4045F6DC002008900BE0B44202D281
:102EF000069800782070641C0698401C069008987C
:102F0000401C089008984045F0DB09E026E01FE0EF
:102F100032E02CE00AE0B44201D220202070641C90
:102F200038467F1E4045F6DC67E024E0781C10B987
:102F3000082745F00105CDE9007A02950C9804C8F0
:102F4000102331460C902046FEF772FC044654E0F4
:102F5000B44201D225202070641C4EE00820059068
:102F60001DE045F0400500BF1020059017E000BFB0
:102F700045F0020500BF12E0B44201D225202070C6
:102F8000641C0B98007830B1B44202D20B980078E0
:102F90002070641C02E00B98401E0B902DE000BFD7
:102FA00004986C2807D10C9850F804BB0C9005F0DD
:102FB0000200B8B116E0049868280BD10C9830F8DC
:102FC000041B1FFA81FB0C9005F0020050B10FFAB0
:102FD0008BFB07E00C9850F804BB0C9005F0020046
:102FE00000B100BFCDE9007A02955A46314620462D
:102FF000059BFEF71DFC044600BF0B98401C0B9080
:103000000B98007800287FF483AE0A9838B1B44258
:1030100002D20020207002E0002006F8010CA4EB90
:1030200009000DB0BDE8F08F284E554C4C2900002A
:103030000020704700207047002070470020704734
:1030400010B5FDF76FF8FEF79DFDFFF735FAFFF7B6
:103050005FFBFFF71FFBFEF7B7FCFFF767FBFFF710
:10306000F5FBFFF73DFB002010BD0146002009E005
:103070000B685A1C0A601A7800EB800302EB4302CB
:10308000A2F130000A681278303A0A2AF0D3704769
:103090002DE9F04387B004460D4625480088FDF72A
:1030A000D2F98146182223496846FDF7B5F8214830
:1030B00048382146D0E910234846FEF711FB074661
:1030C0001D480088FDF7BFF980463946FDF7B6F880
:1030D0000646FDF7E3F91849088018480088FDF70F
:1030E000B2F981461822134920316846FDF794F859
:1030F000104848382946D0E918234846FEF7F0FA28
:1031000007460F480088FDF79EF980463946FDF7CF
:1031100095F80646FDF7C2F9094908800846018876
:1031200005480088FEF744F907B0BDE8F0830000C9
:10313000CC0000205C000020C8000020CE00002051
:10314000CA0000200000010002000100030001008D
:103150000200010004000100020001000300010060
:10316000020001000500010002000100030001004F
:103170000200010004000100020001000300010040
:10318000020001000600010002000100030001002E
:103190000200010004000100020001000300010020
:1031A000020001000500010002000100030001000F
:1031B0000200010004000100020001000300010000
:1031C00002000100070001000200010003000100ED
:1031D00002000100040001000200010003000100E0
:1031E00002000100050001000200010003000100CF
:1031F00002000100040001000200010003000100C0
:1032000002000100060001000200010003000100AD
:10321000020001000400010002000100030001009F
:10322000020001000500010002000100030001008E
:10323000020001000400010002000100030001007F
:1032400002000100303132333435363738396162AB
:10325000636465660030313233343536373839418E
:1032600042434445460000003D3000083530000828
:103270003130000839300008983200080000002082
:10328000900100008606000800330008900100202D
:1032900018170000AC1000081184A24A040011188D
:1032A0000102030406070809CDCCCC3DCDCC4C3D32
:1032B000091E203132400A383F202348421A200498
:1032C00023F0411AA0045A2004290C2914291C298E
:1032D00024014E32011310012A2004327832021ADE
:1032E000200C39043132051A300C3904312A06C950
:1032F000190C2904323C320A1A500C290402372CCA
:04000005080000ED02
:00000001FF
