:020000040800F2
:10000000381900200101000849070008C90100084B
:10001000F1060008B1050008D91100080000000031
:100020000000000000000000000000000D0A0008B1
:10003000B50500080000000053010008F90A000897
:100040001B0100081B0100081B0100081B01000820
:100050001B0100081B0100081B0100081B01000810
:100060001B0100081B0100081B0100081B01000800
:100070001B0100081B0100081B0100081B010008F0
:100080001B0100081B0100081B0100081B010008E0
:100090001B0100081B0100081B0100081B010008D0
:1000A0001B0100081B0100081B0100081B010008C0
:1000B0001B0100081B0100081B0100081B010008B0
:1000C0001B0100081B0100081B0100081B010008A0
:1000D0001B0100081B0100081B0100081B01000890
:1000E0001B0100081B0100081B010008DFF80CD0F1
:1000F00000F09CF900480047A704000838190020C8
:100100000648804706480047FEE7FEE7FEE7FEE7B1
:10011000FEE7FEE7FEE7FEE7FEE7FEE7AD0B0008C1
:10012000ED000008EFF3108072B6704780F310887E
:100130007047324A1368012B04D04FF0010313605B
:100140002F4A10602F4A11602F484FF080510160F4
:100150007047EFF3108272B62848016891B14FF0F2
:10016000000101602648016829B1EFF3098121E906
:10017000F00F00680160234909680968B1E8F00FD1
:1001800081F3098882F310884EF0040E70471D49F0
:1001900008601B494FF00000086018494FF001004B
:1001A00008601A481A49D0F8002041EA02010160AB
:1001B00015484FF08051016016480068006880F3D0
:1001C000088861B662B670471EF0040F0CBFEFF3EB
:1001D0000880EFF3098020E9F00F40F804ED1EF0ED
:1001E000040F0CBF80F3088880F3098800B501F084
:1001F000A3FF5DF804EB4EF0040E7047C001002031
:10020000B8010020BC01002004ED00E020ED00E07A
:100210000000FFFF08ED00E040EA01039B0703D068
:1002200009E008C9121F08C0042AFAD203E011F835
:10023000013B00F8013B521EF9D27047F0B480EA4E
:100240000102D40F4200B2EB410F02D2024608462F
:1002500011464A0042D0C30DDDB2C1F3C752AD1AF8
:10026000202D35DAC1F3160141F4000204B15242E7
:10027000C5F1200602FA06F12A411044B3EBD05F23
:1002800023D0C4B1012DA0EBC35009DCF0BC4FF06A
:10029000004202EAC352DBB200F5000000F097B85A
:1002A000400000F1807000EBC350A0F1807040EA84
:1002B000D170490009E0490841EAC071A0EBC35080
:1002C00000F50000400800EBC350F0BC00F076B829
:1002D0006142012202EB4101001BF6E7F0BC7047CE
:1002E00081F00041AAE780F00040A7E780EA010220
:1002F00010B502F00043400022D04A001FD0010E8A
:1003000001EB1261C0F35600C2F3560240F4000044
:1003100042F40002A0FB022000047F39140400D044
:10032000401C50EA124001D44000491EC2B20C06E3
:1003300004EBD010401C4008802A02D003E00020CB
:1003400010BD20F00100002900DA0020184310BD84
:10035000C10F80EAE0700844CA079623002100F02C
:1003600036B896230022114600F031B820F0004044
:10037000C10DC0F3160040F400007F2901DA00200F
:100380007047962903DCC1F19601C8407047963941
:1003900088407047002801DBC0F10040002901DBE4
:1003A000C1F1004181427047002801DBC0F10040EB
:1003B000002901DBC1F10041884270470029A8BF34
:1003C0007047401C490008BF20F00100704710B47E
:1003D000B0FA80FC00FA0CF050EA010404BF10BC33
:1003E000704749B1CCF1200421FA04F411FA0CF160
:1003F00018BF012121430843A3EB0C01CB1D4FEA99
:1004000000614FEA102042BF002010BC704700EB93
:10041000C35010440029A4BF10BC7047401C4900C1
:1004200008BF20F0010010BC70470000064C074DCB
:1004300006E0E06840F0010394E8070098471034B4
:10044000AC42F6D3FFF756FE5C3D00087C3D000849
:1004500070B58C1810F8015B15F0070301D110F886
:10046000013B2A1106D110F8012B03E010F8016BB3
:1004700001F8016B5B1EF9D12B0705D40023521E36
:100480000DD401F8013BFAE710F8013BCB1A921C9E
:1004900003E013F8015B01F8015B521EF9D5A1429C
:1004A000D8D3002070BD10B503F07AF8002010BD3D
:1004B00021B1826842F00102826003E0826822F08A
:1004C000010282607047000010B504461248844261
:1004D00008D10121401500F089FA0021601500F0D3
:1004E00085FA17E00D48844208D10121001500F07B
:1004F0007DFA0021201500F079FA0BE008488442CB
:1005000008D10121C80300F071FA00214FF4004026
:1005100000F06CFA10BD00000024014000280140EA
:10052000003C0140014600208A6802F004020AB142
:10053000012000E000207047014600208A6802F098
:1005400008020AB1012000E00020704730B50246E1
:100550000020002350680F4C20400D790C6844EABD
:1005600005242043506090680B4C2040D1E9025490
:100570002C434D7944EA450420439060D06A20F42E
:1005800070000C7C641EE4B2234340EA0350D06246
:1005900030BD0000FFFEF0FFFDF7F1FF816841F084
:1005A000080181607047816841F0040181607047F3
:1005B00000BFFEE770472DE9F04102460025002606
:1005C000002000230024002791F803C00CF00F0541
:1005D00091F803C00CF0100CBCF1000F03D091F89F
:1005E00002C04CEA050591F800C0BCF1000F31D003
:1005F000146800202BE04FF0010C0CFA00F3B1F866
:1006000000C00CEA03069E4220D183004FF00F0C7D
:100610000CFA03F7BC4305FA03FC4CEA040491F816
:1006200003C0BCF1280F06D14FF0010C0CFA00FCFE
:10063000C2F814C00AE091F803C0BCF1480F05D11C
:100640004FF0010C0CFA00FCC2F810C0401C082846
:10065000D1D31460B1F800C0BCF1FF0F34DD546891
:1006600000202EE000F1080C4FF0010808FA0CF30E
:10067000B1F800C00CEA03069E4221D183004FF07E
:100680000F0C0CFA03F7BC4305FA03FC4CEA040414
:1006900091F803C0BCF1280F05D100F1080C08FA4D
:1006A0000CF8C2F8148091F803C0BCF1480F07D1D0
:1006B00000F1080C4FF0010808FA0CF8C2F810809D
:1006C000401C0828CED35460BDE8F08102460020CB
:1006D00093680B400BB1012000E00020704741619E
:1006E0007047016170470AB1016100E041617047E4
:1006F00000BFFEE710B54FF400710448FFF7E6FFB6
:1007000004460A2000F064FF204610BD000C0140A2
:1007100010B5044622464FF480710348FFF7E3FF0B
:100720000A2000F055FF10BD000C014010B5044632
:1007300022464FF400710348FFF7D5FF0A2000F06E
:1007400047FF10BD000C0140704770B500240EE05B
:100750000021204600F090F8002504E0002000F081
:1007600009F9681CC5B2802DF8DB601CC4B2082CE6
:10077000EEDB70BD08B50121082000F027F9142038
:100780008DF8030003208DF802000002ADF8000090
:1007900069460748FFF70FFF012211020448FFF7DF
:1007A000A2FF012251020248FFF79DFF08BD000091
:1007B000000C014070B50546002415E08020204162
:1007C00000EA05024FF400710E48FFF78CFF01228A
:1007D00011020C48FFF787FF00224FF4807109488F
:1007E000FFF781FF601CC4B2082CE7DB0122110275
:1007F0000448FFF778FF00224FF480710148FFF7AB
:1008000072FF70BD000C014010B5012251020A4870
:10081000FFF769FF012211020748FFF764FF00227A
:100820004FF400710448FFF75EFF00224FF480711F
:100830000148FFF758FF10BD000C014010B5002221
:100840004FF400710648FFF74EFF012211020448E1
:10085000FFF749FF012251020148FFF744FF10BD95
:10086000000C014010B50246012000E050430B1E71
:10087000A1F10101FAD110BD70B505460C4645F055
:10088000B00000F067F8102141EA141000F062F89F
:1008900004F00F0000F05EF870BD00002DE9F0419B
:1008A00005460E461746721ED206110E6A1E5206E5
:1008B000100EFFF7E1FF002409E0A7F12001134A21
:1008C00002EB0111085D00F055F8601CC4B2082C61
:1008D000F3DB721ED206110E6A1E012303EB4202E5
:1008E000D0B2FFF7C9FF00240BE0A7F12001074AAF
:1008F00002EB011204F10801505C00F03BF8601CAF
:10090000C4B2082CF1DBBDE8F081000038360008E5
:100910002DE9F04780460E4617461D46002415E097
:10092000281B411E0A20FFF79DFFB7FBF0F00A21AC
:10093000B0FBF1F201FB120000F130093019C1B235
:100940004A464046FFF7AAFF601CC4B2AC42E7DB50
:10095000BDE8F08710B50446FFF756FF7820FFF793
:1009600029FF0020FFF726FF2046FFF723FFFFF7B0
:1009700065FF10BD10B50446FFF746FF7820FFF76E
:1009800019FF4020FFF716FF2046FFF713FFFFF780
:1009900055FF10BD01460020034A506820F4404036
:1009A00008435060704700000010024029B1064A19
:1009B000D2690243044BDA6104E0034AD2698243FC
:1009C000014BDA61704700000010024029B1064A6D
:1009D00092690243044B9A6104E0034A926982439C
:1009E000014B9A61704700000010024029B1064A8D
:1009F000D2680243044BDA6004E0034AD2688243BF
:100A0000014BDA607047000000100240704710B5DB
:100A100000F002F810BD00000CB50020019000901D
:100A20003348006840F480303149086000BF3048E6
:100A3000006800F4003000900198401C019000987C
:100A400018B90198B0F5A06FF1D12948006800F4F9
:100A5000003010B10120009001E0002000900098CB
:100A6000012843D12348006840F010002149086064
:100A70000846006820F0030008600846006840F05F
:100A8000020008601A4840681949486008464068F2
:100A900048600846406840F4806048600846406806
:100AA00020F47C1048600846406840F4E810486034
:100AB0000846006840F08070086000BF0C4800687D
:100AC00000F000700028F9D00948406820F00300C9
:100AD000074948600846406840F00200486000BF8F
:100AE0000348406800F00C000828F9D10CBD000054
:100AF000001002400020024010B501F043FC02F05B
:100B000053FA01F04FFC10BD10B500210020002267
:100B1000214B5B6803F00C0121B1042906D00829A0
:100B200028D107E01D4B1E4C236027E01B4B1C4CBB
:100B3000236023E0184B5B6803F47010164B5B686E
:100B400003F48032022303EB904022B9154B434358
:100B5000134C23600DE0104B5B6803F4003323B1AA
:100B6000104B43430E4C236003E00C4B43430C4CAF
:100B7000236003E0094B0A4C236000BF00BF064B13
:100B80005B68C3F30313084CE15C054B1B68CB4067
:100B9000034C236010BD00000010024000127A00D8
:100BA0000000002000093D000400002010B513489B
:100BB000006840F00100114908600846406810498B
:100BC00008400E494860084600680E4908400B4935
:100BD00008600846006820F48020086008464068E5
:100BE00020F4FE0048604FF41F008860FFF70FFFFD
:100BF0004FF000600449086010BD00000010024082
:100C00000000FFF8FFFFF6FE08ED00E0F0B50C462F
:100C1000154600220021068C4FF6FE773E400684E2
:100C2000028B018C4FF60C7632407E1C06EA0316CE
:100C30002E433243104EB0420ED0104EB0420BD075
:100C4000B0F1804F08D00E4EB04205D00D4EB042EC
:100C500002D00D4EB04206D14FF6FD76314044F041
:100C60000106314305E04FF6F576314044F00106C8
:100C7000314302830184F0BD002C01400034014067
:100C80000004004000080040000C0040F0B50C4695
:100C90001546002200210026078C4FF6EF7C07EA5C
:100CA0000C070784028B018C4FF6FF7707EA0416C6
:100CB00040F6FF473A404FF6FF7707EA03373A43DB
:100CC0004FF6FF7707EA05273A43114FB8420ED097
:100CD000104FB8420BD0B0F1804F08D00E4FB84241
:100CE00005D00E4FB84202D00D4FB84206D14FF694
:100CF000DF77394046F01007394305E04FF65F775C
:100D0000394044F01007394302830184F0BD0000EC
:100D1000002C014000340140000400400008004065
:100D2000000C0040F0B50C461546002200210026BC
:100D3000078C4FF6FF6C07EA0C070784828B018C47
:100D40004FF6FF7707EA04264FF60C773A404FF646
:100D5000FF7707EA03172F433A43114FB8420ED0EB
:100D6000104FB8420BD0B0F1804F08D00E4FB842B0
:100D700005D00E4FB84202D00D4FB84206D14FF603
:100D8000FF57394046F48077394305E04FF2FF576B
:100D9000394044F48077394382830184F0BD0000F8
:100DA000002C0140003401400004004000080040D5
:100DB000000C0040F0B50C4615460022002100262C
:100DC000078C4EF6FF7C07EA0C070784828B018CA8
:100DD0004FF6FF7707EA043640F6FF473A404FF6F2
:100DE000FF7707EA05273A434FF6FF7707EA03370D
:100DF0003A43114FB8420ED0104FB8420BD0B0F169
:100E0000804F08D00E4FB84205D00E4FB84202D0E6
:100E10000D4FB84206D14DF6FF77394046F4805762
:100E2000394305E047F6FF57394044F480573943CA
:100E300082830184F0BD0000002C01400034014099
:100E40000004004000080040000C004021B102886E
:100E500042F00102028004E002884FF6FE731A405D
:100E60000280704731B1B0F8442042F40042A0F84B
:100E7000442005E0B0F84420C2F30E02A0F844205C
:100E80007047F0B50C4615461E460021002200238F
:100E90000189028B038C4FF6F877394021434FF6D6
:100EA000FC473A4040F201173A434FF6DD773B40AA
:100EB0004FF6FF7707EA06172F433B430181028372
:100EC0000384F0BD0146888C7047000070B505466C
:100ED0000C46244885420ED0234885420BD0B5F1FC
:100EE000804F08D02148854205D02148854202D054
:100EF0002048854200D100E000BF208850B92389F6
:100F0000A28861882846FFF781FEE188284600F024
:100F1000E5F825E0208804280AD12389A288618881
:100F20002846FFF7B3FEE188284600F0E0F817E016
:100F3000208808280AD12389A28861882846FFF7DB
:100F4000F1FEE188284600F0DFF809E02389A28855
:100F500061882846FFF72EFFE188284600F0DDF87B
:100F600070BD0000002C014000340140000400402E
:100F700000080040000C0040002101804180012158
:100F800081800021C18001817047000070B500247C
:100F900000220023058C4FF6FE7635400584028C36
:100FA0008388048B4FF68F752C40B51E2C400D881E
:100FB0002C43751E2A400D892A434D882A43144D1F
:100FC000A8420BD0134DA84208D0134DA84205D01B
:100FD000124DA84202D0124DA84213D14FF6F77518
:100FE0002A404D892A434FF6FB752A408D882A43B3
:100FF0004FF6FF652B404FF6FF552B408D892B4355
:10100000CD892B4383800483CD888586028470BD7F
:10101000002C0140003401400040014000440140E8
:10102000004801400A460021018B4FF6F773194032
:10103000114301837047000070B500220023002493
:10104000058C4EF6FF7635400584038C8488828BB0
:1010500048F6FF752A404FF6FF452A400D884FF6A7
:10106000FF7606EA05252A434DF6FF752B400D89CC
:1010700006EA05352B434D8806EA05352B430B4D13
:10108000A84202D00A4DA84208D14BF6FF752C4069
:101090008D894FF6FF7606EA85152C43848082837E
:1010A000CD88A0F84050038470BD0000002C0140A2
:1010B000003401400A460021818B4FF2FF73194032
:1010C0004FF6FF7303EA0223194381837047818639
:1010D0007047A0F84010704781847047028B4FF62C
:1010E000F3731A400283028B0A4302837047028B18
:1010F0004FF2FF331A400283028B4FF6FF7303EA6D
:1011000001231A4302837047828B4FF6F3731A4010
:101110008283828B0A4382837047828B4FF2FF3334
:101120001A408283828B4FF6FF7303EA01231A432E
:1011300082837047002202881D4B98420ED01D4BBF
:1011400098420BD0B0F1804F08D01B4B984205D08D
:101150001A4B984202D01A4B984204D14FF68F7323
:101160001A404B881A43174B984207D0164B9842A7
:1011700004D04FF6FF431A40CB881A4302808B8875
:1011800083850B8803850A4B98420BD0094B984204
:1011900008D00E4B984205D00D4B984202D00D4B13
:1011A000984201D10B7A03860123838270470000A5
:1011B000002C0140003401400004004000080040C1
:1011C000000C0040001000400014004000400140AE
:1011D000004401400048014000BFFEE70146481EB0
:1011E000B0F1807F01D301207047481E4FF0E0220C
:1011F0005061FF20044A107000204FF0E0229061FF
:10120000072010610020EFE723ED00E0014609B957
:1012100000207047C8B220B1C8B20E4A105C401C12
:10122000F7E701F47F4028B10A48C1F30722805C48
:101230000930EEE701F47F0028B10648C1F3074208
:10124000805C1130E5E7034800EB1160007819304D
:10125000DFE70000283C000802E008C8121F08C1B0
:10126000002AFAD170477047002001E001C1121F27
:10127000002AFBD1704700002DE9FC5F04468B4635
:1012800015461E46DDE90C9ADDE90E7804F11400DE
:101290004060006000BF1C346560A660C4F80C901C
:1012A000C4F810A02321D4E9030201F0F3F9D4E932
:1012B000033C63441A1F0F4BD4E9010101F03CF8D1
:1012C0002060A77667760020E061C4F82080C4F82B
:1012D0002480606120766065A0651C3C00902346F8
:1012E000054A2146019004F1440001F00CFF002062
:1012F000BDE8FC9FED2C0008192F00082DE9F047F0
:1013000004460E4617469846DDF8209084F809906A
:10131000607A20F001006072E66127620020A0621E
:10132000C4F82480002506E004F1140101EBC50097
:1013300001F0B0F86D1C012DF6DBBDE8F08770B54B
:101340000546002406E005F1140101EBC40001F09C
:10135000E2F8641C012CF6DB70BD70B50446FEF7A4
:10136000E1FE0546206F10B12046216F88472846D0
:10137000FEF7DCFE70BD000008B501211020FFF76C
:1013800025FB4FF40050ADF8000003208DF802005B
:1013900010208DF8030069460448FFF70CF94FF45C
:1013A00000510248FFF79BF908BD00000010014002
:1013B0002DE9F04186B006460D461446404800F03F
:1013C000BCF90746FEF7CDFF20604FF0804000F0EB
:1013D000B4F90746FEF7C5FF60603A492068FEF79A
:1013E000E3FF05D24FF08F412068FEF779FF2060C0
:1013F00034496068FEF7D8FF05D24FF08F4160682E
:10140000FEF76EFF60602168A068FEF717FFA0601E
:101410006168E068FEF712FFE06014222A4968461E
:10142000FEF7FAFE284878380021D0E91C23304620
:1014300000F01CFC2061142223491C316846FEF791
:10144000EBFE214808300021D0E90323284600F0B4
:101450000DFC60611D492069FEF7F0FE80461422F4
:10146000194938316846FEF7D7FE17490831206818
:10147000D1E90A23414600F0D1FB0746FEF776FF8B
:10148000208312496069FEF7D9FE804614220E4976
:1014900054316846FEF7C0FE0B4908316068D1E957
:1014A0001123414600F0BAFB0746FEF75FFF608359
:1014B000618B208B00F0FAF906B0BDE8F0810000E6
:1014C0000004004000FEFF46AC00002000007A440B
:1014D00000B587B001214FF40170FFF777FA4FF4A0
:1014E0000040FFF757FA1020ADF8040000208DF8F7
:1014F000070001A91748FFF75EF81748FEF7E4FF59
:10150000002002908DF80C008DF80D004FF4602043
:1015100004900020059001208DF8180002A90E48C3
:10152000FFF714F801210C48FEF7C2FF0A48FFF745
:1015300035F800BF0848FEF7FFFF0028FAD106483B
:10154000FFF731F800BF0448FEF7ECFF0028FAD19E
:1015500007B000BD000801400024014008B5FFF7B6
:10156000B7FF01210420FFF731FA0420ADF8000095
:1015700010208DF8030003208DF802006946094809
:10158000FFF719F804210748FFF7ABF80820ADF87A
:10159000000069460348FFF70EF808210148FFF7ED
:1015A000A0F808BD0008014000F0AAF909E0054ACA
:1015B0000548016805480068FFF7FAFE0A2001F0B7
:1015C0008EFBF4E700120020200100201C01002007
:1015D000002106E00A2100BF0A1EA1F1010399B211
:1015E000FAD1021EA0F10100F4D1704700B587B016
:1015F00001210220FFF7DAF901210420FFF7E6F9C3
:1016000048208DF81B00C020ADF8180003208DF88D
:101610001A0006A91A48FEF7CEFF0020ADF8120006
:10162000ADF80E004FF6FF70ADF810000020ADF8D9
:101630000C008DF8140003A91248FFF77BFD6846E3
:10164000FFF79AFC0020ADF800000420ADF8000080
:101650000F20ADF8080069460A48FFF737FC02235F
:10166000002203210748FFF70CFC00210548FFF783
:1016700033FD01210348FFF7E9FB07B000BD00007F
:10168000000801400004004000B587B00121084671
:10169000FFF78CF901210420FFF798F948208DF815
:1016A0001B000320ADF818008DF81A0006A91C488D
:1016B000FEF781FF0020ADF81200ADF80E004FF6E6
:1016C000FF70ADF810000020ADF80C008DF814008C
:1016D00003A94FF08040FFF72DFD6846FFF74CFC53
:1016E0000020ADF800000420ADF800000F20ADF898
:1016F000080069464FF08040FFF7E8FB0223002214
:1017000003215807FFF7BDFB00214FF08040FFF792
:10171000E3FC01218807FFF799FB07B000BD00003B
:101720000008014010B5FFF761FFFFF7ADFF10BDE6
:1017300010B5DD2000F09AF810BD70B504462046C3
:10174000FFF7C0FB054600212046FFF7C5FC2846F1
:1017500070BD2DE9F04104460D46FFF7E9FF8046D4
:1017600000F00AF80746FEF7F3FD0646266086F00D
:1017700000402860BDE8F08101460846F32927D0E3
:1017800012DCCF283FD008DC3F2848D07F2849D042
:101790009F283ED0BF2848D13EE0DF2836D0E7283A
:1017A0000FD0EF2841D12BE0F73809283DD2DFE8F0
:1017B00000F00B3C173C131F1B2305001C4800685E
:1017C00070471B480068FBE7194840684042F7E74C
:1017D000174880684042F3E71548C0684042EFE789
:1017E000134800694042EBE7114840694042E7E78F
:1017F0000F4880694042E3E70D48C0694042DFE797
:101800000B484068DCE70A488068D9E70848C068A8
:10181000D6E707480069D3E705484069D0E70448A0
:101820008069CDE70248C069CAE70020C8E7000028
:101830001400002008B501210820FFF7C7F8142084
:101840008DF803004FF44070ADF8000003208DF8D0
:10185000020069460448FEF7AEFE4FF440710248AC
:10186000FEF73FFF08BD0000000C014070B50446C4
:1018700000F064F99E2000F04CF900F015F9E0B298
:1018800000F047F900F010F900F058F99F2000F03F
:1018900040F900F009F900F016F90546012000F0C2
:1018A0002CF900F059F9284670BD000070B50446C7
:1018B0000D4641F28830844200DD0446002D00DAF6
:1018C000002541F28830844200DD0446002D00DA14
:1018D000002529460348FFF7FAFB21460148FFF798
:1018E000F8FB70BD002C014010B500F097F8002007
:1018F00010BD10B5044600F03BFBFFF7F5FF10BD2F
:1019000010B54FF400510948FEF7EBFE4FF480513B
:101910000648FEF7E4FE4FF480410448FEF7E1FE7E
:101920004FF400410148FEF7DAFE10BD000C014003
:1019300008B501210820FFF749F84FF47040ADF8D1
:10194000000003208DF8020010208DF80300694686
:101950000148FEF730FE08BD000C014030B589B0EB
:1019600005460C46FFF7E4FF0121C802FFF72EF8F9
:1019700001210920FFF72AF801210520FFF726F8A9
:101980004FF41060ADF8200018208DF823000320DC
:101990008DF8220008A91F48FEF70DFEADF818507B
:1019A000ADF814400020ADF81A00ADF8160005A9F6
:1019B0001948FFF7BFFB0020ADF80A00ADF8100092
:1019C000ADF812006020ADF804000120ADF806006B
:1019D0000420ADF808000020ADF80C00ADF80E00B2
:1019E00001A90D48FFF7D2FA01A90B48FFF724FB24
:1019F00008210948FFF716FB08210748FFF75AFBA3
:101A000001210548FFF72EFA01210348FFF71EFACE
:101A100009B030BD00080140002C01401CB5142065
:101A200003214FF400730022CDE90010154916A0E0
:101A300001F02DF9174908600846006820B10846F2
:101A4000006801F031FA02E04FF0FF301CBD1420B5
:101A500003214FF400730022CDE900100E490FA0BE
:101A600001F015F90F4908600846006820B10846E2
:101A7000006801F019FA02E04FF0FF30E6E70020BD
:101A8000E4E70000A9150008636F6E74726F6C6C58
:101A90006572000014010020F13500087472616362
:101AA000650000001801002010B50120FEF73EFE81
:101AB0000120FEF72DFEFEF71DFE04460020FEF776
:101AC00027FE204610BD70B500250120FEF72EFE32
:101AD00000240EE00120FEF71BFEFEF70BFE01289E
:101AE00002D18020204105430020FEF711FE601C3A
:101AF000C4B2082CEEDB284670BD10B50446204663
:101B0000FEF714FE0120FEF703FE0020FEF700FEA4
:101B100010BD70B5054600240DE08021214101EA89
:101B20000500FEF703FE0120FEF7F2FD0020FEF7A0
:101B3000EFFD601CC4B2082CEFDB70BD10B50120B6
:101B4000FEF7F4FD0120FEF7E3FD0020FEF7EEFDB9
:101B50000020FEF7DDFD10BD10B50020FEF7E6FD0C
:101B60000120FEF7D5FD0120FEF7E0FD10BD70B5A8
:101B7000002406E0002500E06D1CB5F57A7FFBD35C
:101B8000641CB4F57A7FF5D3FEF7F4FDAE20FEF7C2
:101B9000E1FED520FEF7DEFE8020FEF7DBFEA8206A
:101BA000FEF7D8FE3F20FEF7D5FED320FEF7D2FE8B
:101BB0000020FEF7CFFE4020FEF7CCFEA120FEF76E
:101BC000C9FEC820FEF7C6FEDA20FEF7C3FE1220CB
:101BD000FEF7C0FE8120FEF7BDFECF20FEF7BAFE65
:101BE000D920FEF7B7FEF120FEF7B4FEDB20FEF7AA
:101BF000B1FE3020FEF7AEFEA420FEF7ABFEA6201D
:101C0000FEF7A8FE8D20FEF7A5FE1420FEF7A2FE2B
:101C1000AF20FEF79FFEFEF798FD70BD0FB42DE9D3
:101C2000F04704460D4629462046FEF75CFB0D9022
:101C30000D990B98FEF75AFB8046DDE90D01FEF782
:101C40004FFB81460A99FEF751FB07464146FEF7D6
:101C5000F5FA06461099FEF7F1FA10900D980E90DD
:101C60001098BDE8F0075DF814FB00000FB42DE9F3
:101C7000F04704460D4629462046FEF734FB0D90FA
:101C80000D990F98FEF7DAFA0F901F490F98FEF79B
:101C90008BFB01D21C480F901C490F98FEF77AFB72
:101CA00001D21A480F90DDE90D01FEF719FB8046BD
:101CB0000C99FEF71BFB06460F990B98FEF716FBD7
:101CC00080460D990A98FEF711FB81464146FEF7C2
:101CD000B5FA07463146FEF7B1FA10900D980E900E
:101CE0000B491098FEF760FB01D2094810900021C3
:101CF0001098FEF74FFB01D2002010901098BDE81D
:101D0000F0075DF814FB000000409C4600409CC6B4
:101D100000409C4530B51A4C436824681919884224
:101D200015D04B889BB9174B1B6899420FD0164BA7
:101D30001B688B4201D1144B18604B684360104BF9
:101D40001B68C31A0E4D4C682D682C44A3600C4CC4
:101D5000836824681A19824211D053887BB90A4BD0
:101D60001B68834201D1084B1A6043685360044BDF
:101D70001B68D31A024D44682D682C44A36030BD03
:101D80002C01002030010020340100202DE9F04F0B
:101D900086B00D469C46DDE9106401960F9B04F069
:101DA0004008B8F1000F02D0DFF8708101E0DFF8E1
:101DB0007081CDF8008004F01008B8F1000F01D058
:101DC00024F0010404F00108B8F1000F02D04FF034
:101DD000300801E04FF02008C246002704F0020856
:101DE000B8F1000F11D0002A02DA2D2752420CE080
:101DF00004F00408B8F1000F01D02B2705E004F02F
:101E00000808B8F1000F00D02027002142B94FF098
:101E1000300B8846491C0DF1080909F808B01DE08F
:101E20001AE0E146B9F10A0F08D14FF00A0BB2FBF4
:101E3000FBFE0BFB1E28B2FBFBF202E002F00F08D8
:101E4000120900BFDDF8009019F808B08846491C57
:101E50000DF1080909F808B0002AE2D1B14200DD0D
:101E60000E469B1B04F01108B8F1000F10D117B1FA
:101E7000002B00DD5B1E06E0A84203D24FF02008D5
:101E800080F80080401CB3F10008A3F10103F3DCEB
:101E900027B1A84200D207705B1E401C04F0100856
:101EA000B8F1000F0AD104E0A84201D280F800A0E6
:101EB000401CB3F10008A3F10103F5DC06E0A842E1
:101EC00003D24FF0300880F80080401CB046761EE8
:101ED0008845F4DC08E0A84205D20DF1080818F89E
:101EE000018080F80080401CB1F10008A1F10101DF
:101EF00004DDDDF80480B8F1000FECD106E0A84263
:101F000003D24FF0200880F80080401CB3F1000895
:101F1000A3F10103F3DC06B0BDE8F08F393D000802
:101F2000283D00081CB514200A214FF4007300223C
:101F3000CDE90010044905A000F0A9FE04462046A2
:101F400000F0B2FF1CBD0000F31800086D61696E5F
:101F50000000000010B5044C02E020688047241DFA
:101F600002488442F9D310BD503D0008543D00089A
:101F700010B5044C02E020688047241D02488442CA
:101F8000F9D310BD543D0008583D000810B5FEF7C8
:101F9000C9F8044604480088401C00B20249088081
:101FA0002046FEF7C3F810BD9801002010B5FEF7DB
:101FB000B9F804460C480088401E00B20A4908805F
:101FC0000846B0F9000000280ADC002008802046FE
:101FD000FEF7ACF80548006828B100F013FC02E0F9
:101FE0002046FEF7A3F810BD980100209C010020B8
:101FF00070B5054605B970BD1D480068854203D31C
:102000001C480068854200D3F5E7A5F10C044FF0A9
:10201000FF31194800F0C6FC608818B12088B0F57F
:10202000F55F08D015A000F017FA238862882146D2
:1020300019A000F011FA002060804FF4F5502080C4
:1020400021480068844201D21F4804600849606842
:102050000968611A401A1D490968081A1B49086075
:102060002046FFF757FE044800F073FC00BFC2E7AC
:102070002C0100203001002014140020746F206611
:102080007265652061206261642064617461206210
:102090006C6F636B3A0A00006D656D3A20307825ED
:1020A0003038782C207573656420666C61673A203F
:1020B00025642C206D6167696320636F64653A2035
:1020C0003078253034780A00340100203C010020AB
:1020D00000487047C801002000487047C811002020
:1020E00070B5FEF711FD124800684FF47A71B0FB2D
:1020F000F1F42046FFF772F8002141F61F40FFF788
:102100002DFCFFF797FBFFF70DFBFFF727FAFFF713
:1021100033F9FFF72CFDFFF71DFFFFF7DDFF044646
:10212000FFF7D6FF0546214600F0E8FC70BD000031
:10213000000000207047000070B505462C1D2E4899
:10214000006838B128462C4909688847064606B910
:1021500070BD00BF29A0E16B00F07EF92BA0216AC1
:1021600000F07AF92DA0616A00F076F92FA0A16A3B
:1021700000F072F931A0E16A00F06EF933A0216835
:1021800000F06AF935A0616800F066F937A0A1682F
:1021900000F062F939A0E16800F05EF93BA0216926
:1021A00000F05AF93DA0616900F056F93FA0A1691D
:1021B00000F052F941A0E16900F04EF943A0216B13
:1021C00000F04AF945A0616B00F046F947A0A16B09
:1021D00000F042F9287800F0040038B100F03CFE2D
:1021E0000646314645A000F037F902E04BA000F06A
:1021F00033F900BFFEE70000C40100207073723A9B
:10220000203078253038780A000000007230303AEB
:10221000203078253038780A000000007230313ADA
:10222000203078253038780A000000007230323AC9
:10223000203078253038780A000000007230333AB8
:10224000203078253038780A000000007230343AA7
:10225000203078253038780A000000007230353A96
:10226000203078253038780A000000007230363A85
:10227000203078253038780A000000007230373A74
:10228000203078253038780A000000007230383A63
:10229000203078253038780A000000007230393A52
:1022A000203078253038780A000000007231303A4A
:1022B000203078253038780A000000007231313A39
:1022C000203078253038780A000000007231323A28
:1022D000203078253038780A00000000206C723AEF
:1022E000203078253038780A000000002070633AEA
:1022F000203078253038780A000000006861726468
:10230000206661756C74206F6E20746872656164FC
:102310003A2025730D0A0D0A0000000068617264FE
:10232000206661756C74206F6E2068616E646C65E8
:10233000720D0A0D0A000000F0B504460D4616465F
:10234000301D20F0070040380146002203E00C4F0A
:1023500041F82270521C102AF9D30D624FF0000C84
:10236000C1F824C0C1F828C0C1F82CC0C1F830C0E1
:102370004B638C634FF0807CC1F83CC0F0BD000023
:10238000EFBEADDE10B5FDF7CDFE04460448007883
:10239000401C034908702046FDF7C8FE10BD000030
:1023A0002801002010B5FDF7BDFE04460448007862
:1023B000401E034908702046FDF7B8FE10BD00001E
:1023C0002801002070B504462068A0F114052846B5
:1023D00000F024FD002070BD2DE9F04105460C46BB
:1023E0009046204600F076FDB8F1000F03D0B8F11A
:1023F000010F23D105E004F11401284600F062F832
:102400001DE02E680FE0A6F1140794F8350097F848
:102410003510884206DA04F1140107F1140000F0C7
:1024200051F802E03668AE42EDD100BFAE4204D1B1
:1024300004F11401284600F045F800E000BF00BF99
:102440000020BDE8F08110B5044604F1140000F04E
:102450001BF8002010BD00000FB438B505A800908F
:102460007F210848009B049A00F0F2FE04467F2C6E
:1024700000D97F240348FFF75DFE0020009038BCA0
:102480005DF814FB941300204060006070474060CA
:1024900000607047406000607047026851600268E9
:1024A0000A600160486070470268516002680A6013
:1024B0000160486070470268516002680A6001600C
:1024C000486070474268116042684A604160086035
:1024D000704701460868884201D1012070470020FA
:1024E000FCE701460868884201D1012070470020BE
:1024F000FCE7D0E900215160D0E900121160406092
:1025000000607047D0E900215160D0E900121160ED
:10251000406000607047D0E900215160D0E90012AE
:1025200011604060006070472DE9F041054615B923
:102530000020BDE8F081E81C20F003054E4800684B
:10254000854201D90020F4E70C2D00D20C254FF074
:10255000FF314A4800F026FA4948006849490968AD
:10256000461A7EE04748006884196088002874D1C4
:1025700006F10C006168081AA8426ED306F10C003F
:102580006168091A05F11800814230D306F10C0088
:1025900000EB05083B48006800EB08074FF4F550D6
:1025A00038800020788060687860BE60C4F804805D
:1025B000012060803048796800680C30814205D085
:1025C0003049786809680844C0F808802E480168D6
:1025D00005F10C0008442C4908602C480068096883
:1025E000884219D2284800682849086014E0012070
:1025F0006080244960680968611A401A22490968A4
:10260000084421490860214800680968884203D2CB
:102610001D4800681D4908604FF4F5502080184897
:102620000068844212D107E01548006840681549E7
:10263000096808441249086011480068408828B1B8
:102640000F480068124909688842EDD10B4800F034
:1026500080F904F10C006CE7FFE70A480068304499
:10266000466805480068401BB0423FF67BAF034810
:1026700000F06FF900205CE73801002014140020FE
:10268000340100202C0100203C01002040010020EA
:1026900030010020F0B50C460546E6B2042A15D3F9
:1026A00000F0030797B9014646EA062343EA0343CD
:1026B00004E008C108C108C108C1103A102AF8D2C4
:1026C00001E008C1121F042AFBD20D4601E005F803
:1026D000016B171EA2F10102F9D1F0BD2DE9F04105
:1026E00006460F46304600F045F80546E868FFF715
:1026F0001BFF044614B90020BDE8F08100212046EC
:10270000EA68FFF7C7FF2672002060720822394688
:10271000204600F0D9F9FDF705FD804604F10C01D3
:10272000281DFFF7BAFE4046FDF700FD2046E3E70F
:1027300070B5044600202072FDF7F4FC054604F154
:102740000C00FFF7D6FE2846FDF7F0FC2046FFF709
:102750004FFC70BD70B5044600202072FDF7E2FC0E
:10276000054604F10C00FFF7C4FE2846FDF7DEFC29
:1027700070BD0000024600210AE0074800EB01108E
:102780000078904203D1044800EB01107047491CC7
:102790000529F2DB0020F9E7440100202DE9F0478C
:1027A00004460D46904600262846FFF7E3FF0746FD
:1027B000FFF7ECFB7E6802E0A6F10C003668381DDE
:1027C0008642F9D1FFF7F2FB45F080002072082223
:1027D0004146204600F078F9FDF7A4FC814604F15B
:1027E0000C01381DFFF759FE4846FDF79FFCBDE878
:1027F000F0870146087A00F0800008B10120704798
:102800000020FCE72DE9F041FDF78CFC0746184855
:10281000008838BB17480068FEF7F8FC461E1648CB
:1028200050F83600A0F1140414480068844218D00F
:1028300013490E701148056804601248007850B9B9
:1028400004F11C0105F11C00FDF773FC3846FDF78F
:102850006DFCBDE8F08104F11C0105F11C00FDF7E1
:1028600068FC00BF3846FDF761FC00BFF1E70000DF
:102870009801002094010020341400209C010020C5
:10288000A00100202801002070B50446FDF74AFC95
:10289000054614F8340F20F00F0040F001002070BE
:1028A0006278343C0A4B03EBC20004F11401426825
:1028B000116042684A604160086000BF0549A06B32
:1028C00009680843034908602846FDF72FFC70BDDE
:1028D000341400209401002070B50446FDF722FC5A
:1028E000054604F11400D0E900215160D0E900123E
:1028F00011604060006000BF94F83510094A02EB97
:10290000C1000168814201D1012100E0002129B10B
:102910000548A16B00688843034908602846FDF715
:1029200005FC70BD34140020940100202DE9F04115
:1029300004460D4616461F462A4602212046FFF74A
:102940002DFF2046FFF77FFDA68367720020BDE8BC
:10295000F08170B504460025FDF7E4FB064604F15E
:102960001400FFF7B6FD28B904F11400FFF72AFDA3
:1029700001250EE0A08B4FF6FF71884203DAA08B91
:10298000401CA08305E03046FDF7D0FB6FF002004D
:1029900070BD3046FDF7CAFB012D01D1FFF732FFB4
:1029A0000020F5E773B50546FDF7BCFB0646A88B8E
:1029B000002806DDA88B401EA8833046FDF7B6FB35
:1029C00028E0019828B93046FDF7B0FB6FF0010010
:1029D0007CBD00F041FA0446002020636A7A21465B
:1029E00005F11400FFF7F8FC0198002809DD01AAA1
:1029F000002104F1440000F041FB04F1440000F028
:102A000099FB3046FDF792FBFFF7FCFE206B08B107
:102A1000206BDDE70020DBE708B509A0FFF71CFD10
:102A20000AA0FFF719FD12A005230122032100903F
:102A300012A0FFF711FD19A0FFF70EFD08BD000061
:102A40000A205C207C202F0A000000002D20525418
:102A5000202D2020202020546872656164204F7052
:102A600065726174696E672053797374656D0A00CD
:102A70004A756C203139203230323300202F207CCF
:102A8000205C202020202025642E25642E25642013
:102A90006275696C642025730A00000020323030B2
:102AA00036202D203230323020436F7079726967C2
:102AB00068742062792072742D7468726561642074
:102AC0007465616D0A00000070B50346A2B1184636
:102AD0000C4600BF14F8016B00F8016B3EB902E030
:102AE000002500F8015B551E2A1EF9D102E0551E93
:102AF0002A1EEFD100BF00BF184670BD2DE9F0417E
:102B000005460E46E81C20F0030726F00308B8F13E
:102B1000180F09D9A8F11800B84205D3A8EB07008F
:102B200018381E49086006E0324629461CA0FFF707
:102B300093FCBDE8F0812948076004684FF4F55024
:102B40002080164800680C3060600020A060608023
:102B50002249606809680844214908604FF4F5502B
:102B60000968088001201E49096848800B480068F0
:102B70000C301B4909684860084800680C30184947
:102B8000096888600023012216A11848FFF7CEFECD
:102B9000124800681649086000BFCAE738010020E3
:102BA0006D656D20696E69742C206572726F72207C
:102BB000626567696E206164647265737320307842
:102BC00025782C20616E6420656E642061646472D7
:102BD00065737320307825780A0000002C010020EE
:102BE00030010020686561700000000014140020AE
:102BF0003401002010B500200B490880002405E0B6
:102C00000A4901EBC400FFF742FC641C202CF7DBEF
:102C10001F2007490870002006490860064908601F
:102C20000648FFF734FC10BD980100203414002042
:102C3000A00100209C01002094010020A40100209C
:102C400070B508480068FEF7E1FA451E064850F8DE
:102C50003500A0F114040548046004F11C00FDF7E0
:102C600096FA70BD94010020341400209C010020CD
:102C700010B5002405E0044901EBC400FFF70AFC8D
:102C8000641C002CF7D010BDAC01002070472DE96A
:102C9000FF5F06460F4690461D46DDE90EAB314606
:102CA0000120FFF71BFD8146B9F1000F03D1002081
:102CB00004B0BDE8F09F2846FFF736FC044624B96F
:102CC0004846FFF735FD0020F2E743463A463146D5
:102CD00048468DE8300CFEF7CFFA4846E8E710B5D5
:102CE0000446204600F0BEF810BD000070B5134841
:102CF0000468FDF717FA05462046FEF72EFB20462E
:102D0000FFF7EAFD042084F8340004F1440000F0E9
:102D1000E6F92046FFF76DFD012803D12046FFF7B5
:102D200019FD04E004F114010548FFF7BDFBFFF7AE
:102D300069FD2846FDF7FAF970BD00009C010020EE
:102D4000A401002001E000F001F8FCE770B528E0E4
:102D5000FDF7E8F9054600BF13480168814201D03C
:102D6000012100E0002119B92846FDF7DFF919E03B
:102D70000D480068A0F1140404F11400D0E900210A
:102D80005160D0E9001211604060006000BFA06A8D
:102D9000FFF72EF92046FFF7CBFC2846FDF7C6F9D2
:102DA00000BFD5E700BF70BDA40100201FB52020E3
:102DB0001F21C200074BCDE90032CDE902100023EC
:102DC000054A06A1074800F00FF8064800F06CF825
:102DD0001FBD000094120020452D00087469646C2A
:102DE000650000001C1200202DE9FF5F05460C461F
:102DF00016461F46DDE910ABDDE90E8922460121AA
:102E00002846FFF7CBFC3B463246214628468DE854
:102E1000000FFEF731FA04B0BDE8F09F70B504462C
:102E200094F8340000F00F00022802D04FF0FF3079
:102E300070BDFDF777F9054604F11400FFF762FB5A
:102E400004F1440000F0ECF92846FDF76FF9204644
:102E5000FFF71AFD0020EBE701480068704700000B
:102E60009C01002031B5FDF75DF905460D48046869
:102E7000204600F02FF86A46002104F1440000F0DB
:102E8000FDF804F1440000F055F92846FDF74EF92D
:102E9000FFF7B8FC206B801C08B9002020630020DD
:102EA00038BD00009C01002010B504463434A078E1
:102EB00060706178012088406060022004F8340965
:102EC0002046FFF7ABFFFFF7C7FF08B1FFF79AFCFB
:102ED000002010BD70B5044694F8340000F00F00D7
:102EE000012802D04FF0FF3070BDFDF71BF90546F9
:102EF0002046FFF7F1FC94F8340020F00F0040F07A
:102F0000020084F8340004F1440000F089F92846F6
:102F1000FDF70CF90020E7E770B5044625466FF091
:102F20000100286305F11400FFF7ECFA2846FFF7CB
:102F3000ABFCFFF767FC70BD70B5FDF7F3F8054615
:102F40001448046894F8340000F00F0001281CD1E4
:102F5000D4E90510814218D004F11400FFF7D2FA29
:102F600094F835200C4B03EBC20004F114014268C5
:102F7000116042684A604160086000BF2846FDF762
:102F8000D5F8FFF73FFC002070BD2846FDF7CEF8CE
:102F90000020F9E79C01002034140020014800685B
:102FA000704700002401002010B50A480068401C4A
:102FB00008490860FFF750FF0446206C401E20645B
:102FC000206C18B9E06B2064FFF7B6FF00F004F83E
:102FD00010BD0000240100207CB56846FFF75AFAB6
:102FE000FFF7DCFF0546FDF79DF806463AE022486C
:102FF0000068A0F11404A06A281A6FF0004188420A
:103000002ED22046FEF79BF9607A00F0020018B934
:10301000607A20F00100607204F114016846FFF745
:103020004AFAD4E907108847FFF7B8FF0546684613
:10303000FFF757FA00B115E004F11400FFF76BFA3F
:10304000607A00F0020060B1607A00F0010040B1E7
:10305000607A20F001006072204600F06BF800E01A
:1030600005E000BF0448FFF73CFA0028BFD000BFCE
:103070003046FDF75BF87CBDAC0100202DE9F04146
:1030800004460E461546FDF74DF80746052E1ED29E
:10309000DFE806F00603090E1300606A286017E0F7
:1030A0002868606214E0607A20F0020060720FE02D
:1030B000607A40F0020060720AE0607A00F001007D
:1030C00010B10120286001E00020286000E000BF6E
:1030D00000BF3846FDF72AF80020BDE8F08170B542
:1030E0000446FDF71FF805462046FEF728F9607AEA
:1030F00020F0010060722846FDF718F82046FFF71F
:1031000029FB002070BD2DE9F84307460C46154603
:103110001E46DDE9088922460A213846FFF73EFBB4
:103120004346324629463846CDF80090FEF7E6F889
:10313000BDE8F8832DE9F8430546FCF7F3FF804628
:103140002846FEF7FCF8687A20F001006872FFF765
:1031500025FF696A0844A8622F4F009700242AE0DF
:1031600019E05DF824201168142202EBC402881AC9
:10317000826AAB6AD21A00D108E0826AAB6AD21ABC
:103180006FF000439A4200D20CE000BF5DF82400CB
:1031900000684DF824005DF8240007EBC40149687D
:1031A0008842DED100BF2CB15DF824000830611CDC
:1031B0004DF82100641C002CD2D018480068401C37
:1031C000164908600846066805F114010098FFF7E3
:1031D00072F9022412E006F0030060B9C4F10103A1
:1031E00005F1140202EBC301C4F101025DF82200F3
:1031F000FFF761F900E003E0B608641C012CEAD98E
:1032000000BF687A40F0010068724046FCF78EFF0C
:103210000020BDE8F8830000AC010020B4010020CC
:1032200070B50446607A00F0010010B94FF0FF302D
:1032300070BDFCF777FF05462046FEF780F8607A00
:1032400020F0010060722846FCF770FF0020EFE7D5
:103250002DE9FF4F89B081464C460A9809EB0006DC
:103260004E4504D24FF0FF36A6EB09000A9077E1F5
:103270000B980078252806D0B44202D20B9800782B
:103280002070641C69E1002526E00B98401C0B901F
:103290000B9800782D2802D145F010051CE00B9802
:1032A00000782B2802D145F0040515E00B98007832
:1032B000202802D145F008050EE00B98007823285D
:1032C00002D145F0200507E00B980078302802D1A4
:1032D00045F0010500E000E0D7E700BF4FF0FF3701
:1032E0000B98007830380A2804D20BA800F06DF94A
:1032F00007460EE00B9800782A280AD10B98401C4C
:103300000B900C9880C80C90002F02DA7F4245F099
:1033100010054FF0FF3A0B9800782E281CD10B981F
:10332000401C0B900B98007830380A2804D20BA868
:1033300000F04BF982460AE00B9800782A2806D163
:103340000B98401C0B900C9850F804AB0C90BAF101
:10335000000F01DA4FF0000A002004900B9800786B
:10336000682803D00B9800786C2805D10B9800785A
:1033700004900B98401C0B900A2005900B98007845
:103380006F2873D00CDC632813D004DC25286ED0A2
:1033900058286DD195E064286BD06928F9D197E061
:1033A000702873D0732825D075286ED07828F0D176
:1033B0008AE005F0100040B904E0B44201D22020B8
:1033C0002070641C781E071EF7DC0C9810F8041B94
:1033D0000C90C8B20790B44201D207982070641CC8
:1033E00004E0B44201D220202070641C781E071E25
:1033F000F7DCB2E00C98006806900C98001D0C9069
:10340000069808B960A006904FF0000801E008F1A6
:103410000108B84504D0069810F808000028F6D135
:10342000BAF1000F02DDD04500DDD04605F01000F6
:1034300048B904E0B44201D220202070641C384610
:103440007F1E4045F6DC002008900BE0B44202D21B
:10345000069800782070641C0698401C0690089816
:10346000401C089008984045F0DB09E026E01FE08A
:1034700032E02CE00AE0B44201D220202070641C2B
:1034800038467F1E4045F6DC67E024E0781C10B922
:10349000082745F00105CDE9007A02950C9804C88B
:1034A000102331460C902046FEF770FC044654E091
:1034B000B44201D225202070641C4EE00820059003
:1034C0001DE045F0400500BF1020059017E000BF4B
:1034D00045F0020500BF12E0B44201D22520207061
:1034E000641C0B98007830B1B44202D20B9800787B
:1034F0002070641C02E00B98401E0B902DE000BF72
:1035000004986C2807D10C9850F804BB0C9005F077
:103510000200B8B116E0049868280BD10C9830F876
:10352000041B1FFA81FB0C9005F0020050B10FFA4A
:103530008BFB07E00C9850F804BB0C9005F00200E0
:1035400000B100BFCDE9007A02955A4631462046C7
:10355000059BFEF71BFC044600BF0B98401C0B901C
:103560000B98007800287FF483AE0A9838B1B442F3
:1035700002D20020207002E0002006F8010CA4EB2B
:1035800009000DB0BDE8F08F284E554C4C290000C5
:1035900000207047002070470020704700207047CF
:1035A00010B5FCF7BFFDFEF79BFDFFF735FAFFF7FF
:1035B0005FFBFFF71FFBFEF7B5FCFFF767FBFFF7AD
:1035C000F5FBFFF73DFB002010BD0146002009E0A0
:1035D0000B685A1C0A601A7800EB800302EB430266
:1035E000A2F130000A681278303A0A2AF0D3704704
:1035F0001CE00F490F48FEF7ACF80E480068FCF7D6
:10360000B5FE04460223224601210846FDF780F953
:1036100007480068FCF7AAFE044602232246194622
:103620000120FDF775F90A20FFF759FBE1E70000DB
:10363000200100201C01002000000000000000000C
:103640000000000000000000000000F80000000082
:10365000000000333000000000100C06100C0600C3
:10366000000000000000000040C07840C07840002A
:10367000043F04043F040400007088FC083000008C
:10368000001820FF211E0000F008F000E0180000E4
:1036900000211C031E211E0000F00888700000009D
:1036A0001E2123241927211010160E0000000000EF
:1036B0000000000000000000000000E0180402000C
:1036C000000000071820400000020418E00000007D
:1036D0000040201807000000404080F0804040007B
:1036E0000202010F01020200000000F000000000D1
:1036F0000101011F010101000000000000000000A5
:1037000080B0700000000000000000000000000019
:1037100000010101010101010000000000000000A2
:10372000003030000000000000000000806018043D
:10373000006018060100000000E010080810E0001A
:10374000000F102020100F00001010F800000000E3
:103750000020203F2020000000700808088870002A
:1037600000302824222130000030088888483000AA
:103770000018202020110E000000C02010F80000CA
:1037800000070424243F240000F808888808080063
:103790000019212020110E0000E010888818000078
:1037A000000F112020110E0000380808C83808004A
:1037B0000000003F000000000070880808887000CA
:1037C000001C222121221C0000E010080810E0004B
:1037D0000000312222110F00000000C0C0000000D4
:1037E00000000030300000000000008000000000F9
:1037F00000008060000000000000804020100800F1
:1038000000010204081020004040404040404000B9
:103810000404040404040400000810204080000094
:103820000020100804020100007048080808F00099
:103830000000003036010000C030C828E810E00069
:103840000718272423140B000000C038E0000000F4
:10385000203C23020227382008F88888887000005E
:10386000203F202020110E00C03008080808380032
:10387000071820202010080008F808080810E000A9
:10388000203F202020100F0008F88888E80810004A
:10389000203F20202320180008F88888E80810001E
:1038A000203F200003000000C03008080838000056
:1038B00007182020221E020008F808000008F80857
:1038C000203F210101213F20000808F808080000DE
:1038D0000020203F2020000000000808F808080011
:1038E000C08080807F00000008F888C02818080089
:1038F000203F20012638200008F8080000000000C2
:10390000203F20202020300008F8F800F8F80800B8
:10391000203F003F003F200008F830C00008F808B2
:10392000203F200007183F00E01008080810E000C2
:103930000F10202020100F0008F808080808F000D9
:10394000203F210101010000E01008080810E000FC
:103950000F18242438504F0008F888888888700091
:10396000203F2000030C3020007088080808380031
:103970000038202121221C00180808F80808180027
:103980000000203F2000000008F808000008F808A8
:10399000001F202020201F000878880000C8380859
:1039A000000007380E010000F80800F80008F800D1
:1039B000033C0700073C030008186880806818086B
:1039C00020302C03032C30200838C800C8380800E9
:1039D0000000203F2000000010080808C838080038
:1039E0002038262120201800000000FE02020200DC
:1039F0000000007F40404000000C30C0000000008C
:103A0000000000010638C00000020202FE000000B3
:103A1000004040407F000000000004020202040059
:103A20000000000000000000000000000000000096
:103A3000808080808080808000020204000000007E
:103A40000000000000000000000080808080000076
:103A50000019242222223F2008F800808000000064
:103A6000003F112020110E00000000808080000027
:103A7000000E112020201100000000808088F80036
:103A8000000E112020103F20000080808080000068
:103A9000001F222222221300008080F088888818CC
:103AA0000020203F202000000000808080808000D7
:103AB000006B94949493600008F80080808000006C
:103AC000203F210000203F20008098980000000047
:103AD0000020203F20200000000000809898000077
:103AE00000C08080807F000008F800008080800097
:103AF000203F24022D302000000808F800000000BC
:103B00000020203F20200000808080808080800076
:103B1000203F20003F20003F808000808080000008
:103B2000203F210000203F20000080808080000096
:103B3000001F202020201F008080008080000000C7
:103B400080FFA12020110E000000008080808000F6
:103B5000000E112020A0FF808080800080808000E7
:103B600020203F2120000100000080808080800014
:103B70000033242424241900008080E08080000089
:103B80000000001F202000008080000000808000D6
:103B9000001F202020103F20808080000080808037
:103BA00000010E30080601008080008000808080C7
:103BB0000F300C030C300F000080800080808000EC
:103BC0000020312E0E312000808080000080808017
:103BD00080818E70180601000080808080808000C7
:103BE0000021302C2221300000000000807C0202E5
:103BF00000000000003F404000000000FF00000007
:103C000000000000FF0000000002027C80000000B5
:103C10000040403F000000000006010102020404D1
:103C20000000000000000000000001000200010090
:103C30000300010002000100040001000200010075
:103C40000300010002000100050001000200010064
:103C50000300010002000100040001000200010055
:103C60000300010002000100060001000200010043
:103C70000300010002000100040001000200010035
:103C80000300010002000100050001000200010024
:103C90000300010002000100040001000200010015
:103CA0000300010002000100070001000200010002
:103CB00003000100020001000400010002000100F5
:103CC00003000100020001000500010002000100E4
:103CD00003000100020001000400010002000100D5
:103CE00003000100020001000600010002000100C3
:103CF00003000100020001000400010002000100B5
:103D000003000100020001000500010002000100A3
:103D10000300010002000100040001000200010094
:103D200003000100020001003031323334353637F0
:103D30003839616263646566003031323334353658
:103D40003738394142434445460000009D3500085C
:103D50009535000891350008993500087C3D00082C
:103D600000000020C801000050040008F83D0008D1
:103D7000C801002070170000681200081184A24AD0
:103D800004380901020304060708090C3132023223
:103D90000532063208320A320C3009CDCCCC3DACAB
:103DA000C52737021040091A1C210716C0400AD740
:103DB000233C091A1C4BC8421C0A114054091A1C06
:103DC00011091954091B1C012D32011348012A2025
:103DD00004327832021A580C2904322032051A684B
:103DE0000C2904323032062A782C19042981320A2F
:083DF0001A880C290402372C8B
:04000005080000ED02
:00000001FF
