:020000040800F2
:100000008818002001010008FD050008C90100084A
:10001000A505000865040008490A00080000000062
:1000200000000000000000000000000021060008A1
:100030006904000800000000530100080D070008D3
:100040001B0100081B0100081B0100081B01000820
:100050001B0100081B0100081B0100081B01000810
:100060001B0100081B0100081B0100081B01000800
:100070001B0100081B0100081B0100081B010008F0
:100080001B0100081B0100081B0100081B010008E0
:100090001B0100081B0100081B0100081B010008D0
:1000A0001B0100081B0100081B0100081B010008C0
:1000B0001B0100081B0100081B0100081B010008B0
:1000C0001B0100081B0100081B0100081B010008A0
:1000D0001B0100081B0100081B0100081B01000890
:1000E0001B0100081B0100081B010008DFF80CD0F1
:1000F00000F076F9004800475B04000888180020EB
:100100000648804706480047FEE7FEE7FEE7FEE7B1
:10011000FEE7FEE7FEE7FEE7FEE7FEE7C1070008B1
:10012000ED000008EFF3108072B6704780F310887E
:100130007047324A1368012B04D04FF0010313605B
:100140002F4A10602F4A11602F484FF080510160F4
:100150007047EFF3108272B62848016891B14FF0F2
:10016000000101602648016829B1EFF3098121E906
:10017000F00F00680160234909680968B1E8F00FD1
:1001800081F3098882F310884EF0040E70471D49F0
:1001900008601B494FF00000086018494FF001004B
:1001A00008601A481A49D0F8002041EA02010160AB
:1001B00015484FF08051016016480068006880F3D0
:1001C000088861B662B670471EF0040F0CBFEFF3EB
:1001D0000880EFF3098020E9F00F40F804ED1EF0ED
:1001E000040F0CBF80F3088880F3098800B501F084
:1001F000B9F95DF804EB4EF0040E70476801002079
:10020000600100206401002004ED00E020ED00E02A
:100210000000FFFF08ED00E0F0B480EA0102D40F17
:100220004200B2EB410F02D20246084611464A0094
:1002300042D0C30DDDB2C1F3C752AD1A202D35DA5D
:10024000C1F3160141F4000204B15242C5F1200687
:1002500002FA06F12A411044B3EBD05F23D0C4B1B7
:10026000012DA0EBC35009DCF0BC4FF0004202EAC4
:10027000C352DBB200F5000000F083B8400000F18B
:10028000807000EBC350A0F1807040EAD17049004B
:1002900009E0490841EAC071A0EBC35000F5000035
:1002A000400800EBC350F0BC00F062B8614201228C
:1002B00002EB4101001BF6E7F0BC704781F0004102
:1002C000AAE780F00040A7E780EA010210B502F03B
:1002D0000043400022D04A001FD0010E01EB126102
:1002E000C0F35600C2F3560240F4000042F400028C
:1002F000A0FB022000047F39140400D0401C50EA07
:10030000124001D44000491EC2B20C0604EBD010CA
:10031000401C4008802A02D003E0002010BD20F0DD
:100320000100002900DA0020184310BDC10F80EA47
:10033000E0700844CA079623002100F022B800F0BC
:10034000004220F00040C10DC0F3160040F4000050
:100350007F2901DA00207047962903DCC1F196015C
:10036000C84001E096398840002AF4D040427047E6
:100370000029A8BF7047401C490008BF20F00100B9
:10038000704710B4B0FA80FC00FA0CF050EA010497
:1003900004BF10BC704749B1CCF1200421FA04F429
:1003A00011FA0CF118BF012121430843A3EB0C0102
:1003B000CB1D4FEA00614FEA102042BF002010BC65
:1003C000704700EBC35010440029A4BF10BC704715
:1003D000401C490008BF20F0010010BC704700001D
:1003E000064C074D06E0E06840F0010394E8070082
:1003F00098471034AC42F6D3FFF77CFE502B000830
:10040000702B000870B58C1810F8015B15F007030D
:1004100001D110F8013B2A1106D110F8012B03E09D
:1004200010F8016B01F8016B5B1EF9D12B0705D4A5
:100430000023521E0DD401F8013BFAE710F8013BEE
:10044000CB1A921C03E013F8015B01F8015B521E0A
:10045000F9D5A142D8D3002070BD10B502F0B6FA8C
:10046000002010BD00BFFEE770472DE9F0410246B5
:1004700000250026002000230024002791F803C057
:100480000CF00F0591F803C00CF0100CBCF1000F3C
:1004900003D091F802C04CEA050591F800C0BCF108
:1004A000000F31D0146800202BE04FF0010C0CFA43
:1004B00000F3B1F800C00CEA03069E4220D183008D
:1004C0004FF00F0C0CFA03F7BC4305FA03FC4CEA9F
:1004D000040491F803C0BCF1280F06D14FF0010CC1
:1004E0000CFA00FCC2F814C00AE091F803C0BCF199
:1004F000480F05D14FF0010C0CFA00FCC2F810C0F7
:10050000401C0828D1D31460B1F800C0BCF1FF0F23
:1005100034DD546800202EE000F1080C4FF0010893
:1005200008FA0CF3B1F800C00CEA03069E4221D190
:1005300083004FF00F0C0CFA03F7BC4305FA03FCE1
:100540004CEA040491F803C0BCF1280F05D100F176
:10055000080C08FA0CF8C2F8148091F803C0BCF13A
:10056000480F07D100F1080C4FF0010808FA0CF809
:10057000C2F81080401C0828CED35460BDE8F0813A
:100580000246002093680B400BB1012000E00020E0
:10059000704741617047016170470AB1016100E035
:1005A0004161704700BFFEE710B508210448FFF71E
:1005B000E7FF04460A2000F016FB204610BD0000AD
:1005C0000008014010B50446224604210348FFF705
:1005D000E4FF0A2000F007FB10BD00000008014006
:1005E00010B50446224608210348FFF7D6FF0A202B
:1005F00000F0F9FA10BD000000080140704700004B
:1006000029B1064A92690243044B9A6104E0034A05
:1006100092698243014B9A617047000000100240CA
:10062000704710B500F002F810BD00000CB50020B6
:10063000019000903348006840F4803031490860F0
:1006400000BF3048006800F4003000900198401C62
:100650000190009818B90198B0F5A06FF1D1294820
:10066000006800F4003010B10120009001E000208B
:1006700000900098012843D12348006840F0100002
:10068000214908600846006820F003000860084619
:10069000006840F0020008601A4840681949486044
:1006A0000846406848600846406840F480604860FA
:1006B0000846406820F47C1048600846406840F4D2
:1006C000E81048600846006840F08070086000BF8D
:1006D0000C48006800F000700028F9D00948406814
:1006E00020F00300074948600846406840F00200D7
:1006F000486000BF0348406800F00C000828F9D1AA
:100700000CBD0000001002400020024010B501F0B6
:100710004FF801F05FFE01F05BF810BD10B500214D
:1007200000200022214B5B6803F00C0121B1042959
:1007300006D0082928D107E01D4B1E4C236027E076
:100740001B4B1C4C236023E0184B5B6803F47010B8
:10075000164B5B6803F48032022303EB904022B90E
:10076000154B4343134C23600DE0104B5B6803F4BF
:10077000003323B1104B43430E4C236003E00C4B7A
:1007800043430C4C236003E0094B0A4C236000BF39
:1007900000BF064B5B68C3F30313084CE15C054BD9
:1007A0001B68CB40034C236010BD000000100240CA
:1007B00000127A000000002000093D000400002023
:1007C00010B51348006840F0010011490860084660
:1007D0004068104908400E494860084600680E49C4
:1007E00008400B4908600846006820F48020086033
:1007F0000846406820F4FE0048604FF41F008860FF
:10080000FFF70FFF4FF000600449086010BD0000C3
:10081000001002400000FFF8FFFFF6FE08ED00E0C8
:1008200021B1028842F00102028004E002884FF602
:10083000FE731A400280704731B1B0F8442042F490
:100840000042A0F8442005E0B0F84420C2F30E02B4
:10085000A0F844207047000070B500240022002357
:10086000058C4FF6FE7635400584028C8388048B18
:100870004FF68F752C40B51E2C400D882C43751EED
:100880002A400D892A434D882A43144DA8420BD093
:10089000134DA84208D0134DA84205D0124DA842CE
:1008A00002D0124DA84213D14FF6F7752A404D8958
:1008B0002A434FF6FB752A408D882A434FF6FF6581
:1008C0002B404FF6FF552B408D892B43CD892B4371
:1008D00083800483CD888586028470BD002C01400E
:1008E0000034014000400140004401400048014004
:1008F0000A460021018B4FF6F7731940114301831B
:100900007047000070B5002200230024058C4EF6CD
:10091000FF7635400584038C8488828B48F6FF750A
:100920002A404FF6FF452A400D884FF6FF7606EA2B
:1009300005252A434DF6FF752B400D8906EA05353E
:100940002B434D8806EA05352B430B4DA84202D0B8
:100950000A4DA84208D14BF6FF752C408D894FF601
:10096000FF7606EA85152C4384808283CD88A0F823
:100970004050038470BD0000002C01400034014051
:100980000A460021818B4FF2FF7319404FF6FF7327
:1009900003EA022319438183704781867047A0F8D8
:1009A00040107047002202881D4B98420ED01D4B0C
:1009B00098420BD0B0F1804F08D01B4B984205D025
:1009C0001A4B984202D01A4B984204D14FF68F73BB
:1009D0001A404B881A43174B984207D0164B98423F
:1009E00004D04FF6FF431A40CB881A4302808B880D
:1009F00083850B8803850A4B98420BD0094B98429C
:100A000008D00E4B984205D00D4B984202D00D4BAA
:100A1000984201D10B7A038601238382704700003C
:100A2000002C014000340140000400400008004058
:100A3000000C004000100040001400400040014045
:100A4000004401400048014000BFFEE70146481E47
:100A5000B0F1807F01D301207047481E4FF0E022A3
:100A60005061FF20044A107000204FF0E022906196
:100A7000072010610020EFE723ED00E0014609B9EF
:100A800000207047C8B220B1C8B20E4A105C401CAA
:100A9000F7E701F47F4028B10A48C1F30722805CE0
:100AA0000930EEE701F47F0028B10648C1F30742A0
:100AB000805C1130E5E7034800EB116000781930E5
:100AC000DFE700001C2A000802E008C8121F08C166
:100AD000002AFAD170477047002001E001C1121FBF
:100AE000002AFBD1704700002DE9FC5F04468B46CD
:100AF00015461E46DDE90C9ADDE90E7804F1140076
:100B00004060006000BF1C346560A660C4F80C90B3
:100B1000C4F810A02321D4E9030200F0D1FFD4E9E6
:100B2000033C63441A1F0F4BD4E9010100F01AFE85
:100B30002060A77667760020E061C4F82080C4F8C2
:100B40002480606120766065A0651C3C009023468F
:100B5000054A2146019004F1440001F0EAFC00201E
:100B6000BDE8FC9F19210008452300082DE9F04746
:100B700004460E4617469846DDF8209084F8099002
:100B8000607A20F001006072E66127620020A062B6
:100B9000C4F82480002506E004F1140101EBC5002F
:100BA00000F08EFE6D1C012DF6DBBDE8F08770B500
:100BB0000546002406E005F1140101EBC40000F035
:100BC000C0FE641C012CF6DB70BD70B50446FFF757
:100BD000A9FA0546206F10B12046216F88472846A4
:100BE000FFF7A4FA70BD002106E00A2100BF0A1E2B
:100BF000A1F1010399B2FAD1021EA0F10100F4D1D2
:100C0000704710B5DD2000F04DF810BD70B50546F9
:100C10000E46FFF7F6FF13490870002408E0012094
:100C2000A0401049097808400F490855601CC4B21B
:100C3000082CF4DB002408E00B48005D18B9C4F16F
:100C400007000A490870601CC4B2082CF4DB07488E
:100C5000007855F8200028600448007856F82000F5
:100C6000306070BD54000020550000205D00002061
:100C700008B501210420FFF7C3FC14208DF8030000
:100C80000C20ADF8000003208DF8020069460448EE
:100C9000FFF7EBFB0C210248FFF77DFC08BD0000CD
:100CA0000008014070B5044600F0C4F99E2000F031
:100CB000ACF900F075F9E0B200F0A7F900F070F9B6
:100CC00000F0B8F99F2000F0A0F900F069F900F0F9
:100CD00076F90546012000F08CF900F0B9F92846B4
:100CE00070BD000006E004490448FFF78FFF0A20AA
:100CF00001F00BFAF7E70000C8000020C400002054
:100D000008B501210820FFF77BFC0320ADF80000A7
:100D10008DF8020010208DF8030069460148FFF7A6
:100D2000A4FB08BD000C014070B504460D46B4F5A7
:100D30007A6F01DD4FF47A64B5F57A7F01DA4FF40A
:100D40007A75B4F57A6F01DD4FF47A64B5F57A7F80
:100D500001DA4FF47A7521460348FFF71EFE294653
:100D60000148FFF71CFE70BD002C014010B500F0DB
:100D7000CFF8002010BD10B5044600F015FBFFF7BA
:100D8000F5FF10BD7FB505460C461748D0E9122384
:100D9000416C006D8DE80E000390134838300EC88A
:100DA000284600F061F9114908600F48D0E90B238B
:100DB000816A406B8DE80E0003900B481C300EC812
:100DC000204600F07FF90A490860084A12880B465D
:100DD0001B88D21A91B2054A1288054B1B881A4407
:100DE00090B2FFF7A1FF7FBD60000020B40000209B
:100DF000B800002010B54FF400510948FFF7C9FBB7
:100E00004FF480510648FFF7C6FB4FF48041044879
:100E1000FFF7BFFB4FF400410148FFF7BCFB10BDDB
:100E2000000C014008B501210820FFF7E9FB4FF451
:100E30007040ADF8000003208DF8020010208DF8FE
:100E4000030069460148FFF710FB08BD000C014094
:100E500030B589B005460C46FFF7E4FF0121C80212
:100E6000FFF7CEFB01210920FFF7CAFB0121052076
:100E7000FFF7C6FB4FF41060ADF8200018208DF886
:100E8000230003208DF8220008A91F48FFF7EDFA80
:100E9000ADF81850ADF814400020ADF81A00ADF8C8
:100EA000160005A91948FFF77DFD0020ADF80A00DE
:100EB000ADF81000ADF812006020ADF8040001207C
:100EC000ADF806000420ADF808000020ADF80E00D3
:100ED000ADF80C0001A90D48FFF7BEFC01A90B48B5
:100EE000FFF710FD08210948FFF702FD0821074818
:100EF000FFF746FD01210548FFF79EFC012103484D
:100F0000FFF78EFC09B030BD00080140002C014005
:100F10001CB5142003214FF400730022CDE900100A
:100F2000154916A001F0C9F817490860084600687D
:100F300020B10846006801F0CDF902E04FF0FF3023
:100F40001CBD142003214FF400730022CDE90010D2
:100F50000E490FA001F0B1F810490860084600687A
:100F600020B10846006801F0B5F902E04FF0FF300B
:100F7000E6E70020E4E70000291100087069645FDB
:100F8000636F6E74726F6C00BC000020E50C00088B
:100F9000677261795F7363616E000000C0000020BA
:100FA00010B50120FFF71CFB0120FFF70BFBFFF73B
:100FB000FBFA04460020FFF705FB204610BD70B584
:100FC00000250120FFF70CFB00240EE00120FFF7B5
:100FD000F9FAFFF7E9FA012802D180202041054300
:100FE0000020FFF7EFFA601CC4B2082CEEDB2846A5
:100FF00070BD10B504462046FFF7F2FA0120FFF756
:10100000E1FA0020FFF7DEFA10BD70B505460024B6
:101010000DE08021214101EA0500FFF7E1FA0120FE
:10102000FFF7D0FA0020FFF7CDFA601CC4B2082CFD
:10103000EFDB70BD10B50120FFF7D2FA0120FFF7FA
:10104000C1FA0020FFF7CCFA0020FFF7BBFA10BD71
:1010500010B50020FFF7C4FA0120FFF7B3FA012012
:10106000FFF7BEFA10BD00000FB42DE9F0410446B1
:101070002046FFF75BF90A900A990C98FFF7CCF825
:101080000C90DDE90A01FFF719F907460999FFF706
:101090001BF905460A990798FFF716F9074608490C
:1010A000FFF70FF906462946FFF7B6F80D900A98A4
:1010B0000B900D98FFF743F9BDE8F0015DF814FBC4
:1010C00000007A450FB42DE9F04104462046FFF7B1
:1010D0002DF90A900A990C98FFF79EF80C90DDE91B
:1010E0000A01FFF7EBF807460999FFF7EDF8054607
:1010F0000C990898FFF7E8F807460A990798FFF750
:10110000E3F880463946FFF787F806462946FFF799
:1011100083F80D900A980B900D98FFF710F9BDE831
:10112000F0015DF814FB0000FFF764FE08E00548DD
:10113000016805480068FFF725FE0A2000F0E5FF7A
:10114000F5E70000C8000020C400002030B51A4CAC
:10115000436824681919884215D04B889BB9174BEE
:101160001B6899420FD0164B1B688B4201D1144B60
:1011700018604B684360104B1B68C31A0E4D4C68D7
:101180002D682C44A3600C4C836824681A19824291
:1011900011D053887BB90A4B1B68834201D1084B9D
:1011A0001A6043685360044B1B68D31A024D4468AD
:1011B0002D682C44A36030BDD4000020D80000204E
:1011C000DC0000202DE9F04F86B00D469C46DDE99D
:1011D000106401960F9B04F04008B8F1000F02D094
:1011E000DFF8708101E0DFF87081CDF8008004F055
:1011F0001008B8F1000F01D024F0010404F0010838
:10120000B8F1000F02D04FF0300801E04FF0200895
:10121000C246002704F00208B8F1000F11D0002ADE
:1012200002DA2D2752420CE004F00408B8F1000F56
:1012300001D02B2705E004F00808B8F1000F00D01A
:101240002027002142B94FF0300B8846491C0DF190
:10125000080909F808B01DE01AE0E146B9F10A0FE3
:1012600008D14FF00A0BB2FBFBFE0BFB1E28B2FBB2
:10127000FBF202E002F00F08120900BFDDF8009057
:1012800019F808B08846491C0DF1080909F808B09A
:10129000002AE2D1B14200DD0E469B1B04F011088A
:1012A000B8F1000F10D117B1002B00DD5B1E06E076
:1012B000A84203D24FF0200880F80080401CB3F110
:1012C0000008A3F10103F3DC27B1A84200D20770A4
:1012D0005B1E401C04F01008B8F1000F0AD104E0B6
:1012E000A84201D280F800A0401CB3F10008A3F18D
:1012F0000103F5DC06E0A84203D24FF0300880F885
:101300000080401CB046761E8845F4DC08E0A84208
:1013100005D20DF1080818F8018080F80080401C03
:10132000B1F10008A1F1010104DDDDF80480B8F19C
:10133000000FECD106E0A84203D24FF0200880F85D
:101340000080401CB3F10008A3F10103F3DC06B0F8
:10135000BDE8F08F2D2B00081C2B00081CB51420B5
:101360000A214FF400730022CDE90010044905A0C2
:1013700000F0A3FE0446204600F0ACFF1CBD0000B8
:10138000770D00086D61696E0000000010B5044C17
:1013900002E020688047241D02488442F9D310BD32
:1013A000442B0008482B000810B5044C02E02068CC
:1013B0008047241D02488442F9D310BD482B000801
:1013C0004C2B000810B5FEF7ADFE0446044800881B
:1013D000401C00B2024908802046FEF7A7FE10BD5F
:1013E0004001002010B5FEF79DFE04460C48008821
:1013F000401E00B20A4908800846B0F900000028E3
:101400000ADC002008802046FEF790FE05480068B0
:1014100028B100F00DFC02E02046FEF787FE10BD6B
:10142000400100204401002070B5054605B970BD9B
:101430001D480068854203D31C480068854200D3DC
:10144000F5E7A5F10C044FF0FF31194800F0C0FC9E
:10145000608818B12088B0F5F55F08D015A000F0BD
:1014600011FA23886288214619A000F00BFA0020A7
:1014700060804FF4F550208021480068844201D2FA
:101480001F480460084960680968611A401A1D49CC
:101490000968081A1B4908602046FFF757FE0448F0
:1014A00000F06DFC00BFC2E7D4000020D80000208F
:1014B00068130020746F2066726565206120626188
:1014C00064206461746120626C6F636B3A0A00008F
:1014D0006D656D3A203078253038782C207573652D
:1014E0006420666C61673A2025642C206D61676911
:1014F0006320636F64653A203078253034780A00C1
:10150000DC000020E400002000487047700100204B
:10151000004870477011002070B5FFF7FFF80F48C2
:1015200000684FF47A71B0FBF1F42046FFF78EFAB1
:10153000002141F61F40FFF78BFCFFF799FBFFF7F7
:10154000DFFBFFF723FFFFF7E3FF0446FFF7DCFFB6
:101550000546214600F0E8FC70BD000000000020B8
:101560007047000070B505462C1D2E48006838B144
:1015700028462C4909688847064606B970BD00BF51
:1015800029A0E16B00F07EF92BA0216A00F07AF926
:101590002DA0616A00F076F92FA0A16A00F072F91F
:1015A00031A0E16A00F06EF933A0216800F06AF919
:1015B00035A0616800F066F937A0A16800F062F913
:1015C00039A0E16800F05EF93BA0216900F05AF90A
:1015D0003DA0616900F056F93FA0A16900F052F901
:1015E00041A0E16900F04EF943A0216B00F04AF9F7
:1015F00045A0616B00F046F947A0A16B00F042F9ED
:10160000287800F0040038B100F03CFE0646314670
:1016100045A000F037F902E04BA000F033F900BF1D
:10162000FEE700006C0100207073723A20307825CC
:101630003038780A000000007230303A20307825C7
:101640003038780A000000007230313A20307825B6
:101650003038780A000000007230323A20307825A5
:101660003038780A000000007230333A2030782594
:101670003038780A000000007230343A2030782583
:101680003038780A000000007230353A2030782572
:101690003038780A000000007230363A2030782561
:1016A0003038780A000000007230373A2030782550
:1016B0003038780A000000007230383A203078253F
:1016C0003038780A000000007230393A203078252E
:1016D0003038780A000000007231303A2030782526
:1016E0003038780A000000007231313A2030782515
:1016F0003038780A000000007231323A2030782504
:101700003038780A00000000206C723A20307825CA
:101710003038780A000000002070633A20307825C5
:101720003038780A000000006861726420666175D4
:101730006C74206F6E207468726561643A20257342
:101740000D0A0D0A00000000686172642066617570
:101750006C74206F6E2068616E646C65720D0A0D8A
:101760000A000000F0B504460D461646301D20F074
:10177000070040380146002203E00C4F41F8227078
:10178000521C102AF9D30D624FF0000CC1F824C08E
:10179000C1F828C0C1F82CC0C1F830C04B638C63BD
:1017A0004FF0807CC1F83CC0F0BD0000EFBEADDE64
:1017B00010B5FEF7B7FC044604480078401C034906
:1017C00008702046FEF7B2FC10BD0000D0000020DB
:1017D00010B5FEF7A7FC044604480078401E0349F4
:1017E00008702046FEF7A2FC10BD0000D0000020CB
:1017F00070B504462068A0F11405284600F024FDC9
:10180000002070BD2DE9F04105460C46904620466B
:1018100000F076FDB8F1000F03D0B8F1010F23D12D
:1018200005E004F11401284600F062F81DE02E687E
:101830000FE0A6F1140794F8350097F835108842A8
:1018400006DA04F1140107F1140000F051F802E087
:101850003668AE42EDD100BFAE4204D104F11401AE
:10186000284600F045F800E000BF00BF0020BDE8BA
:10187000F08110B5044604F1140000F01BF80020BC
:1018800010BD00000FB438B505A800907F210848AE
:10189000009B049A00F0F2FE04467F2C00D97F24BE
:1018A0000348FFF75DFE0020009038BC5DF814FB94
:1018B000E8120020406000607047406000607047A0
:1018C0004060006070470268516002680A60016011
:1018D000486070470268516002680A6001604860B1
:1018E00070470268516002680A6001604860704792
:1018F0004268116042684A60416008607047014672
:101900000868884201D1012070470020FCE70146A9
:101910000868884201D1012070470020FCE7D0E927
:1019200000215160D0E900121160406000607047F2
:10193000D0E900215160D0E90012116040600060E0
:101940007047D0E900215160D0E900121160406079
:10195000006070472DE9F041054615B90020BDE84B
:10196000F081E81C20F003054E480068854201D94B
:101970000020F4E70C2D00D20C254FF0FF314A482F
:1019800000F026FA4948006849490968461A7EE08D
:101990004748006884196088002874D106F10C005B
:1019A0006168081AA8426ED306F10C006168091A32
:1019B00005F11800814230D306F10C0000EB050858
:1019C0003B48006800EB08074FF4F55038800020D2
:1019D000788060687860BE60C4F804800120608010
:1019E0003048796800680C30814205D03049786809
:1019F00009680844C0F808802E48016805F10C0009
:101A000008442C4908602C4800680968884219D2AB
:101A1000284800682849086014E0012060802449B3
:101A200060680968611A401A224909680844214916
:101A30000860214800680968884203D21D48006890
:101A40001D4908604FF4F550208018480068844212
:101A500012D107E015480068406815490968084434
:101A60001249086011480068408828B10F48006892
:101A7000124909688842EDD10B4800F080F904F161
:101A80000C006CE7FFE70A480068304446680548E8
:101A90000068401BB0423FF67BAF034800F06FF98F
:101AA00000205CE7E000002068130020DC0000203C
:101AB000D4000020E4000020E8000020D80000202E
:101AC000F0B50C460546E6B2042A15D300F003072C
:101AD00097B9014646EA062343EA034304E008C1F6
:101AE00008C108C108C1103A102AF8D201E008C1A3
:101AF000121F042AFBD20D4601E005F8016B171EE8
:101B0000A2F10102F9D1F0BD2DE9F04106460F46E0
:101B1000304600F045F80546E868FFF71BFF04462D
:101B200014B90020BDE8F08100212046EA68FFF7E3
:101B3000C7FF26720020607208223946204600F056
:101B4000D9F9FEF7EFFA804604F10C01281DFFF7E2
:101B5000BAFE4046FEF7EAFA2046E3E770B50446CF
:101B600000202072FEF7DEFA054604F10C00FFF7B4
:101B7000D6FE2846FEF7DAFA2046FFF755FC70BD80
:101B800070B5044600202072FEF7CCFA054604F139
:101B90000C00FFF7C4FE2846FEF7C8FA70BD00002F
:101BA000024600210AE0074800EB0110007890424D
:101BB00003D1044800EB01107047491C0529F2DBF2
:101BC0000020F9E7EC0000202DE9F04704460D461F
:101BD000904600262846FFF7E3FF0746FFF7F2FB93
:101BE0007E6802E0A6F10C003668381D8642F9D105
:101BF000FFF7F8FB45F0800020720822414620469E
:101C000000F078F9FEF78EFA814604F10C01381DD8
:101C1000FFF759FE4846FEF789FABDE8F08701460E
:101C2000087A00F0800008B1012070470020FCE72E
:101C30002DE9F041FEF776FA07461848008838BBD0
:101C400017480068FEF71AFF461E164850F836007F
:101C5000A0F1140414480068844218D013490E708F
:101C60001148056804601248007850B904F11C015D
:101C700005F11C00FEF75DFA3846FEF757FABDE89D
:101C8000F08104F11C0105F11C00FEF752FA00BFBF
:101C90003846FEF74BFA00BFF1E700004001002094
:101CA0003C0100208813002044010020480100204E
:101CB000D000002070B50446FEF734FA054614F84B
:101CC000340F20F00F0040F0010020706278343CA7
:101CD0000A4B03EBC20004F1140142681160426830
:101CE0004A604160086000BF0549A06B096808436D
:101CF000034908602846FEF719FA70BD88130020D2
:101D00003C01002070B50446FEF70CFA054604F1CC
:101D10001400D0E900215160D0E900121160406048
:101D2000006000BF94F83510094A02EBC100016859
:101D3000814201D1012100E0002129B10548A16BB8
:101D400000688843034908602846FEF7EFF970BD34
:101D5000881300203C0100202DE9F04104460D4687
:101D600016461F462A4602212046FFF72DFF204631
:101D7000FFF77FFDA68367720020BDE8F08170B594
:101D800004460025FEF7CEF9064604F11400FFF7DD
:101D9000B6FD28B904F11400FFF72AFD01250EE075
:101DA000A08B4FF6FF71884203DAA08B401CA08302
:101DB00005E03046FEF7BAF96FF0020070BD30461C
:101DC000FEF7B4F9012D01D1FFF732FF0020F5E74E
:101DD00073B50546FEF7A6F90646A88B002806DD72
:101DE000A88B401EA8833046FEF7A0F928E0019892
:101DF00028B93046FEF79AF96FF001007CBD00F07B
:101E000041FA0446002020636A7A214605F1140055
:101E1000FFF7F8FC0198002809DD01AA002104F170
:101E2000440000F041FB04F1440000F099FB30460F
:101E3000FEF77CF9FFF7FCFE206B08B1206BDDE7B5
:101E40000020DBE708B509A0FFF71CFD0AA0FFF79B
:101E500019FD12A0052301220321009012A0FFF713
:101E600011FD19A0FFF70EFD08BD00000A205C203F
:101E70007C202F0A000000002D205254202D20200D
:101E8000202020546872656164204F70657261740F
:101E9000696E672053797374656D0A004A756C200A
:101EA0003135203230323300202F207C205C20203E
:101EB00020202025642E25642E2564206275696CFF
:101EC000642025730A0000002032303036202D2097
:101ED0003230323020436F707972696768742062E3
:101EE000792072742D746872656164207465616D07
:101EF0000A00000070B50346A2B118460C4600BFA8
:101F000014F8016B00F8016B3EB902E0002500F8FF
:101F1000015B551E2A1EF9D102E0551E2A1EEFD183
:101F200000BF00BF184670BD2DE9F04105460E46C2
:101F3000E81C20F0030726F00308B8F1180F09D9B0
:101F4000A8F11800B84205D3A8EB070018381E49BD
:101F5000086006E0324629461CA0FFF793FCBDE866
:101F6000F0812948076004684FF4F5502080164836
:101F700000680C3060600020A060608022496068CA
:101F800009680844214908604FF4F5500968088041
:101F900001201E49096848800B4800680C301B4925
:101FA00009684860084800680C301849096888606A
:101FB0000023012216A11848FFF7CEFE1248006840
:101FC0001649086000BFCAE7E00000206D656D207B
:101FD000696E69742C206572726F72206265676920
:101FE0006E206164647265737320307825782C20CC
:101FF000616E6420656E6420616464726573732031
:10200000307825780A000000D4000020D800002095
:10201000686561700000000068130020DC0000208B
:1020200010B500200B490880002405E00A4901EBA7
:10203000C400FFF742FC641C202CF7DB1F2007497B
:102040000870002006490860064908600648FFF746
:1020500034FC10BD400100208813002048010020FE
:10206000440100203C0100204C01002070B50848CC
:102070000068FEF703FD451E064850F83500A0F144
:1020800014040548046004F11C00FEF780F870BDDC
:102090003C010020881300204401002010B50024DA
:1020A00005E0044901EBC400FFF70AFC641C002CA6
:1020B000F7D010BD5401002070472DE9FF5F0646A0
:1020C0000F4690461D46DDE90EAB31460120FFF775
:1020D0001BFD8146B9F1000F03D1002004B0BDE81B
:1020E000F09F2846FFF736FC044624B94846FFF720
:1020F00035FD0020F2E743463A46314648468DE832
:10210000300CFEF7F1FC4846E8E710B504462046DF
:1021100000F0BEF810BD000070B513480468FEF76B
:1021200001F805462046FEF750FD2046FFF7EAFD80
:10213000042084F8340004F1440000F0E6F920465D
:10214000FFF76DFD012803D12046FFF719FD04E0DC
:1021500004F114010548FFF7BDFBFFF769FD2846B0
:10216000FDF7E4FF70BD0000440100204C01002099
:1021700001E000F001F8FCE770B528E0FDF7D2FFC0
:10218000054600BF13480168814201D0012100E0EB
:10219000002119B92846FDF7C9FF19E00D4800686C
:1021A000A0F1140404F11400D0E900215160D0E939
:1021B000001211604060006000BFA06AFFF734F9B0
:1021C0002046FFF7CBFC2846FDF7B0FF00BFD5E760
:1021D00000BF70BD4C0100201FB520201F21C20090
:1021E000074BCDE90032CDE902100023054A06A1D4
:1021F000074800F00FF8064800F06CF81FBD00001B
:10220000E8110020712100087469646C6500000009
:10221000701100202DE9FF5F05460C4616461F464B
:10222000DDE910ABDDE90E89224601212846FFF7E2
:10223000CBFC3B463246214628468DE8000FFEF790
:1022400053FC04B0BDE8F09F70B5044694F8340028
:1022500000F00F00022802D04FF0FF3070BDFDF7F4
:1022600061FF054604F11400FFF762FB04F144002E
:1022700000F0ECF92846FDF759FF2046FFF71AFD5C
:102280000020EBE70148006870470000440100208F
:1022900031B5FDF747FF05460D480468204600F0BC
:1022A0002FF86A46002104F1440000F0FDF804F123
:1022B000440000F055F92846FDF738FFFFF7B8FC59
:1022C000206B801C08B900202063002038BD00006E
:1022D0004401002010B504463434A0786070617861
:1022E000012088406060022004F834092046FFF78E
:1022F000ABFFFFF7C7FF08B1FFF79AFC002010BD46
:1023000070B5044694F8340000F00F00012802D0A4
:102310004FF0FF3070BDFDF705FF05462046FFF783
:10232000F1FC94F8340020F00F0040F0020084F833
:10233000340004F1440000F089F92846FDF7F6FE68
:102340000020E7E770B5044625466FF001002863DA
:1023500005F11400FFF7ECFA2846FFF7ABFCFFF796
:1023600067FC70BD70B5FDF7DDFE054614480468D6
:1023700094F8340000F00F0001281CD1D4E90510B6
:10238000814218D004F11400FFF7D2FA94F83520F6
:102390000C4B03EBC20004F1140142681160426867
:1023A0004A604160086000BF2846FDF7BFFEFFF7A6
:1023B0003FFC002070BD2846FDF7B8FE0020F9E77D
:1023C0004401002088130020014800687047000085
:1023D000CC00002010B50A480068401C084908607D
:1023E000FFF750FF0446206C401E2064206C18B993
:1023F000E06B2064FFF7B6FF00F004F810BD0000AA
:10240000CC0000207CB56846FFF75AFAFFF7DCFFE6
:102410000546FDF787FE06463AE022480068A0F12F
:102420001404A06A281A6FF0004188422ED2204678
:10243000FEF7BDFB607A00F0020018B9607A20F068
:102440000100607204F114016846FFF74AFAD4E90A
:1024500007108847FFF7B8FF05466846FFF757FAA9
:1024600000B115E004F11400FFF76BFA607A00F098
:10247000020060B1607A00F0010040B1607A20F0A3
:1024800001006072204600F06BF800E005E000BF3C
:102490000448FFF73CFA0028BFD000BF3046FDF7E4
:1024A00045FE7CBD540100202DE9F04104460E4656
:1024B0001546FDF737FE0746052E1ED2DFE806F06B
:1024C0000603090E1300606A286017E0286860623E
:1024D00014E0607A20F0020060720FE0607A40F051
:1024E000020060720AE0607A00F0010010B1012081
:1024F000286001E00020286000E000BF00BF3846EF
:10250000FDF714FE0020BDE8F08170B50446FDF72C
:1025100009FE05462046FEF74AFB607A20F00100DE
:1025200060722846FDF702FE2046FFF729FB0020D7
:1025300070BD2DE9F84307460C4615461E46DDE9F9
:10254000088922460A213846FFF73EFB43463246B9
:1025500029463846CDF80090FEF708FBBDE8F88321
:102560002DE9F8430546FDF7DDFD80462846FEF7D8
:102570001EFB687A20F001006872FFF725FF696A88
:102580000844A8622F4F009700242AE019E05DF864
:1025900024201168142202EBC402881A826AAB6AF2
:1025A000D21A00D108E0826AAB6AD21A6FF00043F7
:1025B0009A4200D20CE000BF5DF8240000684DF89C
:1025C00024005DF8240007EBC40149688842DED18D
:1025D00000BF2CB15DF824000830611C4DF82100CB
:1025E000641C002CD2D018480068401C16490860B2
:1025F0000846066805F114010098FFF772F90224F5
:1026000012E006F0030060B9C4F1010305F1140201
:1026100002EBC301C4F101025DF82200FFF761F98A
:1026200000E003E0B608641C012CEAD900BF687A18
:1026300040F0010068724046FDF778FD0020BDE8DB
:10264000F8830000540100205C01002070B50446AE
:10265000607A00F0010010B94FF0FF3070BDFDF757
:1026600061FD05462046FEF7A2FA607A20F00100DF
:1026700060722846FDF75AFD0020EFE72DE9FF4F75
:1026800089B081464C460A9809EB00064E4504D2B3
:102690004FF0FF36A6EB09000A9077E10B9800781F
:1026A000252806D0B44202D20B9800782070641C12
:1026B00069E1002526E00B98401C0B900B980078F0
:1026C0002D2802D145F010051CE00B9800782B282E
:1026D00002D145F0040515E00B980078202802D1BE
:1026E00045F008050EE00B980078232802D145F04C
:1026F000200507E00B980078302802D145F001054D
:1027000000E000E0D7E700BF4FF0FF370B980078FC
:1027100030380A2804D20BA800F06DF907460EE005
:102720000B9800782A280AD10B98401C0B900C9823
:1027300080C80C90002F02DA7F4245F010054FF060
:10274000FF3A0B9800782E281CD10B98401C0B9058
:102750000B98007830380A2804D20BA800F04BF907
:1027600082460AE00B9800782A2806D10B98401C74
:102770000B900C9850F804AB0C90BAF1000F01DAF2
:102780004FF0000A002004900B980078682803D0CE
:102790000B9800786C2805D10B98007804900B9862
:1027A000401C0B900A2005900B9800786F2873D07E
:1027B0000CDC632813D004DC25286ED058286DD19A
:1027C00095E064286BD06928F9D197E0702873D020
:1027D000732825D075286ED07828F0D18AE005F0CE
:1027E000100040B904E0B44201D220202070641CE3
:1027F000781E071EF7DC0C9810F8041B0C90C8B26A
:102800000790B44201D207982070641C04E0B442DF
:1028100001D220202070641C781E071EF7DCB2E075
:102820000C98006806900C98001D0C90069808B94A
:1028300060A006904FF0000801E008F10108B845DB
:1028400004D0069810F808000028F6D1BAF1000F5D
:1028500002DDD04500DDD04605F0100048B904E0A7
:10286000B44201D220202070641C38467F1E4045AF
:10287000F6DC002008900BE0B44202D20698007803
:102880002070641C0698401C06900898401C089014
:1028900008984045F0DB09E026E01FE032E02CE03C
:1028A0000AE0B44201D220202070641C38467F1E0A
:1028B0004045F6DC67E024E0781C10B9082745F0B5
:1028C0000105CDE9007A02950C9804C81023314621
:1028D0000C902046FEF776FC044654E0B44201D248
:1028E00025202070641C4EE0082005901DE045F076
:1028F000400500BF1020059017E000BF45F002051D
:1029000000BF12E0B44201D225202070641C0B9855
:10291000007830B1B44202D20B9800782070641C69
:1029200002E00B98401E0B902DE000BF04986C282D
:1029300007D10C9850F804BB0C9005F00200B8B118
:1029400016E0049868280BD10C9830F8041B1FFA85
:1029500081FB0C9005F0020050B10FFA8BFB07E0F1
:102960000C9850F804BB0C9005F0020000B100BFB9
:10297000CDE9007A02955A4631462046059BFEF77E
:1029800021FC044600BF0B98401C0B900B9800786C
:1029900000287FF483AE0A9838B1B44202D20020F6
:1029A000207002E0002006F8010CA4EB09000DB035
:1029B000BDE8F08F284E554C4C2900000020704790
:1029C00000207047002070470020704710B5FDF7C9
:1029D000A9FBFEF7A1FDFFF735FAFFF75FFBFFF755
:1029E0001FFBFEF7BBFCFFF767FBFFF7F5FBFFF7ED
:1029F0003DFB002010BD0146002009E00B685A1C79
:102A00000A601A7800EB800302EB4302A2F1300067
:102A10000A681278303A0A2AF0D3704700000100A1
:102A20000200010003000100020001000400010097
:102A30000200010003000100020001000500010086
:102A40000200010003000100020001000400010077
:102A50000200010003000100020001000600010065
:102A60000200010003000100020001000400010057
:102A70000200010003000100020001000500010046
:102A80000200010003000100020001000400010037
:102A90000200010003000100020001000700010024
:102AA0000200010003000100020001000400010017
:102AB0000200010003000100020001000500010006
:102AC00002000100030001000200010004000100F7
:102AD00002000100030001000200010006000100E5
:102AE00002000100030001000200010004000100D7
:102AF00002000100030001000200010005000100C6
:102B000002000100030001000200010004000100B6
:102B100002000100030001000200010030313233E5
:102B20003435363738396162636465660030313276
:102B30003334353637383941424344454600000086
:102B4000C9290008C1290008BD290008C5290008B5
:102B5000702B000800000020700100000404000831
:102B6000DC2B00087001002018170000D80A0008AC
:102B70001184A24A04180E0102030406070809F989
:102B8000FFFFFFFB041AFD04290132013203320565
:102B90005A070829102918793C9924012A33E1435E
:102BA000123F0412C08F452A201C310348B4422929
:102BB000A41AF059290432784A02152A20045A200E
:102BC000BC1A100C290432302A0686291C1904323A
:0C2BD0003C320A2A301C190402372C0089
:04000005080000ED02
:00000001FF
